{
  "contractName": "TheGuySoftV2",
  "abi": [
    {
      "inputs": [],
      "stateMutability": "nonpayable",
      "type": "constructor"
    },
    {
      "anonymous": false,
      "inputs": [
        {
          "indexed": true,
          "internalType": "address",
          "name": "owner",
          "type": "address"
        },
        {
          "indexed": true,
          "internalType": "address",
          "name": "approved",
          "type": "address"
        },
        {
          "indexed": true,
          "internalType": "uint256",
          "name": "tokenId",
          "type": "uint256"
        }
      ],
      "name": "Approval",
      "type": "event"
    },
    {
      "anonymous": false,
      "inputs": [
        {
          "indexed": true,
          "internalType": "address",
          "name": "owner",
          "type": "address"
        },
        {
          "indexed": true,
          "internalType": "address",
          "name": "operator",
          "type": "address"
        },
        {
          "indexed": false,
          "internalType": "bool",
          "name": "approved",
          "type": "bool"
        }
      ],
      "name": "ApprovalForAll",
      "type": "event"
    },
    {
      "anonymous": false,
      "inputs": [
        {
          "indexed": true,
          "internalType": "address",
          "name": "previousOwner",
          "type": "address"
        },
        {
          "indexed": true,
          "internalType": "address",
          "name": "newOwner",
          "type": "address"
        }
      ],
      "name": "OwnershipTransferred",
      "type": "event"
    },
    {
      "anonymous": false,
      "inputs": [
        {
          "indexed": true,
          "internalType": "address",
          "name": "from",
          "type": "address"
        },
        {
          "indexed": true,
          "internalType": "address",
          "name": "to",
          "type": "address"
        },
        {
          "indexed": true,
          "internalType": "uint256",
          "name": "tokenId",
          "type": "uint256"
        }
      ],
      "name": "Transfer",
      "type": "event"
    },
    {
      "inputs": [],
      "name": "PRICE_BURN",
      "outputs": [
        {
          "internalType": "uint256",
          "name": "",
          "type": "uint256"
        }
      ],
      "stateMutability": "view",
      "type": "function"
    },
    {
      "inputs": [],
      "name": "PRICE_MINT_CUSTOM",
      "outputs": [
        {
          "internalType": "uint256",
          "name": "",
          "type": "uint256"
        }
      ],
      "stateMutability": "view",
      "type": "function"
    },
    {
      "inputs": [],
      "name": "PRICE_MINT_CUSTOM_STICKY",
      "outputs": [
        {
          "internalType": "uint256",
          "name": "",
          "type": "uint256"
        }
      ],
      "stateMutability": "view",
      "type": "function"
    },
    {
      "inputs": [
        {
          "internalType": "address",
          "name": "owner",
          "type": "address"
        }
      ],
      "name": "balanceOf",
      "outputs": [
        {
          "internalType": "uint256",
          "name": "",
          "type": "uint256"
        }
      ],
      "stateMutability": "view",
      "type": "function"
    },
    {
      "inputs": [
        {
          "internalType": "uint256",
          "name": "tokenId",
          "type": "uint256"
        }
      ],
      "name": "getApproved",
      "outputs": [
        {
          "internalType": "address",
          "name": "",
          "type": "address"
        }
      ],
      "stateMutability": "view",
      "type": "function"
    },
    {
      "inputs": [
        {
          "internalType": "address",
          "name": "owner",
          "type": "address"
        },
        {
          "internalType": "address",
          "name": "operator",
          "type": "address"
        }
      ],
      "name": "isApprovedForAll",
      "outputs": [
        {
          "internalType": "bool",
          "name": "",
          "type": "bool"
        }
      ],
      "stateMutability": "view",
      "type": "function"
    },
    {
      "inputs": [],
      "name": "name",
      "outputs": [
        {
          "internalType": "string",
          "name": "",
          "type": "string"
        }
      ],
      "stateMutability": "view",
      "type": "function"
    },
    {
      "inputs": [],
      "name": "owner",
      "outputs": [
        {
          "internalType": "address",
          "name": "",
          "type": "address"
        }
      ],
      "stateMutability": "view",
      "type": "function"
    },
    {
      "inputs": [
        {
          "internalType": "uint256",
          "name": "tokenId",
          "type": "uint256"
        }
      ],
      "name": "ownerOf",
      "outputs": [
        {
          "internalType": "address",
          "name": "",
          "type": "address"
        }
      ],
      "stateMutability": "view",
      "type": "function"
    },
    {
      "inputs": [],
      "name": "renounceOwnership",
      "outputs": [],
      "stateMutability": "nonpayable",
      "type": "function"
    },
    {
      "inputs": [
        {
          "internalType": "address",
          "name": "operator",
          "type": "address"
        },
        {
          "internalType": "bool",
          "name": "approved",
          "type": "bool"
        }
      ],
      "name": "setApprovalForAll",
      "outputs": [],
      "stateMutability": "nonpayable",
      "type": "function"
    },
    {
      "inputs": [
        {
          "internalType": "bytes4",
          "name": "interfaceId",
          "type": "bytes4"
        }
      ],
      "name": "supportsInterface",
      "outputs": [
        {
          "internalType": "bool",
          "name": "",
          "type": "bool"
        }
      ],
      "stateMutability": "view",
      "type": "function"
    },
    {
      "inputs": [],
      "name": "symbol",
      "outputs": [
        {
          "internalType": "string",
          "name": "",
          "type": "string"
        }
      ],
      "stateMutability": "view",
      "type": "function"
    },
    {
      "inputs": [
        {
          "internalType": "address",
          "name": "newOwner",
          "type": "address"
        }
      ],
      "name": "transferOwnership",
      "outputs": [],
      "stateMutability": "nonpayable",
      "type": "function"
    },
    {
      "inputs": [
        {
          "internalType": "address",
          "name": "to",
          "type": "address"
        },
        {
          "internalType": "string",
          "name": "_description",
          "type": "string"
        },
        {
          "internalType": "string",
          "name": "_imageText",
          "type": "string"
        },
        {
          "internalType": "bool",
          "name": "_sticky",
          "type": "bool"
        }
      ],
      "name": "mint",
      "outputs": [],
      "stateMutability": "payable",
      "type": "function"
    },
    {
      "inputs": [
        {
          "internalType": "address",
          "name": "to",
          "type": "address"
        },
        {
          "internalType": "uint256",
          "name": "tokenId",
          "type": "uint256"
        }
      ],
      "name": "approve",
      "outputs": [],
      "stateMutability": "nonpayable",
      "type": "function"
    },
    {
      "inputs": [
        {
          "internalType": "address",
          "name": "from",
          "type": "address"
        },
        {
          "internalType": "address",
          "name": "to",
          "type": "address"
        },
        {
          "internalType": "uint256",
          "name": "tokenId",
          "type": "uint256"
        }
      ],
      "name": "safeTransferFrom",
      "outputs": [],
      "stateMutability": "nonpayable",
      "type": "function"
    },
    {
      "inputs": [
        {
          "internalType": "address",
          "name": "from",
          "type": "address"
        },
        {
          "internalType": "address",
          "name": "to",
          "type": "address"
        },
        {
          "internalType": "uint256",
          "name": "tokenId",
          "type": "uint256"
        },
        {
          "internalType": "bytes",
          "name": "_data",
          "type": "bytes"
        }
      ],
      "name": "safeTransferFrom",
      "outputs": [],
      "stateMutability": "nonpayable",
      "type": "function"
    },
    {
      "inputs": [
        {
          "internalType": "address",
          "name": "from",
          "type": "address"
        },
        {
          "internalType": "address",
          "name": "to",
          "type": "address"
        },
        {
          "internalType": "uint256",
          "name": "tokenId",
          "type": "uint256"
        }
      ],
      "name": "transferFrom",
      "outputs": [],
      "stateMutability": "nonpayable",
      "type": "function"
    },
    {
      "inputs": [
        {
          "internalType": "uint256",
          "name": "tokenId",
          "type": "uint256"
        }
      ],
      "name": "burn",
      "outputs": [],
      "stateMutability": "payable",
      "type": "function"
    },
    {
      "inputs": [
        {
          "internalType": "uint256",
          "name": "tokenId",
          "type": "uint256"
        }
      ],
      "name": "tokenURI",
      "outputs": [
        {
          "internalType": "string",
          "name": "",
          "type": "string"
        }
      ],
      "stateMutability": "view",
      "type": "function"
    }
  ],
  "bytecode": "0x608060405266470de4df820000600c55666a94d74f430000600d55666a94d74f430000600e55731b4c2ba0c7ee2aaf7710a11c3a2113c24624852b600f60006101000a81548173ffffffffffffffffffffffffffffffffffffffff021916908373ffffffffffffffffffffffffffffffffffffffff1602179055503480156200008757600080fd5b506040518060400160405280601081526020017f54686520536f66742042696420477579000000000000000000000000000000008152506040518060400160405280600881526020017f424944475559563200000000000000000000000000000000000000000000000081525081600090805190602001906200010c929190620007db565b50806001908051906020019062000125929190620007db565b505050620001486200013c620006e360201b60201c565b620006eb60201b60201c565b600160088190555062000160620006e360201b60201c565b73ffffffffffffffffffffffffffffffffffffffff1662000186620007b160201b60201c565b73ffffffffffffffffffffffffffffffffffffffff1614620001df576040517f08c379a0000000000000000000000000000000000000000000000000000000008152600401620001d69062000929565b60405180910390fd5b600b6040518060600160405280733b99e794378bd057f3ad7aea9206fb6c01f3ee6073ffffffffffffffffffffffffffffffffffffffff1681526020016040518060400160405280600681526020017f617274697374000000000000000000000000000000000000000000000000000081525081526020016011815250908060018154018082558091505060019003906000526020600020906003020160009091909190915060008201518160000160006101000a81548173ffffffffffffffffffffffffffffffffffffffff021916908373ffffffffffffffffffffffffffffffffffffffff1602179055506020820151816001019080519060200190620002ea929190620007db565b50604082015181600201555050600b604051806060016040528073575cbc1d88c266b18f1bb221c1a1a79a55a3d3be73ffffffffffffffffffffffffffffffffffffffff1681526020016040518060400160405280600981526020017f646576656c6f706572000000000000000000000000000000000000000000000081525081526020016011815250908060018154018082558091505060019003906000526020600020906003020160009091909190915060008201518160000160006101000a81548173ffffffffffffffffffffffffffffffffffffffff021916908373ffffffffffffffffffffffffffffffffffffffff160217905550602082015181600101908051906020019062000402929190620007db565b50604082015181600201555050600b604051806060016040528073bf7288346588897afdae38288fff58d2e27dd23573ffffffffffffffffffffffffffffffffffffffff1681526020016040518060400160405280600981526020017f646576656c6f706572000000000000000000000000000000000000000000000081525081526020016011815250908060018154018082558091505060019003906000526020600020906003020160009091909190915060008201518160000160006101000a81548173ffffffffffffffffffffffffffffffffffffffff021916908373ffffffffffffffffffffffffffffffffffffffff16021790555060208201518160010190805190602001906200051a929190620007db565b50604082015181600201555050600b6040518060600160405280600f60009054906101000a900473ffffffffffffffffffffffffffffffffffffffff1673ffffffffffffffffffffffffffffffffffffffff16636352211e61015a6040518263ffffffff1660e01b81526004016200059391906200090c565b60206040518083038186803b158015620005ac57600080fd5b505afa158015620005c1573d6000803e3d6000fd5b505050506040513d601f19601f82011682018060405250810190620005e79190620008a2565b73ffffffffffffffffffffffffffffffffffffffff1681526020016040518060400160405280600d81526020017f6f776e6572206f6620233334360000000000000000000000000000000000000081525081526020016031815250908060018154018082558091505060019003906000526020600020906003020160009091909190915060008201518160000160006101000a81548173ffffffffffffffffffffffffffffffffffffffff021916908373ffffffffffffffffffffffffffffffffffffffff1602179055506020820151816001019080519060200190620006d0929190620007db565b5060408201518160020155505062000a5b565b600033905090565b6000600760009054906101000a900473ffffffffffffffffffffffffffffffffffffffff16905081600760006101000a81548173ffffffffffffffffffffffffffffffffffffffff021916908373ffffffffffffffffffffffffffffffffffffffff1602179055508173ffffffffffffffffffffffffffffffffffffffff168173ffffffffffffffffffffffffffffffffffffffff167f8be0079c531659141344cd1fd0a4f28419497f9722a3daafe3b4186f6b6457e060405160405180910390a35050565b6000600760009054906101000a900473ffffffffffffffffffffffffffffffffffffffff16905090565b828054620007e990620009ae565b90600052602060002090601f0160209004810192826200080d576000855562000859565b82601f106200082857805160ff191683800117855562000859565b8280016001018555821562000859579182015b82811115620008585782518255916020019190600101906200083b565b5b5090506200086891906200086c565b5090565b5b80821115620008875760008160009055506001016200086d565b5090565b6000815190506200089c8162000a41565b92915050565b600060208284031215620008bb57620008ba62000a13565b5b6000620008cb848285016200088b565b91505092915050565b620008df816200099a565b82525050565b6000620008f46020836200094b565b9150620009018262000a18565b602082019050919050565b6000602082019050620009236000830184620008d4565b92915050565b600060208201905081810360008301526200094481620008e5565b9050919050565b600082825260208201905092915050565b6000620009698262000970565b9050919050565b600073ffffffffffffffffffffffffffffffffffffffff82169050919050565b6000819050919050565b6000620009a78262000990565b9050919050565b60006002820490506001821680620009c757607f821691505b60208210811415620009de57620009dd620009e4565b5b50919050565b7f4e487b7100000000000000000000000000000000000000000000000000000000600052602260045260246000fd5b600080fd5b7f4f776e61626c653a2063616c6c6572206973206e6f7420746865206f776e6572600082015250565b62000a4c816200095c565b811462000a5857600080fd5b50565b6171548062000a6b6000396000f3fe60806040526004361061012a5760003560e01c8063715018a6116100ab578063b88d4fde1161006f578063b88d4fde146103c2578063c87b56dd146103eb578063e985e9c514610428578063f2fde38b14610465578063fd12734c1461048e578063fd5b98d9146104b95761012a565b8063715018a6146103015780638da5cb5b1461031857806395d89b41146103435780639ec52ed71461036e578063a22cb465146103995761012a565b80633866d8a4116100f25780633866d8a41461022657806342842e0e1461024257806342966c681461026b5780636352211e1461028757806370a08231146102c45761012a565b806301ffc9a71461012f57806306fdde031461016c578063081812fc14610197578063095ea7b3146101d457806323b872dd146101fd575b600080fd5b34801561013b57600080fd5b5061015660048036038101906101519190612c70565b6104e4565b604051610163919061333f565b60405180910390f35b34801561017857600080fd5b506101816105c6565b60405161018e919061335a565b60405180910390f35b3480156101a357600080fd5b506101be60048036038101906101b99190612cca565b610658565b6040516101cb91906132d8565b60405180910390f35b3480156101e057600080fd5b506101fb60048036038101906101f69190612c30565b6106dd565b005b34801561020957600080fd5b50610224600480360381019061021f9190612a7b565b610753565b005b610240600480360381019061023b9190612b91565b6107cb565b005b34801561024e57600080fd5b5061026960048036038101906102649190612a7b565b6109ed565b005b61028560048036038101906102809190612cca565b610a75565b005b34801561029357600080fd5b506102ae60048036038101906102a99190612cca565b610b53565b6040516102bb91906132d8565b60405180910390f35b3480156102d057600080fd5b506102eb60048036038101906102e69190612a0e565b610c05565b6040516102f8919061365c565b60405180910390f35b34801561030d57600080fd5b50610316610cbd565b005b34801561032457600080fd5b5061032d610d45565b60405161033a91906132d8565b60405180910390f35b34801561034f57600080fd5b50610358610d6f565b604051610365919061335a565b60405180910390f35b34801561037a57600080fd5b50610383610e01565b604051610390919061365c565b60405180910390f35b3480156103a557600080fd5b506103c060048036038101906103bb9190612b51565b610e07565b005b3480156103ce57600080fd5b506103e960048036038101906103e49190612ace565b610f88565b005b3480156103f757600080fd5b50610412600480360381019061040d9190612cca565b611002565b60405161041f919061335a565b60405180910390f35b34801561043457600080fd5b5061044f600480360381019061044a9190612a3b565b611014565b60405161045c919061333f565b60405180910390f35b34801561047157600080fd5b5061048c60048036038101906104879190612a0e565b6110a8565b005b34801561049a57600080fd5b506104a36111a0565b6040516104b0919061365c565b60405180910390f35b3480156104c557600080fd5b506104ce6111a6565b6040516104db919061365c565b60405180910390f35b60007f80ac58cd000000000000000000000000000000000000000000000000000000007bffffffffffffffffffffffffffffffffffffffffffffffffffffffff1916827bffffffffffffffffffffffffffffffffffffffffffffffffffffffff191614806105af57507f5b5e139f000000000000000000000000000000000000000000000000000000007bffffffffffffffffffffffffffffffffffffffffffffffffffffffff1916827bffffffffffffffffffffffffffffffffffffffffffffffffffffffff1916145b806105bf57506105be826111ac565b5b9050919050565b6060600080546105d59061390c565b80601f01602080910402602001604051908101604052809291908181526020018280546106019061390c565b801561064e5780601f106106235761010080835404028352916020019161064e565b820191906000526020600020905b81548152906001019060200180831161063157829003601f168201915b5050505050905090565b600061066382611216565b6106a2576040517f08c379a00000000000000000000000000000000000000000000000000000000081526004016106999061355c565b60405180910390fd5b6004600083815260200190815260200160002060009054906101000a900473ffffffffffffffffffffffffffffffffffffffff169050919050565b60011515600a600083815260200190815260200160002060009054906101000a900460ff1615151415610745576040517f08c379a000000000000000000000000000000000000000000000000000000000815260040161073c906133dc565b60405180910390fd5b61074f8282611282565b5050565b60011515600a600083815260200190815260200160002060009054906101000a900460ff16151514156107bb576040517f08c379a00000000000000000000000000000000000000000000000000000000081526004016107b2906133dc565b60405180910390fd5b6107c683838361139a565b505050565b60026008541415610811576040517f08c379a00000000000000000000000000000000000000000000000000000000081526004016108089061363c565b60405180910390fd5b60026008819055506108216113fa565b73ffffffffffffffffffffffffffffffffffffffff1661083f610d45565b73ffffffffffffffffffffffffffffffffffffffff1614610895576040517f08c379a000000000000000000000000000000000000000000000000000000000815260040161088c9061357c565b60405180910390fd5b6000151581151514156108ec57600c543410156108e7576040517f08c379a00000000000000000000000000000000000000000000000000000000081526004016108de906134dc565b60405180910390fd5b610932565b600d54341015610931576040517f08c379a0000000000000000000000000000000000000000000000000000000008152600401610928906134dc565b60405180910390fd5b5b61093b34611402565b61094e846109496009611619565b611627565b6109a161095b6009611619565b61099c6040518060400160405280601081526020017f54686520536f6674204269642047757900000000000000000000000000000000815250868686611645565b6116f1565b80600a60006109b06009611619565b815260200190815260200160002060006101000a81548160ff0219169083151502179055506109df6009611765565b600160088190555050505050565b60011515600a600083815260200190815260200160002060009054906101000a900460ff1615151415610a55576040517f08c379a0000000000000000000000000000000000000000000000000000000008152600401610a4c906133dc565b60405180910390fd5b610a7083838360405180602001604052806000815250611784565b505050565b60026008541415610abb576040517f08c379a0000000000000000000000000000000000000000000000000000000008152600401610ab29061363c565b60405180910390fd5b600260088190555060011515600a600083815260200190815260200160002060009054906101000a900460ff1615151415610b3f57600e54341015610b35576040517f08c379a0000000000000000000000000000000000000000000000000000000008152600401610b2c906134fc565b60405180910390fd5b610b3e34611402565b5b610b48816117e6565b600160088190555050565b6000806002600084815260200190815260200160002060009054906101000a900473ffffffffffffffffffffffffffffffffffffffff169050600073ffffffffffffffffffffffffffffffffffffffff168173ffffffffffffffffffffffffffffffffffffffff161415610bfc576040517f08c379a0000000000000000000000000000000000000000000000000000000008152600401610bf39061349c565b60405180910390fd5b80915050919050565b60008073ffffffffffffffffffffffffffffffffffffffff168273ffffffffffffffffffffffffffffffffffffffff161415610c76576040517f08c379a0000000000000000000000000000000000000000000000000000000008152600401610c6d9061347c565b60405180910390fd5b600360008373ffffffffffffffffffffffffffffffffffffffff1673ffffffffffffffffffffffffffffffffffffffff168152602001908152602001600020549050919050565b610cc56113fa565b73ffffffffffffffffffffffffffffffffffffffff16610ce3610d45565b73ffffffffffffffffffffffffffffffffffffffff1614610d39576040517f08c379a0000000000000000000000000000000000000000000000000000000008152600401610d309061357c565b60405180910390fd5b610d436000611839565b565b6000600760009054906101000a900473ffffffffffffffffffffffffffffffffffffffff16905090565b606060018054610d7e9061390c565b80601f0160208091040260200160405190810160405280929190818152602001828054610daa9061390c565b8015610df75780601f10610dcc57610100808354040283529160200191610df7565b820191906000526020600020905b815481529060010190602001808311610dda57829003601f168201915b5050505050905090565b600c5481565b610e0f6113fa565b73ffffffffffffffffffffffffffffffffffffffff168273ffffffffffffffffffffffffffffffffffffffff161415610e7d576040517f08c379a0000000000000000000000000000000000000000000000000000000008152600401610e749061341c565b60405180910390fd5b8060056000610e8a6113fa565b73ffffffffffffffffffffffffffffffffffffffff1673ffffffffffffffffffffffffffffffffffffffff16815260200190815260200160002060008473ffffffffffffffffffffffffffffffffffffffff1673ffffffffffffffffffffffffffffffffffffffff16815260200190815260200160002060006101000a81548160ff0219169083151502179055508173ffffffffffffffffffffffffffffffffffffffff16610f376113fa565b73ffffffffffffffffffffffffffffffffffffffff167f17307eab39ab6107e8899845ad3d59bd9653f200f220920489ca2b5937696c3183604051610f7c919061333f565b60405180910390a35050565b60011515600a600084815260200190815260200160002060009054906101000a900460ff1615151415610ff0576040517f08c379a0000000000000000000000000000000000000000000000000000000008152600401610fe7906133dc565b60405180910390fd5b610ffc848484846118ff565b50505050565b606061100d8261195b565b9050919050565b6000600560008473ffffffffffffffffffffffffffffffffffffffff1673ffffffffffffffffffffffffffffffffffffffff16815260200190815260200160002060008373ffffffffffffffffffffffffffffffffffffffff1673ffffffffffffffffffffffffffffffffffffffff16815260200190815260200160002060009054906101000a900460ff16905092915050565b6110b06113fa565b73ffffffffffffffffffffffffffffffffffffffff166110ce610d45565b73ffffffffffffffffffffffffffffffffffffffff1614611124576040517f08c379a000000000000000000000000000000000000000000000000000000000815260040161111b9061357c565b60405180910390fd5b600073ffffffffffffffffffffffffffffffffffffffff168173ffffffffffffffffffffffffffffffffffffffff161415611194576040517f08c379a000000000000000000000000000000000000000000000000000000000815260040161118b9061339c565b60405180910390fd5b61119d81611839565b50565b600d5481565b600e5481565b60007f01ffc9a7000000000000000000000000000000000000000000000000000000007bffffffffffffffffffffffffffffffffffffffffffffffffffffffff1916827bffffffffffffffffffffffffffffffffffffffffffffffffffffffff1916149050919050565b60008073ffffffffffffffffffffffffffffffffffffffff166002600084815260200190815260200160002060009054906101000a900473ffffffffffffffffffffffffffffffffffffffff1673ffffffffffffffffffffffffffffffffffffffff1614159050919050565b600061128d82610b53565b90508073ffffffffffffffffffffffffffffffffffffffff168373ffffffffffffffffffffffffffffffffffffffff1614156112fe576040517f08c379a00000000000000000000000000000000000000000000000000000000081526004016112f5906135fc565b60405180910390fd5b8073ffffffffffffffffffffffffffffffffffffffff1661131d6113fa565b73ffffffffffffffffffffffffffffffffffffffff16148061134c575061134b816113466113fa565b611014565b5b61138b576040517f08c379a00000000000000000000000000000000000000000000000000000000081526004016113829061345c565b60405180910390fd5b6113958383611aad565b505050565b6113ab6113a56113fa565b82611b66565b6113ea576040517f08c379a00000000000000000000000000000000000000000000000000000000081526004016113e19061361c565b60405180910390fd5b6113f5838383611c44565b505050565b600033905090565b336000813b905060008163ffffffff1614611452576040517f08c379a0000000000000000000000000000000000000000000000000000000008152600401611449906135bc565b60405180910390fd5b60005b600b80549050811015611613576000600b828154811061147857611477613a76565b5b90600052602060002090600302016040518060600160405290816000820160009054906101000a900473ffffffffffffffffffffffffffffffffffffffff1673ffffffffffffffffffffffffffffffffffffffff1673ffffffffffffffffffffffffffffffffffffffff1681526020016001820180546114f79061390c565b80601f01602080910402602001604051908101604052809291908181526020018280546115239061390c565b80156115705780601f1061154557610100808354040283529160200191611570565b820191906000526020600020905b81548152906001019060200180831161155357829003601f168201915b5050505050815260200160028201548152505090506000816000015190508073ffffffffffffffffffffffffffffffffffffffff166108fc6115d260646115c486604001518b611ea090919063ffffffff16565b611eb690919063ffffffff16565b9081150290604051600060405180830381858888f193505050501580156115fd573d6000803e3d6000fd5b505050808061160b9061396f565b915050611455565b50505050565b600081600001549050919050565b611641828260405180602001604052806000815250611ecc565b5050565b6060806001151583151514156116755760405180608001604052806047815260200161425e604791399050611691565b6040518060600160405280603881526020016170e76038913990505b6116c78686836116a088611f27565b6040516020016116b39493929190613236565b604051602081830303815290604052611f6a565b6040516020016116d791906132ab565b604051602081830303815290604052915050949350505050565b6116fa82611216565b611739576040517f08c379a0000000000000000000000000000000000000000000000000000000008152600401611730906134bc565b60405180910390fd5b806006600084815260200190815260200160002090805190602001906117609291906127e2565b505050565b600181600001600082825461177a9190613741565b9250508190555050565b61179561178f6113fa565b83611b66565b6117d4576040517f08c379a00000000000000000000000000000000000000000000000000000000081526004016117cb9061361c565b60405180910390fd5b6117e0848484846118ff565b50505050565b6117ef816120ef565b600060066000838152602001908152602001600020805461180f9061390c565b905014611836576006600082815260200190815260200160002060006118359190612868565b5b50565b6000600760009054906101000a900473ffffffffffffffffffffffffffffffffffffffff16905081600760006101000a81548173ffffffffffffffffffffffffffffffffffffffff021916908373ffffffffffffffffffffffffffffffffffffffff1602179055508173ffffffffffffffffffffffffffffffffffffffff168173ffffffffffffffffffffffffffffffffffffffff167f8be0079c531659141344cd1fd0a4f28419497f9722a3daafe3b4186f6b6457e060405160405180910390a35050565b61190a848484611c44565b61191684848484612200565b611955576040517f08c379a000000000000000000000000000000000000000000000000000000000815260040161194c9061337c565b60405180910390fd5b50505050565b606061196682611216565b6119a5576040517f08c379a000000000000000000000000000000000000000000000000000000000815260040161199c9061353c565b60405180910390fd5b60006006600084815260200190815260200160002080546119c59061390c565b80601f01602080910402602001604051908101604052809291908181526020018280546119f19061390c565b8015611a3e5780601f10611a1357610100808354040283529160200191611a3e565b820191906000526020600020905b815481529060010190602001808311611a2157829003601f168201915b505050505090506000611a4f612397565b9050600081511415611a65578192505050611aa8565b600082511115611a9a578082604051602001611a829291906131e1565b60405160208183030381529060405292505050611aa8565b611aa3846123ae565b925050505b919050565b816004600083815260200190815260200160002060006101000a81548173ffffffffffffffffffffffffffffffffffffffff021916908373ffffffffffffffffffffffffffffffffffffffff160217905550808273ffffffffffffffffffffffffffffffffffffffff16611b2083610b53565b73ffffffffffffffffffffffffffffffffffffffff167f8c5be1e5ebec7d5bd14f71427d1e84f3dd0314c0f7b2291e5b200ac8c7c3b92560405160405180910390a45050565b6000611b7182611216565b611bb0576040517f08c379a0000000000000000000000000000000000000000000000000000000008152600401611ba79061343c565b60405180910390fd5b6000611bbb83610b53565b90508073ffffffffffffffffffffffffffffffffffffffff168473ffffffffffffffffffffffffffffffffffffffff161480611c2a57508373ffffffffffffffffffffffffffffffffffffffff16611c1284610658565b73ffffffffffffffffffffffffffffffffffffffff16145b80611c3b5750611c3a8185611014565b5b91505092915050565b8273ffffffffffffffffffffffffffffffffffffffff16611c6482610b53565b73ffffffffffffffffffffffffffffffffffffffff1614611cba576040517f08c379a0000000000000000000000000000000000000000000000000000000008152600401611cb19061359c565b60405180910390fd5b600073ffffffffffffffffffffffffffffffffffffffff168273ffffffffffffffffffffffffffffffffffffffff161415611d2a576040517f08c379a0000000000000000000000000000000000000000000000000000000008152600401611d21906133fc565b60405180910390fd5b611d35838383612455565b611d40600082611aad565b6001600360008573ffffffffffffffffffffffffffffffffffffffff1673ffffffffffffffffffffffffffffffffffffffff1681526020019081526020016000206000828254611d909190613822565b925050819055506001600360008473ffffffffffffffffffffffffffffffffffffffff1673ffffffffffffffffffffffffffffffffffffffff1681526020019081526020016000206000828254611de79190613741565b92505081905550816002600083815260200190815260200160002060006101000a81548173ffffffffffffffffffffffffffffffffffffffff021916908373ffffffffffffffffffffffffffffffffffffffff160217905550808273ffffffffffffffffffffffffffffffffffffffff168473ffffffffffffffffffffffffffffffffffffffff167fddf252ad1be2c89b69c2b068fc378daa952ba7f163c4a11628f55a4df523b3ef60405160405180910390a4505050565b60008183611eae91906137c8565b905092915050565b60008183611ec49190613797565b905092915050565b611ed6838361245a565b611ee36000848484612200565b611f22576040517f08c379a0000000000000000000000000000000000000000000000000000000008152600401611f199061337c565b60405180910390fd5b505050565b6060611f63611f34612628565b83611f3d61264b565b604051602001611f4f93929190613205565b604051602081830303815290604052611f6a565b9050919050565b6060600082511415611f8d576040518060200160405280600081525090506120ea565b60006040518060600160405280604081526020016170a76040913990506000600360028551611fbc9190613741565b611fc69190613797565b6004611fd291906137c8565b90506000602082611fe39190613741565b67ffffffffffffffff811115611ffc57611ffb613aa5565b5b6040519080825280601f01601f19166020018201604052801561202e5781602001600182028036833780820191505090505b509050818152600183018586518101602084015b818310156120a9576003830192508251603f8160121c1685015160f81b8252600182019150603f81600c1c1685015160f81b8252600182019150603f8160061c1685015160f81b8252600182019150603f811685015160f81b825260018201915050612042565b6003895106600181146120c357600281146120d3576120de565b613d3d60f01b60028303526120de565b603d60f81b60018303525b50505050508093505050505b919050565b60006120fa82610b53565b905061210881600084612455565b612113600083611aad565b6001600360008373ffffffffffffffffffffffffffffffffffffffff1673ffffffffffffffffffffffffffffffffffffffff16815260200190815260200160002060008282546121639190613822565b925050819055506002600083815260200190815260200160002060006101000a81549073ffffffffffffffffffffffffffffffffffffffff021916905581600073ffffffffffffffffffffffffffffffffffffffff168273ffffffffffffffffffffffffffffffffffffffff167fddf252ad1be2c89b69c2b068fc378daa952ba7f163c4a11628f55a4df523b3ef60405160405180910390a45050565b60006122218473ffffffffffffffffffffffffffffffffffffffff1661266e565b1561238a578373ffffffffffffffffffffffffffffffffffffffff1663150b7a0261224a6113fa565b8786866040518563ffffffff1660e01b815260040161226c94939291906132f3565b602060405180830381600087803b15801561228657600080fd5b505af19250505080156122b757506040513d601f19601f820116820180604052508101906122b49190612c9d565b60015b61233a573d80600081146122e7576040519150601f19603f3d011682016040523d82523d6000602084013e6122ec565b606091505b50600081511415612332576040517f08c379a00000000000000000000000000000000000000000000000000000000081526004016123299061337c565b60405180910390fd5b805181602001fd5b63150b7a0260e01b7bffffffffffffffffffffffffffffffffffffffffffffffffffffffff1916817bffffffffffffffffffffffffffffffffffffffffffffffffffffffff19161491505061238f565b600190505b949350505050565b606060405180602001604052806000815250905090565b60606123b982611216565b6123f8576040517f08c379a00000000000000000000000000000000000000000000000000000000081526004016123ef906135dc565b60405180910390fd5b6000612402612397565b90506000815111612422576040518060200160405280600081525061244d565b8061242c84612681565b60405160200161243d9291906131e1565b6040516020818303038152906040525b915050919050565b505050565b600073ffffffffffffffffffffffffffffffffffffffff168273ffffffffffffffffffffffffffffffffffffffff1614156124ca576040517f08c379a00000000000000000000000000000000000000000000000000000000081526004016124c19061351c565b60405180910390fd5b6124d381611216565b15612513576040517f08c379a000000000000000000000000000000000000000000000000000000000815260040161250a906133bc565b60405180910390fd5b61251f60008383612455565b6001600360008473ffffffffffffffffffffffffffffffffffffffff1673ffffffffffffffffffffffffffffffffffffffff168152602001908152602001600020600082825461256f9190613741565b92505081905550816002600083815260200190815260200160002060006101000a81548173ffffffffffffffffffffffffffffffffffffffff021916908373ffffffffffffffffffffffffffffffffffffffff160217905550808273ffffffffffffffffffffffffffffffffffffffff16600073ffffffffffffffffffffffffffffffffffffffff167fddf252ad1be2c89b69c2b068fc378daa952ba7f163c4a11628f55a4df523b3ef60405160405180910390a45050565b6060604051806105a0016040528061057c8152602001616b2b61057c9139905090565b6060604051806128c0016040528061288681526020016142a56128869139905090565b600080823b905060008111915050919050565b606060008214156126c9576040518060400160405280600181526020017f300000000000000000000000000000000000000000000000000000000000000081525090506127dd565b600082905060005b600082146126fb5780806126e49061396f565b915050600a826126f49190613797565b91506126d1565b60008167ffffffffffffffff81111561271757612716613aa5565b5b6040519080825280601f01601f1916602001820160405280156127495781602001600182028036833780820191505090505b5090505b600085146127d6576001826127629190613822565b9150600a8561277191906139b8565b603061277d9190613741565b60f81b81838151811061279357612792613a76565b5b60200101907effffffffffffffffffffffffffffffffffffffffffffffffffffffffffffff1916908160001a905350600a856127cf9190613797565b945061274d565b8093505050505b919050565b8280546127ee9061390c565b90600052602060002090601f0160209004810192826128105760008555612857565b82601f1061282957805160ff1916838001178555612857565b82800160010185558215612857579182015b8281111561285657825182559160200191906001019061283b565b5b50905061286491906128a8565b5090565b5080546128749061390c565b6000825580601f1061288657506128a5565b601f0160209004906000526020600020908101906128a491906128a8565b5b50565b5b808211156128c15760008160009055506001016128a9565b5090565b60006128d86128d38461369c565b613677565b9050828152602081018484840111156128f4576128f3613ad9565b5b6128ff8482856138ca565b509392505050565b600061291a612915846136cd565b613677565b90508281526020810184848401111561293657612935613ad9565b5b6129418482856138ca565b509392505050565b60008135905061295881614201565b92915050565b60008135905061296d81614218565b92915050565b6000813590506129828161422f565b92915050565b6000815190506129978161422f565b92915050565b600082601f8301126129b2576129b1613ad4565b5b81356129c28482602086016128c5565b91505092915050565b600082601f8301126129e0576129df613ad4565b5b81356129f0848260208601612907565b91505092915050565b600081359050612a0881614246565b92915050565b600060208284031215612a2457612a23613ae3565b5b6000612a3284828501612949565b91505092915050565b60008060408385031215612a5257612a51613ae3565b5b6000612a6085828601612949565b9250506020612a7185828601612949565b9150509250929050565b600080600060608486031215612a9457612a93613ae3565b5b6000612aa286828701612949565b9350506020612ab386828701612949565b9250506040612ac4868287016129f9565b9150509250925092565b60008060008060808587031215612ae857612ae7613ae3565b5b6000612af687828801612949565b9450506020612b0787828801612949565b9350506040612b18878288016129f9565b925050606085013567ffffffffffffffff811115612b3957612b38613ade565b5b612b458782880161299d565b91505092959194509250565b60008060408385031215612b6857612b67613ae3565b5b6000612b7685828601612949565b9250506020612b878582860161295e565b9150509250929050565b60008060008060808587031215612bab57612baa613ae3565b5b6000612bb987828801612949565b945050602085013567ffffffffffffffff811115612bda57612bd9613ade565b5b612be6878288016129cb565b935050604085013567ffffffffffffffff811115612c0757612c06613ade565b5b612c13878288016129cb565b9250506060612c248782880161295e565b91505092959194509250565b60008060408385031215612c4757612c46613ae3565b5b6000612c5585828601612949565b9250506020612c66858286016129f9565b9150509250929050565b600060208284031215612c8657612c85613ae3565b5b6000612c9484828501612973565b91505092915050565b600060208284031215612cb357612cb2613ae3565b5b6000612cc184828501612988565b91505092915050565b600060208284031215612ce057612cdf613ae3565b5b6000612cee848285016129f9565b91505092915050565b612d0081613856565b82525050565b612d0f81613868565b82525050565b6000612d20826136fe565b612d2a8185613714565b9350612d3a8185602086016138d9565b612d4381613ae8565b840191505092915050565b6000612d5982613709565b612d638185613725565b9350612d738185602086016138d9565b612d7c81613ae8565b840191505092915050565b6000612d9282613709565b612d9c8185613736565b9350612dac8185602086016138d9565b80840191505092915050565b6000612dc5603283613725565b9150612dd082613af9565b604082019050919050565b6000612de8602683613725565b9150612df382613b48565b604082019050919050565b6000612e0b600283613736565b9150612e1682613b97565b600282019050919050565b6000612e2e601c83613725565b9150612e3982613bc0565b602082019050919050565b6000612e51600883613725565b9150612e5c82613be9565b602082019050919050565b6000612e74602483613725565b9150612e7f82613c12565b604082019050919050565b6000612e97601983613725565b9150612ea282613c61565b602082019050919050565b6000612eba602c83613725565b9150612ec582613c8a565b604082019050919050565b6000612edd601083613736565b9150612ee882613cd9565b601082019050919050565b6000612f00603883613725565b9150612f0b82613d02565b604082019050919050565b6000612f23602a83613725565b9150612f2e82613d51565b604082019050919050565b6000612f46602983613725565b9150612f5182613da0565b604082019050919050565b6000612f69602e83613725565b9150612f7482613def565b604082019050919050565b6000612f8c602483613736565b9150612f9782613e3e565b602482019050919050565b6000612faf601183613725565b9150612fba82613e8d565b602082019050919050565b6000612fd2600283613736565b9150612fdd82613eb6565b600282019050919050565b6000612ff5601283613725565b915061300082613edf565b602082019050919050565b6000613018602083613725565b915061302382613f08565b602082019050919050565b600061303b603183613725565b915061304682613f31565b604082019050919050565b600061305e602c83613725565b915061306982613f80565b604082019050919050565b6000613081602083613725565b915061308c82613fcf565b602082019050919050565b60006130a4602983613725565b91506130af82613ff8565b604082019050919050565b60006130c7601983613725565b91506130d282614047565b602082019050919050565b60006130ea602f83613725565b91506130f582614070565b604082019050919050565b600061310d600a83613736565b9150613118826140bf565b600a82019050919050565b6000613130600183613736565b915061313b826140e8565b600182019050919050565b6000613153602183613725565b915061315e82614111565b604082019050919050565b6000613176601d83613736565b915061318182614160565b601d82019050919050565b6000613199603183613725565b91506131a482614189565b604082019050919050565b60006131bc601f83613725565b91506131c7826141d8565b602082019050919050565b6131db816138c0565b82525050565b60006131ed8285612d87565b91506131f98284612d87565b91508190509392505050565b60006132118286612d87565b915061321d8285612d87565b91506132298284612d87565b9150819050949350505050565b600061324182613100565b915061324d8287612d87565b915061325882612dfe565b915061326382612ed0565b915061326f8286612d87565b915061327b8285612d87565b915061328682612f7f565b91506132928284612d87565b915061329d82612fc5565b915081905095945050505050565b60006132b682613169565b91506132c28284612d87565b91506132cd82613123565b915081905092915050565b60006020820190506132ed6000830184612cf7565b92915050565b60006080820190506133086000830187612cf7565b6133156020830186612cf7565b61332260408301856131d2565b81810360608301526133348184612d15565b905095945050505050565b60006020820190506133546000830184612d06565b92915050565b600060208201905081810360008301526133748184612d4e565b905092915050565b6000602082019050818103600083015261339581612db8565b9050919050565b600060208201905081810360008301526133b581612ddb565b9050919050565b600060208201905081810360008301526133d581612e21565b9050919050565b600060208201905081810360008301526133f581612e44565b9050919050565b6000602082019050818103600083015261341581612e67565b9050919050565b6000602082019050818103600083015261343581612e8a565b9050919050565b6000602082019050818103600083015261345581612ead565b9050919050565b6000602082019050818103600083015261347581612ef3565b9050919050565b6000602082019050818103600083015261349581612f16565b9050919050565b600060208201905081810360008301526134b581612f39565b9050919050565b600060208201905081810360008301526134d581612f5c565b9050919050565b600060208201905081810360008301526134f581612fa2565b9050919050565b6000602082019050818103600083015261351581612fe8565b9050919050565b600060208201905081810360008301526135358161300b565b9050919050565b600060208201905081810360008301526135558161302e565b9050919050565b6000602082019050818103600083015261357581613051565b9050919050565b6000602082019050818103600083015261359581613074565b9050919050565b600060208201905081810360008301526135b581613097565b9050919050565b600060208201905081810360008301526135d5816130ba565b9050919050565b600060208201905081810360008301526135f5816130dd565b9050919050565b6000602082019050818103600083015261361581613146565b9050919050565b600060208201905081810360008301526136358161318c565b9050919050565b60006020820190508181036000830152613655816131af565b9050919050565b600060208201905061367160008301846131d2565b92915050565b6000613681613692565b905061368d828261393e565b919050565b6000604051905090565b600067ffffffffffffffff8211156136b7576136b6613aa5565b5b6136c082613ae8565b9050602081019050919050565b600067ffffffffffffffff8211156136e8576136e7613aa5565b5b6136f182613ae8565b9050602081019050919050565b600081519050919050565b600081519050919050565b600082825260208201905092915050565b600082825260208201905092915050565b600081905092915050565b600061374c826138c0565b9150613757836138c0565b9250827fffffffffffffffffffffffffffffffffffffffffffffffffffffffffffffffff0382111561378c5761378b6139e9565b5b828201905092915050565b60006137a2826138c0565b91506137ad836138c0565b9250826137bd576137bc613a18565b5b828204905092915050565b60006137d3826138c0565b91506137de836138c0565b9250817fffffffffffffffffffffffffffffffffffffffffffffffffffffffffffffffff0483118215151615613817576138166139e9565b5b828202905092915050565b600061382d826138c0565b9150613838836138c0565b92508282101561384b5761384a6139e9565b5b828203905092915050565b6000613861826138a0565b9050919050565b60008115159050919050565b60007fffffffff0000000000000000000000000000000000000000000000000000000082169050919050565b600073ffffffffffffffffffffffffffffffffffffffff82169050919050565b6000819050919050565b82818337600083830152505050565b60005b838110156138f75780820151818401526020810190506138dc565b83811115613906576000848401525b50505050565b6000600282049050600182168061392457607f821691505b6020821081141561393857613937613a47565b5b50919050565b61394782613ae8565b810181811067ffffffffffffffff8211171561396657613965613aa5565b5b80604052505050565b600061397a826138c0565b91507fffffffffffffffffffffffffffffffffffffffffffffffffffffffffffffffff8214156139ad576139ac6139e9565b5b600182019050919050565b60006139c3826138c0565b91506139ce836138c0565b9250826139de576139dd613a18565b5b828206905092915050565b7f4e487b7100000000000000000000000000000000000000000000000000000000600052601160045260246000fd5b7f4e487b7100000000000000000000000000000000000000000000000000000000600052601260045260246000fd5b7f4e487b7100000000000000000000000000000000000000000000000000000000600052602260045260246000fd5b7f4e487b7100000000000000000000000000000000000000000000000000000000600052603260045260246000fd5b7f4e487b7100000000000000000000000000000000000000000000000000000000600052604160045260246000fd5b600080fd5b600080fd5b600080fd5b600080fd5b6000601f19601f8301169050919050565b7f4552433732313a207472616e7366657220746f206e6f6e20455243373231526560008201527f63656976657220696d706c656d656e7465720000000000000000000000000000602082015250565b7f4f776e61626c653a206e6577206f776e657220697320746865207a65726f206160008201527f6464726573730000000000000000000000000000000000000000000000000000602082015250565b7f222c000000000000000000000000000000000000000000000000000000000000600082015250565b7f4552433732313a20746f6b656e20616c7265616479206d696e74656400000000600082015250565b7f64697361626c6564000000000000000000000000000000000000000000000000600082015250565b7f4552433732313a207472616e7366657220746f20746865207a65726f2061646460008201527f7265737300000000000000000000000000000000000000000000000000000000602082015250565b7f4552433732313a20617070726f766520746f2063616c6c657200000000000000600082015250565b7f4552433732313a206f70657261746f7220717565727920666f72206e6f6e657860008201527f697374656e7420746f6b656e0000000000000000000000000000000000000000602082015250565b7f226465736372697074696f6e223a202200000000000000000000000000000000600082015250565b7f4552433732313a20617070726f76652063616c6c6572206973206e6f74206f7760008201527f6e6572206e6f7220617070726f76656420666f7220616c6c0000000000000000602082015250565b7f4552433732313a2062616c616e636520717565727920666f7220746865207a6560008201527f726f206164647265737300000000000000000000000000000000000000000000602082015250565b7f4552433732313a206f776e657220717565727920666f72206e6f6e657869737460008201527f656e7420746f6b656e0000000000000000000000000000000000000000000000602082015250565b7f45524337323155524953746f726167653a2055524920736574206f66206e6f6e60008201527f6578697374656e7420746f6b656e000000000000000000000000000000000000602082015250565b7f22696d616765223a2022646174613a696d6167652f7376672b786d6c3b62617360008201527f6536342c00000000000000000000000000000000000000000000000000000000602082015250565b7f6e6f7420656e6f75676820657468657273000000000000000000000000000000600082015250565b7f227d000000000000000000000000000000000000000000000000000000000000600082015250565b7f6e6f7420656e6f75676820657468657273200000000000000000000000000000600082015250565b7f4552433732313a206d696e7420746f20746865207a65726f2061646472657373600082015250565b7f45524337323155524953746f726167653a2055524920717565727920666f722060008201527f6e6f6e6578697374656e7420746f6b656e000000000000000000000000000000602082015250565b7f4552433732313a20617070726f76656420717565727920666f72206e6f6e657860008201527f697374656e7420746f6b656e0000000000000000000000000000000000000000602082015250565b7f4f776e61626c653a2063616c6c6572206973206e6f7420746865206f776e6572600082015250565b7f4552433732313a207472616e73666572206f6620746f6b656e2074686174206960008201527f73206e6f74206f776e0000000000000000000000000000000000000000000000602082015250565b7f636f6e74726163747320617265206e6f7420616c6c6f77656400000000000000600082015250565b7f4552433732314d657461646174613a2055524920717565727920666f72206e6f60008201527f6e6578697374656e7420746f6b656e0000000000000000000000000000000000602082015250565b7f7b226e616d65223a202200000000000000000000000000000000000000000000600082015250565b7f2300000000000000000000000000000000000000000000000000000000000000600082015250565b7f4552433732313a20617070726f76616c20746f2063757272656e74206f776e6560008201527f7200000000000000000000000000000000000000000000000000000000000000602082015250565b7f646174613a6170706c69636174696f6e2f6a736f6e3b6261736536342c000000600082015250565b7f4552433732313a207472616e736665722063616c6c6572206973206e6f74206f60008201527f776e6572206e6f7220617070726f766564000000000000000000000000000000602082015250565b7f5265656e7472616e637947756172643a207265656e7472616e742063616c6c00600082015250565b61420a81613856565b811461421557600080fd5b50565b61422181613868565b811461422c57600080fd5b50565b61423881613874565b811461424357600080fd5b50565b61424f816138c0565b811461425a57600080fd5b5056fe207c20436c69636b20746f206275726e3a2068747470733a2f2f796f75726269647375782e7774662f207c204f726967696e616c20426c69746d61702049443a2023333436222c3c2f746578743e3c746578742066696c6c3d27236666662720783d2731342720793d273236302720666f6e742d73697a653d2731322720636c6173733d27422043273e2e2e2e796f752068617665206265656e20766973697465642062793c2f746578743e3c746578742066696c6c3d27236666662720783d2731342720793d273239302720666f6e742d73697a653d2731322720636c6173733d27422043273e5468652047757920536f66742c204b696e67206f66206375636b733c2f746578743e3c64656673203e3c7374796c653e40666f6e742d666163657b666f6e742d66616d696c793a2770726573735f73746172745f3270726567756c6172273b7372633a75726c28646174613a6170706c69636174696f6e2f666f6e742d776f6666323b636861727365743d7574662d383b6261736536342c643039474d674142414141414142314141424941414141415957514141427a59414145414141414141414141414141414141414141414141414141414141414150305a4756453063476834624d42794353415a67414951534342494a68475552434171426e4679426756634c67695141415459434a414f455241516742596c5342344e3644486b62664645463439674b7348454135736d374c364f695a6c464f2f62502f62306d5034636733704c70444b4b74415170424157724b4a4e6f6b69636b4f6f624f36754773696b777a4e374e4971513466493176503731446d627866626672707a736a6d54535a637258477750653833506159357a4f415957646732386966354f54316e334a7137342f495245456e33584555746f4a734f30514b537955457438747732764d73343432415477582f59357350613941614d5a4f61654c4d6f506a477079324c2f4667444c6368555138454451746b7737766e5a6d2f794f6f5671356e3334523368595466706e77555246672b6a66324d524767516b6b4a6a33416d4c7767596875617335633557563154745668506779534d654a55742f2f2f6544314e35656c4a6465317430672b58366c70355a4e6f526b596d6942774b49425777654d704b56316f784650364558556e66706d49584651522b4662435437767370342b347670617a42677235336971316777717930636857334e524b67624f5a62377841382f2f39564c647637454353415336327432526a706c49704b77536c5836397164693472386a2f77672f6764454351516c6b5a776f615950437845324a414b5135494b584e715851495154734f4d5a62624e5674554c6a726e666c3236377233705675734a596b4773686f3763443974762b32383534496a48686466355a44485350445a69784a537964763437585962547a656c324d6147456f416e612b754c2f34594f502f4e70386854493954597278377a6f414175433962653843674863762b6638472b4f7871746745425049424d41455049645267796741454934474b6f78445a39493950775053336275526e5a5a414375594d4d476f472f625a2b4e776e68615963483249362b513046326c795a77722b535032576a7973326255586b4b56697845626d76614f566d6341414241454b41373867684a49384b594f5a705643634e57622f727142687676772b4a424e4a6f434e6548443241793566616b683967706d51696d334764506871757057704f626649546e5a3472305975387449682f555739655a2b765a795078585845636931546e344e634d65327a756a4753763441514e472f4b4e69625933552f5450626965644c3578645342772f6b48343936767a7637796a77424f416d69645237674c326a4d6165634b66547a476163624a73674e646839386b55476d303945777672394772364f483136354f49526e73766e38514a657a4b74344b313843582f65436f6f7453614876785635525350623737347543445a2f4f387353312f73344835666f554a375777745449317243764b4861424f74703357306d6c62514170716b79692f2b58327836336753475055414e6b4934314953623156516e6b716d6f2f6d764c6e552f346c2f5a2f415749466557465263556c70576e6a376a526b566c5658564e6256313951324e5463307472573374485a3163696d65727536653372487867634768345a485273334a79616e706d646d357978372f6f4b4669785976576270734f6577785636374357574444326d7333726f46392b31694e3839647450726343542b2b6a78303664506e34434148444e2b5173416350494d374e573362414f7764644d624f467051662b554550557051774241494434735230784a447532304276537462714847727732372b30512f5a2f46314234637273436b45472f3168343468574347634f5456713975787971455a4b7a4c35694a68576a475273437545624e7933545579503762632b32796337656d657664656d366e637642744643695a34692b335861352b64577a4b3452696542664f72784371385541426e5455747763387558426756734375455a6a785165446d634f4e526868494b3870577065634272385541732f394d76375a484d6846513371584d6a4651774b6d6c56365658736256355a756a735a6764545a2b5a6b3978613443493248346747334d7456434c664233333655756d662b4d617145466c396f63643676397931627a79322b63766e3941714b38555374366d7165506b4a37573037505732314c364c3534524354746a527a6379316170753562373252646d32342f337334316955763538656e7254792f594e63594961576a743079377a66306b31724c58312f6e317642554e43624974744a434c6837554c356578506d6a564d7330395953756c4372774343716e677436665152434756337452313362633043644864477a5a34756c4a6e6e746e30304d707958684d6332753352353550664d6d49386841516c55696b61666a774142577478597a526a7157306d4c583035463942545551336161334f52434c643745427a4c46616b4869524f2f71754172524d367176446a7444454d6b327270412f39646451515a434d77494131774e414a77422b414d635075424d41414968412b66667670476254643033694a714e644772595032544b556f4c4b686c54412b79356f7a6172593770336e5a4a504436576568595a6b6e65575168336c33487276427672726955326d3137496b454453652f324f6b34674b305537374c6977722f3570666c5334766436316b4437327375752b3952436f345773716c716e66553934573737563756586c75724c7265712b767a4f64316461794375745a613936652f7659623348453548427955744a6c394473364337334137654b4c55766e4f755a653639426f39396b6956764c33546265565a4d655a4e33394a77564d4f4b4c713357522f6746487032655a6378503176517a426e7a4c555a52536f686964793269694a3244414b476a5a4159372b352f6a6c4741633665757559495372452b6c71672b4d3551663349665a66746b4d2b724e2f766b77534c454b5a52593654624c66675764513664774252686f4359446f516f47335771515739376d3878596c704a47626149427870687257524872576933595a777a6a436d796373487247593579554a7563583157326559564d7550425a30466a58556b7663787342582f5876744e5967326a767142597267364135447056536a6f735551367a4d2b54624d41594d4c696a312b2f4a706b4b694c716d534549474f65726953383666676a4d487a637371395a362b777157494b334d714f307948634169397667337479526c6e53346f4c54364b79616d773539364d57476a763461564d435a6e4648624b77367556357a6c37787a3069384b44486638732f547a78754a2b4348476e764c77736d6e4251656671336a4d465156576f746a554e6a5a75584846415a773249665336547a4c49784f6f35614354623230376e546a4a5955534846434e576b78624f735544557a65714f69585267364b433675714169745a617a354c393455356332626e62544253676e486f4341496e6a6e346856687831504d6252426b533036575841794e68435878474c74735a3834657950354d626f382f5155633573494553545258496a6230724b5774556f6d476a6d724673355751706d5670765a7956664d355661534964336a3559734c7042505354525753393568586b45446a4c6a6d39696b416e50374f64524b4d7a44642f72325a6a4b6259336752496e4b6c49444c5561305a43516733326431437a76636142786b556c4a513170784e416661476f536c504374596d744a6c6d576376647a6272792b4c346b47734b7a79483231546a4f456f362f714638654467526478775a556977647858736e45476c6f327869794d785a534f487843527648644334626e62425a2f2f55376e544c566f394b746550556d44444a483456596f41534a58306b6630656d43495a4f6f687550724d6a4f5977554558753532714951785a4f354a534b414169765467797453336e5736705751527a32346b442b4c49655a4f4a6e596d676f5072397655544279416d72745736566a30417465724861527a424c65706f616566653534594a43616567646e67307134446d37464841736d61546e6f52517355695a534735437a4443364257726b53484d596b556d58342f385a3833436472367759374e4f74396a61476e505773772f4c6a7732473634504148614d585254457a45716d5531364e4141735864655933685a6f6a726b475668474b2b646866696f435470552f554a324a323264736873374a66307158666d4841394f7564734a5636476763782b4764423255593845564665365a69744e754a576b647347727968666c4d366b75597278746f2b5a723956564b45634c6a2b76694d6c455174534e585739394f71336a4d47624d6e534d6d6c33634c4d5335676c484837655374636738396b32434d2f566277674c56486d68747969576435456f6d674776526356754c5931474a43497a46536a584c4951664e44477273704b4b4670574c7a416d3342386f4e702b302b3659366d2f386f724750514e4641426f47594f7a4144524d436736345a5165393348455075583267584c764c514f336347532b4237785541766748314c315746524e6c782f354853794130616938326e484864336a72336f72555047794352564e36476c4f67735042657655622b7964386b66706b4772326a634634633673316a382b33575576532b517448766b3765555456596c643069357858715a4675334f416a33326a7670476b4b577a65305852526948796e636a474e717371342f39376c61554571383557323335655079314643695559564c7a524b53774e774c58357853566e4878495942746f62456f34384843786866336f7a6f50474a484d733371585a53716349444f7936456a6137733138416a6d744e7936317551695946533273547337734664556b6d617536327074394e7a4c796b6f6e525953787933744f46717270566e755a66646755756634514f426158395346524974764175656259733772592b6837704852322f516550327a637066474238636d424656507163547a655877416e32453065726e36355670314b4e756e435172392f37674546554557724e3136775079796771527249416935334c724c3665312b745631684939304e4e66437a333464493374686c304c525052434d3262354a5a31326d53527a65456969656e684872434c534c722f7a776b473949336d5a43485174326852754848494a3955544a4159702f426d77384b314f6e6d58595432726949706a394c4f4774786d517a6c57564e74362b7947446d67796832554169534b77636e3674756e554768733365464638564e4c4c5739684d754c766d52315534584d66436839626b4631357a57336f394a5075567870624f66726a3172665639377443493946422b4c6844652b7947526e582b37366a7231794a6366416666476579366d6e7572376d774e6f59506f734634424c325a333834306f647174317946576a5342594e65546569556c2b3846414572654e715a78707a374975434d4c523076494f6c4b51617a70744e4942763070532f6d30792b4854792b532b72664e375462576a2f5273756d31305976475865586457345a4c6b7661395156566b2b66556543465374642f686a58507a586176397a6451484c4d514d4d64566c4d535038336c2b4e765644435277792b554446356754365275343031794c33642f4b63482f77716f42586b6f46504a486a7a392b4343624a766a6961364635514f6e63474f7748383446556a356968722f5377637668564d304f7478434f35366e306b4d747432366b35394b446c4f7557483951496f513833346652554247326e5833767646387270664e76312f3852755870444b4a426449662b3932484c7449685846775237733071586659436a525a643950634442612f4c58554938614144425a6f4d7269447969437442686863746f6767563037314c5965572b494831314f706b5852633563483852557356327331566646594d4568634e337268553837436a696a343430473376647434675474384a4442732f35566f4e41334b4354384a4472775334652f305149676474447138426c66766c774f7251694c5342335657704778596f76334c756f372b4f6454504b7772586e4431763071385754397777772f366a4a2f577034742f712f2f4d572b7269347347394e32477263492f6b67577a75346c6f6c347a6d76516c35334961347737465247583334476a364f2b564d36452b746b6a6767666846752b6e4b6c53382f756c637a44457645574c372b62536b387a466a352b4e616978756265613179616365454c52336172334b765a4d6f6534444a4965764a31714c43444b4e5a74446430642b6738516e7054362b762b423645622f79354d496c4c585554385358786e6332626a7774645330734332376b527979584e2b78454867584e4c7253754c4338796c4267666d6b7149386878756d705364436c495858515633563979453170324f42674e707a6c507058774d754e787a43356c68615637526d4f394c5332453564796537684b4b634c72546d4e666844506b4f76706d424758743757577257304c754e4279716a74504748735a73385164436273317964495967324a466152694d3562446343546450446f663541632b76345a384931586d454c4c6a734f6c50776b2b4e5a62417a48617068422f4361534c324568416c564c72714e436e75716f6b63744e58726d372b74756d6c4d444b6a77694232614758662b4c66652b474b515434676f776832593951536c46336259732b3045774979336b62734d365231724942416142474973745851714674724d69504c554e4d4c6d526261475a4b786f362f526159732f4c517568646e664246534a73542b5a7a4b4e324f6f394c544e32586c53386556667a3474596f555378616554485a456e39745042785257717a314a3431716c6e6d6b6169434748714d706849775251516c587045794e6f4975656c4f565570674c4e6e435668355450422f7a346a4874666a367078496e414b3969794d6938324259637765674b533173576b6b6578324a63596e4a54473530587036365a536171735678514e4b554b6d5a6d673741676f56547a764a4f346e6875786b425a4b6b5374537839424f6552326e55632b4769554c6f53357a5a6f51504974414959462b496c6c7272624a4246474a484235716d6f374631634631494e564c7179686a43323243374d623364446f396c4354417159783669474473614e38314b356b4f4c4751534863664c34524b4b6a6c72415163444e76497945442b586b77786e5144386b456c6b494b534159366a6f7538377a5356714f34554c49736679415a3442796f574d6b447852784c56325a376d4c6f314f4c4d4c653343655a6c5257574d6d616349643251364a373248734431574e78356e2b51706e6e5a76534a782b6247346e59474976527231677a73466a4a6e46444b61544841486358426646724c31326339735238677044306f6e7a4e4d347356395a6b67773532315a553352782b4944525a7a4c44554b793572736751524e72565670764f73746f56795a78442b41454c436b344465504a58455679326946775a6a757344516d706d467834415252625479587035424c71617456753533614967515a4e4141367539756c6b4c615a746c2b64396251746a4b45427230624346633952775366706c565750626449794f524e726f5751302b774b6f39334d784f53455a3244345756323257384453446a4d655a31776a7435566d4d355a6871775543586d4e616e6d6944474d4534485a456e7634634555734e49794f35574f6770387273466469484c2b525a5a436b4171525152446f674e684e4c6b527635584e4570774b43745a7a6749567564635458614a4957436d4b53443161644b6e71573365646f736d6c3342776c5375435553794a706b6d5a6d574e7152696b6c32794d336b63367a4b7839724641514749494c737052714e6f70577961636555515932715144485a4867674441744d746e6e4c2b4643414530496979373165724243316e694a424c6a4d61784957584e53713671464c5454574167687477587a4544756869384c7359766231467342735255412f686b6d6938425442555147436e417277474a49696a364f4c6362705759655a7731474255483536577973354175654934484c46497a6a707a75754969494f345445667446365a32305165384175534250636c7747617a684833304a32594b4c454a394d6774424536393574776d33712f79547967646d474858493935306d6d477775414668396353764e67517335423254737173535645344c476a424e30522f38465a7349666948496250426a4b586c593235774d4758664b454579786f645538466e5670307842692f35676d3069334c43656277425278622f476c64705232495162704858455438726a6158794b5372555936732f4c5a533653784d38644f716b36787a724c755073697663423075347a7a4f632b5456617a6a6a324856654c4f6f7132795237665a2b6d6e47415a54413251305145706251596c44567058465863415951357777585746433971696f4457792f35435762566b61782b6664454b6d716571444841364e385233624c715730746c4e77774149736233676b41486a426b5530446b35614d536f574558425a7464733577673078526862676d6d4351564c4e355549384f6f39326b7a656a6e5a695067586e42424479774343556d516774546f2f7a3655364a6e755277464a5a75777356564b58744f4e527a6a4e302b556b4b78324f545a4e6933774a5a51314465316e72557864786a3031546f376b4f58306a4932372f3645753553795745434f5570646e584531532f706c6e4f2b2f68412b6747446f6f466a6e6b6f414c4b47423655514b684c794a4149514e4d5a3349304a6e6439594d574b55726f426b5241364f4c61706e6e576a4e686d35714152314654742f6c416b584445714153414b77634a492f4b684857367a75586972753430624d3876486f7a7a416e6b5345727143414d6e34544e324a436b656b4f74482b76364f5a6a43457933455247426d6f71597658742f544466534e41326c3856357a6f4b4d556158713932334e6f4d6137374c49757a73636a54494b4948764574525072396b7464697341365755546f494d6d754f563536714669762b3148514a4b31732f37586c61705a4f6471723671506470566e552b5361577049632f57775068364f4b793371696d487a6268436453706b7232697a466b6f4939766c6d61796d317274633073464279573636455865734c4c4a455677703141383655414f397431586c3575516141593955394e3859734c774d75364d7970336a6f53545454736b4e5a4d6635385533644a4766682b5033495743385639732f2f367a5a7865746a6f3063743841477362504334375742424553476a4a346d50594d324675416d64674e4f4170654467582b623249733561476f637041614e34497a445461554b7a554f4836347a4170346f524b59692f6b4453464a672f7873385935434a323079415a4f346749755752533833633141784a4843587a4d412b415330596c645671766e4a5539694d596136633478785635444c664a51695669484f364579516f65516b372f7364426644786c4f77757472656c63743038774334764c744c6f652f754c76363948316b6353375a4e7874545372586759304250436c6b7154346444516476476f696f6447796b7a6b6c542b55414d4e66437436386c6b334552467632314541637049526977484164546a43385a4946727a35774c626d615039423769734b785551346b5a65494744683330714a305665503449684b7645465a5a64786a533457536775434245366f44316e2b79594f664447574168653943616e4d46373758584154764e715378766979345a3243524e5335576c7770494a6b646b585054754a78504b3936553254426144586b6c704733336b65524366354455396d455455474c32654d2b772f322b6b54636c484b614732714d572f4165476d6d6b2f62507342414e70576c31416751684c413737776c4d334e57724769696b4f72324e30696d6d357442567863597263314c49694134384f4b4f58743157475a41774b782f5161775177304c6567747a392b72454b4a3747746d724849644b614f7169485558455236347a54434c494a4c4157374875564431424e577838696631337550435750754d523170576847664f4a32357841673149637a796b4556346453714a333642694f6961627078706a3944525833394e5a76794945525277314934787652373963636d68346b36734663536a69364e30464b423366453475436b6669676f433057554e4e74783077486e414f383961523471436d32776f312f4166725153414c3078706256424e6245504b5971364770466c645966747545335471596e3259577367494d563158306b4f6131305763715550677057794b39396c33624653504c4537674e47716e7a49417a774332674d7146594b4165424454646751614470536638612b342b3574313167486b4d375a49344c5777457031466879664e50546e456a41624b584878676a7337496d4f706945353649795a32595857517a5a534c504139706f45467641563044626b70576d676c4473395654786235797356337037734f714670754c6b3676695471676e5847456342644e384f65416936767479344a526879354c39595335555a4e554d7a4749776a625268696c7035796f63712b6f417252686c61486b41324472304c7a6f73785770536c3830724e57584a4f596c633554326746576543612b624e6454716c76574a47485341304d46515a58643148754b4b534c4a70464a624d4778303473463269764863686531473936726c4930674e7245366437634c677975725274744933613970425954543253524e5371437241557864426e6d426434614d4d515a596243514765736256426e61752f6d4e5749503143792b4a556b6e6e33695133654f534659687655635278566675554f57303267354e514e4a726f775751366f4358726f65573145314b4d4c6f5248354f41467638637736395755394b4553303173364543487345475530316733332b73613737504e5a594b3757356c6158662b6c52306775673961714335794747727a482f4c71792b45793544472b617958327a64477249376a57724e545a614d6b724f5634504170754f6939354c2b624633326e3332546d326b647066396c79395332384f4e4e585a6131373844526e794e6679754850674a61526571755246626e6959723662656a796266463337415237336353786e5442612b704e664f493630324e5a39462b366c4e645a50373474484a636e50766250665a6a705552646975716a342f7a61354b69663036756f74314a4b3277767244652b485879534d66703257726e6a674b645a656c5532787850714d4c7a675a2b36766c4e31334d755572587a486675584645786d786434576f68356e302b365764316877486b726a63395041396e3756666b55346e7538663232503859657531324564504e6852494b6f2f4f53314a6162707835756a787a385474496555745a4535324242433758716d76794157486674654a786f764a3059504149304336445833514d655a7037546a6f6a44734e5a474d44306f70456e2b7964446c5a4a2f5a706a633638664d64544e44367472336f764f41476535644c54767158426b337041334b4d6c6c564a71386a553349566845335755346278324d69712f746d75525a6c306830746668774943344c62774e4d734d692b4468757847753751646a4d7973774652336a6f7772624b53453844367549766349354b6b665571686c6c307333646b2b357a6d5342634130646748525949496d356765474c52506b7959715a507942577155566e32353675316354434d454b536779467552783457725775434c593359627a38696d79417a434a2b73636263774769325343424b436a4a76483341514e2b7a6b70595372533952385a4943786d5343447235614b796a66506a6642314f343056793643506534523059434734342f3847492b72486d372b6459356c3533433435783750426b534a383637562b6d4958703335396f6874702f6277565148557563513536683966706f726a684a47444e4c6b5633635173427a52444a316736496553635358496a53567041744576355249744b5a673039565a43336c4a376836557741435a4c543863564c2f4f762f307457424e393842646a6f34496a66456c674279336a4d454a6533463136646642595877697955786f6f6b77694c6e7a70496a5a49487056514d796b6f77516e6d44684b63625a4b545a754e705673737864736f35615276765679615572624f546e457a535631415a4c426c683330536139484e6b7544396a7467576b707258724a7751347a44506e5764305348304b51494472796477416743464d4a684438434143416b4d39787144674266417a4845736e7a63596e782b62386b365179354a444d6956564c6b78756153716a544f6c68784349636870762b69377066317579634e494b486d444d36506b553539504f464a714a683874725a5a764b56306158723334553444336c482b556b542b32444d495957595a4a51454e4e58514e346d5271344951316a38435153416f5533547a75777556596337546b5676686c714247376e4b4e7668616a784c7a437636576c4e5070534b756e316343754258514259383468327549615755486244546a726c346b6a3836577337304e6542683931614375593757706f6a5a66486c722b53582b39654b45396873324173746f414c326b772f324d4961537556484551394f7048306b73566c3753775a596449626e4d466a6b584367716f72504e362b77667174565953794542316f34462f357a4962334c7058454958742b647271786f50733666543431575539655159363046586e642f417463516c6b54745077576a6c4d34633672786b695762486c45546145694e743865664c5a62386d4e533346374d7a767830714951526f6e5861775568782b4b565679426358524633462f345274563163344c37583735623167326e6f6d754f5543306962536a64577a392f3030424e6830757a516c5454645536377569515154564c72442f4a7a2b59686179437936794448326e5636364b6634507678346f6b5551794a444b4653755067354f4c6d3465586a467841554568615249564f5762446c795265584a4e383956754a6743756b4a466970556f56615a636e4b46437053725661745371553639426f79624e57725271303635447079344a53536e646576547130322f416f434844526f77614d38343059644b5561544e6d7a624859356c74676f55555757324b705a5646786b697267735457684973333131584c333851694e484f516b46376e4a513137796b5a3843464b515168536d434234334e7a46314d54463370327047425a2b306a6b374a7749654b577261375a75472f7232687074312b5a3131645856506164575853745a765456362f4e717a6d724a72374671377a713633472b784775386c75746c75733545684e64567a6a2b76654953797558375667374b3962326452723635502f717979666c3752667566707975714f6871444175486154314164493339514a38617432496959412b4c79435438436b6674664b484746316f5178487546464f38526a50632b534134573179534e4d49336b6f75545952554b42516a336b53536848727544654236532b3358624246704534414141412920666f726d61742827776f666627293b20666f6e742d7765696768743a6e6f726d616c3b666f6e742d7374796c653a6e6f726d616c3b7d3c2f7374796c653e3c2f646566733e3c2f7376673e3c73766720786d6c6e733d27687474703a2f2f7777772e77332e6f72672f323030302f73766727206261736550726f66696c653d2774696e792d7073272076696577426f783d273020302033323020333230272077696474683d2733353027206865696768743d27333530273e3c7374796c653e3c215b43444154415b746578747b6c65747465722d73706163696e673a2d302e3870787d2e427b666f6e742d66616d696c793a70726573735f73746172745f3270726567756c61727d2e437b776f72642d73706163696e673a2d3470787d5d5d3e3c2f7374796c653e3c706174682066696c6c3d27236435376562312720643d274d333230203332304830563068333230763332307a272f3e3c706174682066696c6c3d27236535616362332720643d274d33323020323930682d3330762d3130682d3230762d3130682d3330762d3130682d3130762d3130682d3330762d3130682d3430762d3130682d3330762d3130682d3230762d3130483830762d3130483630762d3130483530762d3130483330762d3230483230762d3230483130762d323068313056393068313056383068313056373068323056363068323056353068313130763130683430763130683130763130683230763130683230763130683130763130683230763130683130763137307a272f3e3c706174682066696c6c3d27236261373339332720643d274d33323020313130682d3130762d3130682d3130563930682d3230563830682d3230563730682d3230563630682d3130563530682d33305634304838307631304835307631304834307631304832307631304831307633304830763430683130763230683130763130683130763130683130763130683130763130683230763130683330763130683330763130683230763130683430763130683330763130683230763130683230763130683330763130683230763130683130762d3230682d32396c2d312d3130682d3230762d3130682d32396c2d312d3130682d3130762d3130682d3330762d3130682d3430762d3130682d32396c2d312d3130682d3230762d3130483830762d3130483630762d3130483530762d31304833316c2d312d3230483230762d3230483130762d32306831305639306831305638306831306c312d31306831395636306832306c312d3130683130397631306833396c3120313068396c312031306831396c312031306831396c312031306831307631306831396c31203130683130762d31307a6d2d313030203630762d3230682d3130763130483630762d31304835307632306831307631396c31203168313339762d3130483730762d31306831333076396c3120316839762d31306831307a6d2d36302d3530763230683330762d3230682d33307a6d2d3930203230683330762d32304837307632307a6d2d33302d3430763130683730762d3130683130563930682d3130563730682d31307633304834307a6d3131302d3330682d3130763230682d313076313068313076313068313130762d3130483135305637307a272f3e3c706174682066696c6c3d27236539653965392720643d274d363020313430763130683430762d31304836307a6d302d34305639306834307631304836307a6d36302d3130683130763130683130763130682d3330762d31306831305639307a6d302d3230763130683130563730682d31307a6d3330203330563930683530763130682d35307a6d3130203430763130683430762d3130682d34307a6d2d3530203530763130683330762d3130682d33307a6d39302d3130763130683130762d3130682d31307a6d32302030682d396c2d312d31762d396831307631307a272f3e3c746578742066696c6c3d27236666662720783d2731342720793d2733302720666f6e742d73697a653d2731322720636c6173733d27422043273e4142434445464748494a4b4c4d4e4f505152535455565758595a6162636465666768696a6b6c6d6e6f707172737475767778797a303132333435363738392b2f207c2068747470733a2f2f796f75726269647375782e7774662f207c204f726967696e616c20426c69746d61702049443a2023333436222ca2646970667358221220a405e7c6864edc776f7b75016438590767e7c5e8e1f1597b5d269846d239c0e664736f6c63430008070033",
  "immutableReferences": {},
  "source": "// SPDX-License-Identifier: MIT\npragma solidity ^0.8.4;\n\nimport \"@openzeppelin/contracts/token/ERC721/extensions/ERC721URIStorage.sol\";\nimport \"@openzeppelin/contracts/token/ERC721/IERC721.sol\";\nimport \"@openzeppelin/contracts/access/Ownable.sol\";\nimport \"@openzeppelin/contracts/utils/Counters.sol\";\nimport \"@openzeppelin/contracts/security/ReentrancyGuard.sol\";\nimport \"@openzeppelin/contracts/utils/math/SafeMath.sol\";\n\n/// @title Base64\n/// @author Brecht Devos - <brecht@loopring.org>\n/// @notice Provides a function for encoding some bytes in base64\nlibrary Base64 {\n    string internal constant TABLE =\n        \"ABCDEFGHIJKLMNOPQRSTUVWXYZabcdefghijklmnopqrstuvwxyz0123456789+/\";\n\n    function encode(bytes memory data) internal pure returns (string memory) {\n        if (data.length == 0) return \"\";\n\n        // load the table into memory\n        string memory table = TABLE;\n\n        // multiply by 4/3 rounded up\n        uint256 encodedLen = 4 * ((data.length + 2) / 3);\n\n        // add some extra buffer at the end required for the writing\n        string memory result = new string(encodedLen + 32);\n\n        assembly {\n            // set the actual output length\n            mstore(result, encodedLen)\n\n            // prepare the lookup table\n            let tablePtr := add(table, 1)\n\n            // input ptr\n            let dataPtr := data\n            let endPtr := add(dataPtr, mload(data))\n\n            // result ptr, jump over length\n            let resultPtr := add(result, 32)\n\n            // run over the input, 3 bytes at a time\n            for {\n\n            } lt(dataPtr, endPtr) {\n\n            } {\n                dataPtr := add(dataPtr, 3)\n\n                // read 3 bytes\n                let input := mload(dataPtr)\n\n                // write 4 characters\n                mstore(\n                    resultPtr,\n                    shl(248, mload(add(tablePtr, and(shr(18, input), 0x3F))))\n                )\n                resultPtr := add(resultPtr, 1)\n                mstore(\n                    resultPtr,\n                    shl(248, mload(add(tablePtr, and(shr(12, input), 0x3F))))\n                )\n                resultPtr := add(resultPtr, 1)\n                mstore(\n                    resultPtr,\n                    shl(248, mload(add(tablePtr, and(shr(6, input), 0x3F))))\n                )\n                resultPtr := add(resultPtr, 1)\n                mstore(\n                    resultPtr,\n                    shl(248, mload(add(tablePtr, and(input, 0x3F))))\n                )\n                resultPtr := add(resultPtr, 1)\n            }\n\n            // padding with '='\n            switch mod(mload(data), 3)\n            case 1 {\n                mstore(sub(resultPtr, 2), shl(240, 0x3d3d))\n            }\n            case 2 {\n                mstore(sub(resultPtr, 1), shl(248, 0x3d))\n            }\n        }\n\n        return result;\n    }\n}\n\ncontract TheGuySoftV2 is ERC721URIStorage, Ownable, ReentrancyGuard {\n    using SafeMath for uint256;\n    using Counters for Counters.Counter;\n    Counters.Counter private _tokenIdCounter;\n\n    mapping(uint256 => bool) private sticky;\n\n    struct Payee {\n        address wallet;\n        string role;\n        uint256 percentage;\n    }\n\n    Payee[] private payees;\n\n    modifier onlyUser(address _sender) {\n        //require(tx.origin == msg.sender, \"contracts are not allowed\");\n        uint32 size;\n        assembly {\n            size := extcodesize(_sender)\n        }\n        require(size == 0, \"contracts are not allowed\");\n        _;\n    }\n\n    uint256 public PRICE_MINT_CUSTOM = 0.02 ether;\n    uint256 public PRICE_MINT_CUSTOM_STICKY = 0.03 ether;\n    uint256 public PRICE_BURN = 0.03 ether;\n\n    // mainnet\n    //IERC721 internal BLITMAP_CONTRACT = IERC721(0x8d04a8c79cEB0889Bdd12acdF3Fa9D207eD3Ff63);\n\n    // test\n    IERC721 internal BLITMAP_CONTRACT = IERC721(0x1b4C2BA0c7Ee2AAF7710A11c3a2113C24624852B);\n\n    function withdrawToPayees(uint256 _amount) internal onlyUser(msg.sender) {\n        for (uint256 i = 0; i < payees.length; i++) {\n            Payee memory payee = payees[i];\n            address payable to = payable(payee.wallet);\n            to.transfer(_amount.mul(payee.percentage).div(100));\n        }\n    }\n\n    constructor() ERC721(\"The Soft Bid Guy\", \"BIDGUYV2\") onlyOwner {\n        payees.push(\n            Payee(0x3B99E794378bD057F3AD7aEA9206fB6C01f3Ee60, \"artist\", 17)\n        );\n\n        payees.push(\n            Payee(0x575CBC1D88c266B18f1BB221C1a1a79A55A3d3BE, \"developer\", 17)\n        );\n\n        payees.push(\n            Payee(0xBF7288346588897afdae38288fff58d2e27dd235, \"developer\", 17)\n        );\n\n        payees.push(Payee(BLITMAP_CONTRACT.ownerOf(346), \"owner of #346\", 49));\n    }\n\n    function mint(\n        address to,\n        string memory _description,\n        string memory _imageText,\n        bool _sticky\n    ) external payable nonReentrant onlyOwner {\n        if (_sticky == false) {\n            require(msg.value >= PRICE_MINT_CUSTOM, \"not enough ethers\");\n        } else {\n            require(msg.value >= PRICE_MINT_CUSTOM_STICKY, \"not enough ethers\");\n        }\n\n        withdrawToPayees(msg.value);\n        _safeMint(to, _tokenIdCounter.current());\n        _setTokenURI(\n            _tokenIdCounter.current(),\n            generateMetadata(\n                \"The Soft Bid Guy\",\n                _description,\n                _imageText,\n                _sticky\n            )\n        );\n        sticky[_tokenIdCounter.current()] = _sticky;\n        _tokenIdCounter.increment();\n    }\n\n    function approve(address to, uint256 tokenId) public override {\n        require(sticky[tokenId] != true, \"disabled\");\n        super.approve(to, tokenId);\n    }\n\n    function safeTransferFrom(\n        address from,\n        address to,\n        uint256 tokenId\n    ) public virtual override {\n        require(sticky[tokenId] != true, \"disabled\");\n        super.safeTransferFrom(from, to, tokenId, \"\");\n    }\n\n    function safeTransferFrom(\n        address from,\n        address to,\n        uint256 tokenId,\n        bytes memory _data\n    ) public virtual override {\n        require(sticky[tokenId] != true, \"disabled\");\n        super._safeTransfer(from, to, tokenId, _data);\n    }\n\n    /*\n    // test pls\n    function setApprovalForAll(address operator, bool approved) public virtual override {\n        require(sticky[tokenId] != true, \"disabled\");\n        super.setApprovalForAll(operator, approved);\n    }\n    */\n\n    function transferFrom(\n        address from,\n        address to,\n        uint256 tokenId\n    ) public virtual override {\n        require(sticky[tokenId] != true, \"disabled\");\n        super.transferFrom(from, to, tokenId);\n    }\n\n    function burn(uint256 tokenId) external payable nonReentrant {\n        if (sticky[tokenId] == true) {\n            require(msg.value >= PRICE_BURN, \"not enough ethers \");\n            withdrawToPayees(msg.value);\n        }\n        super._burn(tokenId);\n    }\n\n    function tokenURI(uint256 tokenId)\n        public\n        view\n        override(ERC721URIStorage)\n        returns (string memory)\n    {\n        return super.tokenURI(tokenId);\n    }\n\n    function svgHeader() internal pure returns (string memory) {\n        return\n            \"<svg xmlns='http://www.w3.org/2000/svg' baseProfile='tiny-ps' viewBox='0 0 320 320' width='350' height='350'><style><![CDATA[text{letter-spacing:-0.8px}.B{font-family:press_start_2pregular}.C{word-spacing:-4px}]]></style><path fill='#d57eb1' d='M320 320H0V0h320v320z'/><path fill='#e5acb3' d='M320 290h-30v-10h-20v-10h-30v-10h-10v-10h-30v-10h-40v-10h-30v-10h-20v-10H80v-10H60v-10H50v-10H30v-20H20v-20H10v-20h10V90h10V80h10V70h20V60h20V50h110v10h40v10h10v10h20v10h20v10h10v10h20v10h10v170z'/><path fill='#ba7393' d='M320 110h-10v-10h-10V90h-20V80h-20V70h-20V60h-10V50h-30V40H80v10H50v10H40v10H20v10H10v30H0v40h10v20h10v10h10v10h10v10h10v10h20v10h30v10h30v10h20v10h40v10h30v10h20v10h20v10h30v10h20v10h10v-20h-29l-1-10h-20v-10h-29l-1-10h-10v-10h-30v-10h-40v-10h-29l-1-10h-20v-10H80v-10H60v-10H50v-10H31l-1-20H20v-20H10v-20h10V90h10V80h10l1-10h19V60h20l1-10h109v10h39l1 10h9l1 10h19l1 10h19l1 10h10v10h19l1 10h10v-10zm-100 60v-20h-10v10H60v-10H50v20h10v19l1 1h139v-10H70v-10h130v9l1 1h9v-10h10zm-60-50v20h30v-20h-30zm-90 20h30v-20H70v20zm-30-40v10h70v-10h10V90h-10V70h-10v30H40zm110-30h-10v20h-10v10h10v10h110v-10H150V70z'/><path fill='#e9e9e9' d='M60 140v10h40v-10H60zm0-40V90h40v10H60zm60-10h10v10h10v10h-30v-10h10V90zm0-20v10h10V70h-10zm30 30V90h50v10h-50zm10 40v10h40v-10h-40zm-50 50v10h30v-10h-30zm90-10v10h10v-10h-10zm20 0h-9l-1-1v-9h10v10z'/><text fill='#fff' x='14' y='30' font-size='12' class='B C'>\";\n    }\n\n    function svgFooter() internal pure returns (string memory) {\n        return\n            \"</text><text fill='#fff' x='14' y='260' font-size='12' class='B C'>...you have been visited by</text><text fill='#fff' x='14' y='290' font-size='12' class='B C'>The Guy Soft, King of cucks</text><defs ><style>@font-face{font-family:'press_start_2pregular';src:url(data:application/font-woff2;charset=utf-8;base64,d09GMgABAAAAAB1AABIAAAAAYWQAABzYAAEAAAAAAAAAAAAAAAAAAAAAAAAAAAAAP0ZGVE0cGh4bMByCSAZgAIQSCBIJhGURCAqBnFyBgVcLgiQAATYCJAOERAQgBYlSB4N6DHkbfFEF49gKsHEA5sm7L6OiZlFO/bP/b0mP4cg3pLpDKKtAQpBAWrKJNokickOobO6uGsikwzN7NIqQ4fI1vP71DmbxfbfrpzsjmTSZcrXGwPe83PaY5zOAYWdg28if5OT1n3Jq74/IREEn3XEUtoJsO0QKSyUEt8tw2vMs442ATwX/Y5sPa9AaMZOaeLMoPjGpy2L/FgDLchUQ8EDQtkw7vnZm/yOoVq5n34R3hYTfpnwURFg+jf2MRGgQkkJj3AmLwgYhuas5c5WV1TtVhPgySMeJUt///eD1N5elJde1t0g+X6lp5ZNoRkYmiBwKIBWweMpKV1oxFP6EXUnfpmIXFQR+FbCT7vsp4+4vpazBgr53iq1gwqy0chW3NRKgbOZb7xA8//9VLdv7ECSAS62t2RjplIpKwSlX69qdi4r8j/wg/gdECQQlkZwoaYPCxE2JAKQ5IKXNqXQIQTsOMZbbNVtULjrnfl267r3pVusJYkGsho7cD9tv+2854IjHhdf5ZDHSPDZixJSydv47XYbTzel2MaGEoAna+uL/4YOP/Np8hTI9TYrx7zoAAuC9be8CgHcv+f8G+OxqtgEBPIBMAEPIdRgygAEI4GKoxDZ9I9PwPS3buRnZZACuYMMGoG/bZ+NwnhaYcH2I6+Q0F2lyZwr+SP2Wjys2bUXkKVixEbmvaOVmcAABAEKA78ghJI8KYOZpVCcNWb/rqBhvvw+JBNJoCNeHD2Ay5fakh9gpmQim3GdPhqupWpObfITnZ4r0Yu8tIh/UW9eZ+vZyPxXXEci1Tn4NcMe2zujGSv4AQNG/KNibY3U/TPbiedL5xdSBw/kH496vzv7yjwBOAmidR7gL2jMaecKfTzGacbJsgNdh98kUGm09Ewvr9Gr6OH165OIRnsvn8QJezKt4K18CX/eCootSaHvxV5RSPb774uCDZ/O8sS1/s4H5foUJ7WwtTI1rCvKHaBOtp3W0mlbQApqkyi/+X2x63gSGPUANkI41ISb1VQnkqmo/mvLnU/4l/Z/AWIFeWFRcUlpWnj7jRkVlVXVNbV19Q2NTc0trW3tHZ1cimeru6e3rHxgcGh4ZHRs3Jyanpmdm5yx7/oKFixYvWbpsOewxV67CWWDD2ms3roF9+1iN89dtPrcCT++jx06dPn4CAHDN+QsAcPIM7NW3bAOwddMbOFpQf+UEPUpQwBAID4sR0xJDu20BvStbqHGrw27+0Q/Z/F1B4crsCkEG/1h44hWCGcOTVq9uxyqEZKzL5iJhWjGRsCuEbNy3TUyP7bc+2yc7emevdem6ncvBtFCiZ4i+3Xa5+dWzK4RieBfOrxCq8UABnTUtwc8uXBgVsCuEZjxQeDmcONRhhIK8pWpecBr8UAs/9Mv7ZHMhFQ3qXMjFQwKmlV6VXsbV5ZujsZgdTZ+Zk9xa4CI2H4gG3MtVCLfB336Uumf+MaqEFl9ocd6v9y1bzy2+cvn9AqK8USt6mqePkJ7W07PW21L6L54RCTtjRzcy1apu5b72Rdm24/3s41iUv58enrTy/YNcYIaWjt0y7zf0k1rLX1/n1vBUNCbIttJCLh7UL5exPmjVMs09YSulCrwCCqngt6fQRCGV3tR13bc0CdHdGzZ4ulJnntn00MpyXhMc2u3R55PfMmI8hAQlUikafjwABWtxYzRjqW0mLX05F9BTUQ3aa3ORCLd7EBzLFakHiRO/quArRM6qvDjtDEMk2rpA/9ddQQZCMwIA1wNAJwB+AMcPuBMAAIhA+ffvpGbTd03iJqNdGrYP2TKUoLKhlTA+y5ozarY7p3nZJPD6WehYZkneWQh3l3HrvBvrriU2m17IkEDSe/2Ok4gK0U77Liwr/5pflS4vd61kD72suu+9RCo4WsqlqnfU94W77V7VXlurLreq+vzOd1dayCutZa96e/vYb3HE5HByUtJl9Ds6C73A7eKLUvnOuZe69Bo99kiVvL3TbeVZMeZN39JwVMOKLq3WR/gFHp2eZcxP1vQzBnzLUZRSohidy2iiJ2DAKGjZAY7+5/jlGAc6euuYISrE+lqg+M5Qf3IfZftkM+rN/vkwSLEKZRY6TbLfgWdQ6dwBRhoCYDoQoG3WqQW97m8xYlpJGbaIBxphrWRHrWi3YZwzjCmycsHrGY5yUJucX1W2eYVMuPBZ0FjXUkvcxsBX/XvtNYg2jvqBYrg6A5DpVSjosUQ6zM+TbMAYMLij1+/JpkKiLqmSEIGOeriS86fgjMHzcsq9Z6+wqWIK3MqO0yHcAi9vg3tyRlnS4oLT6Kyamw596MWGjv4aVMCZnFHbKw6uV5zl7xz0i8KDHf8s/TzxuJ+CHGnvLwsmnBQefq3jMFQVWotjUNjZuXHFAZw2IfS6TzLIxOo5aCTb207nTjJYUSHFCNWkxbOsUDUzeqOiXRg6KC6uqAitZaz5L94U5c2bnbTBSgnHoCAInjn4hVhx1PMbRBkS06WXAyNhCXxGLtsZ84eyP5Mbo8/QUc5sIESTRXIjb0rKWtUomGjmrFs5WQpmVpvZyVfM5VaSId3j5YsLpBPSTRWS95hXkEDjLjm9ikAnP7OdRKMzDd/r2ZjKbY3gRInKlIDLUa0ZCQg32d1CzvcaBxkUlJQ1pxNAfaGoSlPCtYmtJlmWcvdzbry+L4kGsKzyH21TjOEo6/qF8eDgRdxwZUiwdxXsnEGlo2xiyMxZSOHxCRvHdC4bnbBZ//U7nTLVo9KtePUmDDJH4VYoASJX0kf0emCIZOohuPrMjOYwUEXu52qIQxZO5JSKAAivTgytS3nW6pWQRz24kD+LIeZOJnYmgoPr9vUTByAmrtW6Vj0AterHaRzBLepoaefe54YJCaegdng0q4Dm7FHAsmaTnoRQsUiZSG5CzDC6BWrkSHMYkUmX4/8Z83Cdr6wY7NOt9jaGnPWsw/Ljw2G64PAHaMXRTEzEqmU16NAAsXdeY3hZojrkGVhGK+dhfioCTpU/UJ2J22dshs7Jf0qXfmHA9OudsJV6Ggcx+GdB2UY8EVFe6ZitNuJWkdsGryhflM6kuYrxto+Zr9VVKEcLj+viMlEQtSNXW99Oq3jMGbMnSMml3cLMS5glHH7eStcg89k2CM/VbwgLVHmhtyiWd5EomgGvRcVuLY1GJCIzFSjXLIQfNDGrspKKFpWLzAm3B8oNp+0+6Y6m/8orGPQNFABoGYOzADRMCg64ZQe93HEPuX2gXLvLQO3cGS+B7xUAvgH1L1WFRNlx/5HSyA0ai82nHHd3jr3orUPGyCRVN6GlOgsPBevUb+yd8kfpkGr2jcF4c6s1j8+3WUvS+QtHvk7eUTVYld0i5xXqZFu3OAj32jvpGkKWze0XRRiHyncjGNqsq4/97laUEq85W235ePy1FCiUYVLzRKSwNwLX5xSVnHxIYBtobEo48HCxhf3ozoPGJHMs3qXZSqcIDOy6Eja7s18AjmtNy61uQiYFS2sTs7sFdUkmau62pt9NzLykonRYSxy3tOFqrpVnuZfdgUuf4QOBaX9SFRItvAuebYs7rY+h7pHR2/QeP2zcpfGB8cmBFVPqcTzeXwAn2E0ern65Vp1KNunCQr9/7gEFUEWrN16wPyygqRrIAi53LrL6e1+tV1hI90NNfCz34dI3thl0LRPRCM2b5JZ12mSRzeEiienhHrCLSLr/zwkG9I3mZCHQt2hRuHHIJ9UTJAYp/Bmw8K1OnmXYT2riIpj9LOGtxmQzlWVNt6+yGDmgyh2UAiSKwcn6tunUGhs3eFF8VNLLW9hMuLvmR1U4XMfCh9bkF15zW3o9JPuVxpbOfrj1rfV97tCI9FB+LhDe+yGRnX+76jr1yJcfAffGey6mnur7mwNoYPosF4BL2Z3840odqt1yFWjSBYNeTeiUl+8FAEreNqZxpz7IuCMLR0vIOlKQazptNIBv0pS/m0y+HTy+S+rfN7TbWj/Rsum10YvGXeXdW4ZLkva9QVVk+fUeCFStd/hjXPzXav9zdQHLMQMMdVlMSP83l+NvVDCRwy+UDF5gT6Ru401yL3d/KcH/wqoBXkoFPJHjz9+CCbJvjia6F5QOncGOwH84FUj5ihr/SwcvhVM0OtxCO56n0kMtt26k59KDlOuWH9QIoQ834fRUBG2nX3vvF8rpfNv1/8RuXpDKJBdIf+92HLtIhXFwR7s0qXfYCjRZd9PcDBa/LXUI8aADBZoMriDyiCtBhhctoggV071LYeW+IH11OpkXRc5cH8RUsV2s1VfFYMEhcN3rhU87Cjij440G3vdt4gTt8JDBs/5VoNA3KCT8JDrwS4e/0QIgdtDq8BlfvlwOrQiLSB3VWpGxYov3Luo7+OdTPKwrXnD1v0q8WT9www/6jJ/Wp4t/q//MW+ri4sG9N2GrcI/kgWzu4lol4zmvQl53Ia4w7FRGX34Gj6O+VM6E+tkjggfhFu+nKlS8/ulczDEvEWL7+bSk8zFj5+Naixubea1yaceELR3ar3KvZMoe4DJIevJ1qLCDKNZtDd0d+g8QnpT6+v+B6Eb/y5MIlLXUT8SXxnc2bjwtdS0sC27kRyyXN+xEHgXNLrSuLC8ylBgfmkqI8hxumpSdClIXXQV3V9yE1p2OBgNpzlPpXwMuNxzC5lhaV7RmO9LS2E5dye7hKKcLrTmNfhDPkOvpmBGXt7WWrW0LuNByqjtPGHsZs8QdCbs1ydIYg2JFaRiM5bDcCTdPDof5Ac+v4Z8I1XmELLjsOlPwk+NZbAzHaphB/CaSL2EhAlVLrqNCnuqokctNXrm7+tumlMDKjwiB2aGXf+Lfe+GKQT4gowh2Y9QSlF3bYs+0EwIy3kbsM6R1rIBAaBGIstXQqFtrMiPLUNMLmRbaGZKxo6/RaYs/LQuhdnfBFSJsT+ZzKN2Oo9LTN2XlS8eVfz4tYoUSxaeTHZEn9tPBxRWqz1J41qlnmkaiCGHqMphIwRQQlXpEyNoIuelOVUpgLNnCVh5TPB/z4jHtfj6pxInAK9iyMi82BYcwegKS1sWkkex2JcYnJTG50Xp66ZSaqsVxQNKUKmZmg7AgoVTzvJO4nhuxkBZKkStSx9BOeR2nUc+GiULoS5zZoQPItAIYF+IllrrbJBFGJHB5qmo7F1cF1INVLqyhjC22C7Mb3dDo9lCTAqYx6iGDsaN81K5kOLGQSHcfL4RKKjlrAQcDNvIyED+XkwxnQD8kElkIKSAY6jou87zSVqO4ULIsfyAZ4ByoWMkDxRxLV2Z7mLo1OLMLe3CeZlRWWMmacId2Q6J72HsD1WNx5n+QpnnZvSJx+bG4nYGIvRr1gzsFjJnFDKaTHAHcXBfFrL12c9sR8gpD0onzNM4sV9Zkgw521ZU3Rx+IDRZzLDUKy5rsgQRNrVVpvOstoVyZxD+AELCk4DePJXEVy2iFwZjusDQmpmFx4ARRbTyXp5BLqatVu53aIgQZNAA6u9ulkLaZtl+d9bQtjKEBr0bCFc9RwSfplVWPbdIyORNroWQ0+wKo93MxOSEZ2D4WV22W8DSDjMeZ1wjt5VmM5ZhqwUCXmNanmiDGME4HZEnv4cEUsNIyO5WOgp8rsFdiHL+RZZCkAqRQRDogNhNLkRv5XNEpwKCtZzgIVudcTXaJIWCmKSD1adKnqW3edosml3BwlSuCUSyJpkmZmWNqRikl2yM3kc6zKx9rFAQGIILspRqNopWyaceUQY2qQDHZHggDAtMtnnL+FCAE0Iiy71erBC1niJBLjMaxIWXNSq6qFLTTWAghtwXzEDuhi8LsYvb1FsBsRUA/hkmi8BTBUQGCnArwGJIij6OLcbpWYeZw1GBUH56Wys5AueI4HLFIzjpzuuIiIO4TEftF6Z20Qe8AuSBPclwGazhH30J2YKLEJ9MgtBE695twm3q/yTygdmGHXI950mmGwuAFh9cSvNgQs5B2TsqsSVE4LGjBN0R/8FZsIfiHIbPBjKXlY25wMGXfKEEyxodU8FnVp0xBi/5gm0i3LCebwBRxb/GldpR2IQbpHXET8rjaXyKSrUY6s/LZS6SxM8dOqk6xzrLuPsivcB0u4zzOc+TVazjj2HVeLOoq2yR7fZ+mnGAZTA2Q0QEpbQYlDVpXFXcAYQ5wwXWFC9qioDWy/5CWbVkax+fdEKmqeqDHA6N8R3bLqW0tlNwwAIsb3gkAHjBkU0Dk5aMSoWEXBZtds5wg0xRhbgmmCQVLN5UI8Oo92kzejnZiPgXnBBDywCCUmQgtTo/z6U6JnuRwFJZuwsVVKXtONRzjN0+UkKx2OTZNi3wJZQ1De1nrUxdxj01To7kOX0jI27/6Eu5SyWECOUpdnXE1S/plnO+/hA+gGDooFjnkoALKGB6UQKhLyJAIQNMZ3I0Jnd9YMWKUroBkRA6OLapnnWjNhm5qAR1FTt/lAkXDEqASAKwcJI/KhHW6zuXiru40bM8vHozzAnkSErqCAMn4TN2JCkekOtH+v6OZjCEy3ERGBmoqYvXt/TDfSNA2l8V5zoKMUaXq923NoMa77LIuzscjTIKIHvEtRPr9ktdisA6WUToIMmuOV56qFiv+1HQJK1s/7XlapZOdqr6qPdpVnU+SaWpIc/WwPh6OKy3qimHzbhCdSpkr2izFkoI9vlmaym1rtc0sFByW66EXesLLJEVwp1A86UAO9t1Xl5uQaAY9U9N8YsLwMu6Myp3joSTTTskNZMf58U3dJGfh+P3IWC8V9s//6zZxetjo0ct8AGsbPC47WBBESGjJ4mPYM2FuAmdgNOApeDgX+b2Is5aGocpAaN4IzDTaUKzUOH64zAp4oRKYi/kDSFJg/xs8Y5CJ20yAZO4gIuWRS83c1AxJHCXzMA+AS0YldVqvnJU9iMYa6c4xxV5DLfJQiViHO6EyQoeQk7/sdBfDxlOwutrelct08wC4vLtLoe/uLv69H1kcS7ZNxtTSrXgY0BPClkqT4dDQdvGoiodGykzklT+UAMNfCt68lk3ERFv21EAcpIRiwHAdTjC8ZIFrz5wLbmaP9B7isKxUQ4kZeIGDh30qJ0VeP4IhKvEFZZdxjS4WSguCBE6oD1n+yYOfDGWAhe9CanMF77XXATvNqSxviy4Z2CRNS5WlwpIJkdkXPTuJxPK96U2TBaDXklpG33keRCf5DU9mETUGL2eM+w/2+kTclHKaG2qMW/AeGmmk/bPsBANpWl1AgQhLA77wlM3NWrGiikOr2N0imm5tBVxcYrc1LIiA48OKOXt1WGZAwKx/QawQw0Legtz9+rEKJ7GtmrHIdKaOqiHUXER64zTCLIJLAW7HuVD1BNWx8if13uPCWPuMR1pWhGfOJ25xAg1IczykEV4dSqJ36BiOiabpxpj9DRX39NZvyIERRw1I4xvR79ccmh4k6sFcSji6N0FKB3fE4uCkfigoC0WUNNtx0wHnAO89aR4qCm2wo1/AfrQSAL0xpbVBNbEPKYq6GpFldYftuE3TqYn2YWsgIMV1X0kOa10WcqUPgpWyK99l3bFSPLE7gNGqnzIAzwC2gMqFYKAeBDTdgQaDpSf8a+4+5t11gHkM7ZI4LWwEp1FhyfNPTnEjAbKXHxgjs7ImOpiE56IyZ2YXWQzZSLPA9poEFvAV0DbkpWmglDs9VTxb5ysV3p7sOqFpuLk6viTqgnXGEcBdN8OeAi6vty4JRhy5L9YS5UZNUMzGIwjbRhilp5yocq+oArRhlaHkA2Dr0LzosxWpSl80rNWXJOYlc5T2gFWeCa+bNdTqlvWJGHSA0MFQZXd1HuKKSLJpFJbMGx04sF2ivHche1G96rlI0gNrE6d7cLgyurRttI3a9pBYTT2SRNSqCrAUxdBnmBd4aMMQZYbCQGesbVBnau/mNWIP1Cy+JUknn3iQ3eOSFYhvUcRxVfuUOW02g5NQNJrowWQ6oCXroeW1E1KMLoRH5OAFv8cw69WU9KES01s6ECHsEGU01g33+sa77PNZYK7W5laXf+lR0gug9aqC5yGGrzH/Lqy+Ey5DG+ayX2zdGrI7jWrNTZaMkrOV4PApuOi95L+bF32n32Tm2kdpf9ly9S28ONNXZa178DRnyNfyuHPgJaRequRFbniYr6bejybfF37AR73cSxnTBa+pNfOI602NZ9F+6lNdZP74tHJcnPvbPfZjpURdiuqj4/za5Kif06uot1JK2wvrDe+HXySMfp2WrnjgKdZelU2xxPqMLzgZ+6vlN13MuUrXzHfuXFExmxd4Woh5n0+6Wd1hwHkrjc9PA9n7VfkU4nu8f22P8Yeu12EdPNhRIKo/OS1Jabpx5ujxz8TtIeUtZE52BBC7XqmvyAWHfteJxovJ0YPAI0C6DX3QMeZp7TjojDsNZGMD0opEn+ydDlZJ/Zpjc68fMdTND6tr3ovOAGe5dLTvqXBk3pA3KMllVJq8jU3IVhE3WU4bx2Miq/tmuRZl0h0tfhwIC4LbwNMsMi+DhuxGu7QdjMyswFR3jowrbKSE8D6uIvcI5KkfUqhll0s3dk+5zmSBcA0dgHRYIIm5geGLRPkyYqZPyBWqUVn256u1cTCMEKSgyFuRx4WrWuCLY3Ybz8imyAzCJ+scbcwGi2SCBKCjJvH3AQN+zkpYSrS9R8ZICxmSCDr5aKyjfPjfB1O40Vy6CPe4R0YCG44/8GI+rHm7+dY5l53C45x7PBkSJ867V+mIXp359ohtp/bwVQHUucQ56h9fporjhJGDNLkV3cQsBzRDJ1g6IeScSXIjSVpAtEv5RItKZg09VZC3lJ7h6UwACZLT8cVL/Ov/0tWBN98Bdjo4IjfElgBy3jMEJe3F16dfBYXwiyUxookwiLnzpIjZIHpVQMykowQnmDhKcbZKTZuNpVssxdso5aRvvVyaUrbOTnEzSV1AZLBlh30Sa9HNkuD9jtgWkprXrJwQ4zDPnWd0SH0KQIDrydwAgCFMJhD8CACAkM9xqDgBfAzHEsnzcYnx+b8k6Qy5JDMiVVLkxuaSqjTOlhxCIchpv+i7pf1uycNIKHmDM6PkU59POFJqJh8trZZvKV0aXr34U4D3lH+UkT+2DMIYWYZJQENNXQN4mRq4IQ1j8CQSAoU3TzuwuVYc7TkVvhlqBG7nKNvhajxLzCv6WlNPpSKun1cCuBXQBY84h2uIaWUHbDTjrl4kj86Ws70NeBh91aCuY7WpojZfHlr+SX+9eKE9hs2AstoAL2kw/2MIaSuVHEQ9OpH0ksVl7SwZYdIbnMFjkXCgqorPN6+wfqtVYSyEB1o4F/5zIb3LpXEIXt+drqxoPs6fT41WU9eQY60FXnd/AtcQlkTtPwWjlM4c6rxkiWbHlETaEiNt8efLZb8mNS3F7Mzvx0qIQRonXawUhx+KVVyBcXRF3F/4RtV1c4L7X75b1g2nomuOUC0ibSjdWz9/00BNh0uzQlTTdU67uiQQTVLrD/Jz+YhayCy6yDH2nV66Kf4Pvx4okUQyJDKFSuPg5OLm4eXjFxAUEhaRIVOWbDlyReXJN89VuJgCukJFipUoVaZcnKFCpSrVatSqU69BoybNWrRq065Dpy4JSSndevTq02/AoCHDRowaM840YdKUaTNmzbHY5ltgoUUWW2KpZVFxkirgsTWhIs311XL38QiNHOQkF7nJQ17ykZ8CFKQQhSmCB43NzF1MTF3p2pGBZ+0jk7JwIeKWra7ZuG/r2hpt1+Z11dXVPadWXStZvTV6/NqzmrJr7Fq7zq63G+xGu8lutlus5EhNdVzj+veISyuX7Vg7K9b2dRr65P/qyyfl7RfufpyuqOhqDAuHaT1AdI39QJ8at2IiYA+LyCT8CkftfKHGF1oQxHuFFO8RjPc+SA4W1ySNMI3kouTYRUKBQj3kSShHruDeB6S+3XbBFpE4AAAA) format('woff'); font-weight:normal;font-style:normal;}</style></defs></svg>\";\n    }\n\n    function generateSVG(string memory _title)\n        internal\n        pure\n        returns (string memory)\n    {\n        return\n            string(\n                Base64.encode(\n                    bytes(abi.encodePacked(svgHeader(), _title, svgFooter()))\n                )\n            );\n    }\n\n    function generateMetadata(\n        string memory _name,\n        string memory _description,\n        string memory _title,\n        bool _sticky\n    ) internal pure returns (string memory) {\n        string memory description2;\n\n        if (_sticky == true) {\n            description2 = ' | Click to burn: https://yourbidsux.wtf/ | Original Blitmap ID: #346\",';\n        } else {\n            description2 = ' | https://yourbidsux.wtf/ | Original Blitmap ID: #346\",';\n        }\n\n        return\n            string(\n                abi.encodePacked(\n                    \"data:application/json;base64,\",\n                    Base64.encode(\n                        bytes(\n                            abi.encodePacked(\n                                '{\"name\": \"',\n                                _name,\n                                '\",',\n                                '\"description\": \"',\n                                _description,\n                                description2,\n                                '\"image\": \"data:image/svg+xml;base64,',\n                                generateSVG(_title),\n                                '\"}'\n                            )\n                        )\n                    ),\n                    \"#\"\n                )\n            );\n    }\n}\n",
  "sourcePath": "/home/c8r/repos/the-guy-soft/contracts/TheGuySoftV2.sol",
  "compiler": {
    "name": "solc",
    "version": "0.8.7+commit.e28d00a7.Emscripten.clang"
  },
  "schemaVersion": "3.4.3",
  "updatedAt": "2021-08-19T18:31:48.485Z",
  "devdoc": {
    "kind": "dev",
    "methods": {
      "approve(address,uint256)": {
        "details": "See {IERC721-approve}."
      },
      "balanceOf(address)": {
        "details": "See {IERC721-balanceOf}."
      },
      "getApproved(uint256)": {
        "details": "See {IERC721-getApproved}."
      },
      "isApprovedForAll(address,address)": {
        "details": "See {IERC721-isApprovedForAll}."
      },
      "name()": {
        "details": "See {IERC721Metadata-name}."
      },
      "owner()": {
        "details": "Returns the address of the current owner."
      },
      "ownerOf(uint256)": {
        "details": "See {IERC721-ownerOf}."
      },
      "renounceOwnership()": {
        "details": "Leaves the contract without owner. It will not be possible to call `onlyOwner` functions anymore. Can only be called by the current owner. NOTE: Renouncing ownership will leave the contract without an owner, thereby removing any functionality that is only available to the owner."
      },
      "safeTransferFrom(address,address,uint256)": {
        "details": "See {IERC721-safeTransferFrom}."
      },
      "safeTransferFrom(address,address,uint256,bytes)": {
        "details": "See {IERC721-safeTransferFrom}."
      },
      "setApprovalForAll(address,bool)": {
        "details": "See {IERC721-setApprovalForAll}."
      },
      "supportsInterface(bytes4)": {
        "details": "See {IERC165-supportsInterface}."
      },
      "symbol()": {
        "details": "See {IERC721Metadata-symbol}."
      },
      "tokenURI(uint256)": {
        "details": "See {IERC721Metadata-tokenURI}."
      },
      "transferFrom(address,address,uint256)": {
        "details": "See {IERC721-transferFrom}."
      },
      "transferOwnership(address)": {
        "details": "Transfers ownership of the contract to a new account (`newOwner`). Can only be called by the current owner."
      }
    },
    "version": 1
  },
  "userdoc": {
    "kind": "user",
    "methods": {},
    "version": 1
  }
}