{
  "contractName": "TheGuySoft",
  "abi": [
    {
      "inputs": [],
      "stateMutability": "nonpayable",
      "type": "constructor"
    },
    {
      "anonymous": false,
      "inputs": [
        {
          "indexed": true,
          "internalType": "address",
          "name": "owner",
          "type": "address"
        },
        {
          "indexed": true,
          "internalType": "address",
          "name": "approved",
          "type": "address"
        },
        {
          "indexed": true,
          "internalType": "uint256",
          "name": "tokenId",
          "type": "uint256"
        }
      ],
      "name": "Approval",
      "type": "event"
    },
    {
      "anonymous": false,
      "inputs": [
        {
          "indexed": true,
          "internalType": "address",
          "name": "owner",
          "type": "address"
        },
        {
          "indexed": true,
          "internalType": "address",
          "name": "operator",
          "type": "address"
        },
        {
          "indexed": false,
          "internalType": "bool",
          "name": "approved",
          "type": "bool"
        }
      ],
      "name": "ApprovalForAll",
      "type": "event"
    },
    {
      "anonymous": false,
      "inputs": [
        {
          "indexed": true,
          "internalType": "address",
          "name": "previousOwner",
          "type": "address"
        },
        {
          "indexed": true,
          "internalType": "address",
          "name": "newOwner",
          "type": "address"
        }
      ],
      "name": "OwnershipTransferred",
      "type": "event"
    },
    {
      "anonymous": false,
      "inputs": [
        {
          "indexed": true,
          "internalType": "address",
          "name": "from",
          "type": "address"
        },
        {
          "indexed": true,
          "internalType": "address",
          "name": "to",
          "type": "address"
        },
        {
          "indexed": true,
          "internalType": "uint256",
          "name": "tokenId",
          "type": "uint256"
        }
      ],
      "name": "Transfer",
      "type": "event"
    },
    {
      "inputs": [
        {
          "internalType": "address",
          "name": "to",
          "type": "address"
        },
        {
          "internalType": "uint256",
          "name": "tokenId",
          "type": "uint256"
        }
      ],
      "name": "approve",
      "outputs": [],
      "stateMutability": "nonpayable",
      "type": "function"
    },
    {
      "inputs": [
        {
          "internalType": "address",
          "name": "owner",
          "type": "address"
        }
      ],
      "name": "balanceOf",
      "outputs": [
        {
          "internalType": "uint256",
          "name": "",
          "type": "uint256"
        }
      ],
      "stateMutability": "view",
      "type": "function"
    },
    {
      "inputs": [
        {
          "internalType": "uint256",
          "name": "tokenId",
          "type": "uint256"
        }
      ],
      "name": "getApproved",
      "outputs": [
        {
          "internalType": "address",
          "name": "",
          "type": "address"
        }
      ],
      "stateMutability": "view",
      "type": "function"
    },
    {
      "inputs": [
        {
          "internalType": "address",
          "name": "owner",
          "type": "address"
        },
        {
          "internalType": "address",
          "name": "operator",
          "type": "address"
        }
      ],
      "name": "isApprovedForAll",
      "outputs": [
        {
          "internalType": "bool",
          "name": "",
          "type": "bool"
        }
      ],
      "stateMutability": "view",
      "type": "function"
    },
    {
      "inputs": [],
      "name": "mintPrice",
      "outputs": [
        {
          "internalType": "uint256",
          "name": "",
          "type": "uint256"
        }
      ],
      "stateMutability": "view",
      "type": "function"
    },
    {
      "inputs": [],
      "name": "name",
      "outputs": [
        {
          "internalType": "string",
          "name": "",
          "type": "string"
        }
      ],
      "stateMutability": "view",
      "type": "function"
    },
    {
      "inputs": [],
      "name": "owner",
      "outputs": [
        {
          "internalType": "address",
          "name": "",
          "type": "address"
        }
      ],
      "stateMutability": "view",
      "type": "function"
    },
    {
      "inputs": [
        {
          "internalType": "uint256",
          "name": "tokenId",
          "type": "uint256"
        }
      ],
      "name": "ownerOf",
      "outputs": [
        {
          "internalType": "address",
          "name": "",
          "type": "address"
        }
      ],
      "stateMutability": "view",
      "type": "function"
    },
    {
      "inputs": [],
      "name": "renounceOwnership",
      "outputs": [],
      "stateMutability": "nonpayable",
      "type": "function"
    },
    {
      "inputs": [
        {
          "internalType": "address",
          "name": "from",
          "type": "address"
        },
        {
          "internalType": "address",
          "name": "to",
          "type": "address"
        },
        {
          "internalType": "uint256",
          "name": "tokenId",
          "type": "uint256"
        }
      ],
      "name": "safeTransferFrom",
      "outputs": [],
      "stateMutability": "nonpayable",
      "type": "function"
    },
    {
      "inputs": [
        {
          "internalType": "address",
          "name": "from",
          "type": "address"
        },
        {
          "internalType": "address",
          "name": "to",
          "type": "address"
        },
        {
          "internalType": "uint256",
          "name": "tokenId",
          "type": "uint256"
        },
        {
          "internalType": "bytes",
          "name": "_data",
          "type": "bytes"
        }
      ],
      "name": "safeTransferFrom",
      "outputs": [],
      "stateMutability": "nonpayable",
      "type": "function"
    },
    {
      "inputs": [
        {
          "internalType": "address",
          "name": "operator",
          "type": "address"
        },
        {
          "internalType": "bool",
          "name": "approved",
          "type": "bool"
        }
      ],
      "name": "setApprovalForAll",
      "outputs": [],
      "stateMutability": "nonpayable",
      "type": "function"
    },
    {
      "inputs": [
        {
          "internalType": "bytes4",
          "name": "interfaceId",
          "type": "bytes4"
        }
      ],
      "name": "supportsInterface",
      "outputs": [
        {
          "internalType": "bool",
          "name": "",
          "type": "bool"
        }
      ],
      "stateMutability": "view",
      "type": "function"
    },
    {
      "inputs": [],
      "name": "symbol",
      "outputs": [
        {
          "internalType": "string",
          "name": "",
          "type": "string"
        }
      ],
      "stateMutability": "view",
      "type": "function"
    },
    {
      "inputs": [
        {
          "internalType": "address",
          "name": "from",
          "type": "address"
        },
        {
          "internalType": "address",
          "name": "to",
          "type": "address"
        },
        {
          "internalType": "uint256",
          "name": "tokenId",
          "type": "uint256"
        }
      ],
      "name": "transferFrom",
      "outputs": [],
      "stateMutability": "nonpayable",
      "type": "function"
    },
    {
      "inputs": [
        {
          "internalType": "address",
          "name": "newOwner",
          "type": "address"
        }
      ],
      "name": "transferOwnership",
      "outputs": [],
      "stateMutability": "nonpayable",
      "type": "function"
    },
    {
      "inputs": [
        {
          "internalType": "uint256",
          "name": "amount",
          "type": "uint256"
        }
      ],
      "name": "mint",
      "outputs": [],
      "stateMutability": "payable",
      "type": "function"
    },
    {
      "inputs": [
        {
          "internalType": "address",
          "name": "to",
          "type": "address"
        },
        {
          "internalType": "uint256",
          "name": "amount",
          "type": "uint256"
        }
      ],
      "name": "mintTo",
      "outputs": [],
      "stateMutability": "payable",
      "type": "function"
    },
    {
      "inputs": [
        {
          "internalType": "uint256",
          "name": "tokenId",
          "type": "uint256"
        }
      ],
      "name": "tokenURI",
      "outputs": [
        {
          "internalType": "string",
          "name": "",
          "type": "string"
        }
      ],
      "stateMutability": "view",
      "type": "function"
    }
  ],
  "bytecode": "0x6080604052662386f26fc10000600955738d04a8c79ceb0889bdd12acdf3fa9d207ed3ff63600a60006101000a81548173ffffffffffffffffffffffffffffffffffffffff021916908373ffffffffffffffffffffffffffffffffffffffff1602179055503480156200007157600080fd5b506040518060400160405280601081526020017f54686520536f66742042696420477579000000000000000000000000000000008152506040518060400160405280600681526020017f42494447555900000000000000000000000000000000000000000000000000008152508160009080519060200190620000f6929190620002c7565b5080600190805190602001906200010f929190620002c7565b5050506200013262000126620001cf60201b60201c565b620001d760201b60201c565b60016007819055506200014a620001cf60201b60201c565b73ffffffffffffffffffffffffffffffffffffffff16620001706200029d60201b60201c565b73ffffffffffffffffffffffffffffffffffffffff1614620001c9576040517f08c379a0000000000000000000000000000000000000000000000000000000008152600401620001c0906200039e565b60405180910390fd5b6200045f565b600033905090565b6000600660009054906101000a900473ffffffffffffffffffffffffffffffffffffffff16905081600660006101000a81548173ffffffffffffffffffffffffffffffffffffffff021916908373ffffffffffffffffffffffffffffffffffffffff1602179055508173ffffffffffffffffffffffffffffffffffffffff168173ffffffffffffffffffffffffffffffffffffffff167f8be0079c531659141344cd1fd0a4f28419497f9722a3daafe3b4186f6b6457e060405160405180910390a35050565b6000600660009054906101000a900473ffffffffffffffffffffffffffffffffffffffff16905090565b828054620002d590620003d1565b90600052602060002090601f016020900481019282620002f9576000855562000345565b82601f106200031457805160ff191683800117855562000345565b8280016001018555821562000345579182015b828111156200034457825182559160200191906001019062000327565b5b50905062000354919062000358565b5090565b5b808211156200037357600081600090555060010162000359565b5090565b600062000386602083620003c0565b9150620003938262000436565b602082019050919050565b60006020820190508181036000830152620003b98162000377565b9050919050565b600082825260208201905092915050565b60006002820490506001821680620003ea57607f821691505b6020821081141562000401576200040062000407565b5b50919050565b7f4e487b7100000000000000000000000000000000000000000000000000000000600052602260045260246000fd5b7f4f776e61626c653a2063616c6c6572206973206e6f7420746865206f776e6572600082015250565b615fca806200046f6000396000f3fe6080604052600436106101145760003560e01c806370a08231116100a0578063a22cb46511610064578063a22cb46514610383578063b88d4fde146103ac578063c87b56dd146103d5578063e985e9c514610412578063f2fde38b1461044f57610114565b806370a08231146102bd578063715018a6146102fa5780638da5cb5b1461031157806395d89b411461033c578063a0712d681461036757610114565b806323b872dd116100e757806323b872dd146101e757806342842e0e14610210578063449a52f8146102395780636352211e146102555780636817c76c1461029257610114565b806301ffc9a71461011957806306fdde0314610156578063081812fc14610181578063095ea7b3146101be575b600080fd5b34801561012557600080fd5b50610140600480360381019061013b91906122af565b610478565b60405161014d9190612739565b60405180910390f35b34801561016257600080fd5b5061016b61055a565b604051610178919061276f565b60405180910390f35b34801561018d57600080fd5b506101a860048036038101906101a39190612309565b6105ec565b6040516101b591906126d2565b60405180910390f35b3480156101ca57600080fd5b506101e560048036038101906101e0919061226f565b610671565b005b3480156101f357600080fd5b5061020e60048036038101906102099190612159565b610789565b005b34801561021c57600080fd5b5061023760048036038101906102329190612159565b6107e9565b005b610253600480360381019061024e919061226f565b610809565b005b34801561026157600080fd5b5061027c60048036038101906102779190612309565b6108ff565b60405161028991906126d2565b60405180910390f35b34801561029e57600080fd5b506102a76109b1565b6040516102b491906129f1565b60405180910390f35b3480156102c957600080fd5b506102e460048036038101906102df91906120bf565b6109b7565b6040516102f191906129f1565b60405180910390f35b34801561030657600080fd5b5061030f610a6f565b005b34801561031d57600080fd5b50610326610af7565b60405161033391906126d2565b60405180910390f35b34801561034857600080fd5b50610351610b21565b60405161035e919061276f565b60405180910390f35b610381600480360381019061037c9190612309565b610bb3565b005b34801561038f57600080fd5b506103aa60048036038101906103a5919061222f565b610ca8565b005b3480156103b857600080fd5b506103d360048036038101906103ce91906121ac565b610e29565b005b3480156103e157600080fd5b506103fc60048036038101906103f79190612309565b610e8b565b604051610409919061276f565b60405180910390f35b34801561041e57600080fd5b5061043960048036038101906104349190612119565b610e9d565b6040516104469190612739565b60405180910390f35b34801561045b57600080fd5b50610476600480360381019061047191906120bf565b610f31565b005b60007f80ac58cd000000000000000000000000000000000000000000000000000000007bffffffffffffffffffffffffffffffffffffffffffffffffffffffff1916827bffffffffffffffffffffffffffffffffffffffffffffffffffffffff1916148061054357507f5b5e139f000000000000000000000000000000000000000000000000000000007bffffffffffffffffffffffffffffffffffffffffffffffffffffffff1916827bffffffffffffffffffffffffffffffffffffffffffffffffffffffff1916145b80610553575061055282611029565b5b9050919050565b60606000805461056990612c82565b80601f016020809104026020016040519081016040528092919081815260200182805461059590612c82565b80156105e25780601f106105b7576101008083540402835291602001916105e2565b820191906000526020600020905b8154815290600101906020018083116105c557829003601f168201915b5050505050905090565b60006105f782611093565b610636576040517f08c379a000000000000000000000000000000000000000000000000000000000815260040161062d906128f1565b60405180910390fd5b6004600083815260200190815260200160002060009054906101000a900473ffffffffffffffffffffffffffffffffffffffff169050919050565b600061067c826108ff565b90508073ffffffffffffffffffffffffffffffffffffffff168373ffffffffffffffffffffffffffffffffffffffff1614156106ed576040517f08c379a00000000000000000000000000000000000000000000000000000000081526004016106e490612991565b60405180910390fd5b8073ffffffffffffffffffffffffffffffffffffffff1661070c6110ff565b73ffffffffffffffffffffffffffffffffffffffff16148061073b575061073a816107356110ff565b610e9d565b5b61077a576040517f08c379a000000000000000000000000000000000000000000000000000000000815260040161077190612851565b60405180910390fd5b6107848383611107565b505050565b61079a6107946110ff565b826111c0565b6107d9576040517f08c379a00000000000000000000000000000000000000000000000000000000081526004016107d0906129b1565b60405180910390fd5b6107e483838361129e565b505050565b61080483838360405180602001604052806000815250610e29565b505050565b6002600754141561084f576040517f08c379a0000000000000000000000000000000000000000000000000000000008152600401610846906129d1565b60405180910390fd5b600260078190555061086c816009546114fa90919063ffffffff16565b3410156108ae576040517f08c379a00000000000000000000000000000000000000000000000000000000081526004016108a5906128b1565b60405180910390fd5b6108b734611510565b60005b818110156108f2576108d5836108d06008611854565b611862565b6108df6008611880565b80806108ea90612ce5565b9150506108ba565b5060016007819055505050565b6000806002600084815260200190815260200160002060009054906101000a900473ffffffffffffffffffffffffffffffffffffffff169050600073ffffffffffffffffffffffffffffffffffffffff168173ffffffffffffffffffffffffffffffffffffffff1614156109a8576040517f08c379a000000000000000000000000000000000000000000000000000000000815260040161099f90612891565b60405180910390fd5b80915050919050565b60095481565b60008073ffffffffffffffffffffffffffffffffffffffff168273ffffffffffffffffffffffffffffffffffffffff161415610a28576040517f08c379a0000000000000000000000000000000000000000000000000000000008152600401610a1f90612871565b60405180910390fd5b600360008373ffffffffffffffffffffffffffffffffffffffff1673ffffffffffffffffffffffffffffffffffffffff168152602001908152602001600020549050919050565b610a776110ff565b73ffffffffffffffffffffffffffffffffffffffff16610a95610af7565b73ffffffffffffffffffffffffffffffffffffffff1614610aeb576040517f08c379a0000000000000000000000000000000000000000000000000000000008152600401610ae290612911565b60405180910390fd5b610af56000611896565b565b6000600660009054906101000a900473ffffffffffffffffffffffffffffffffffffffff16905090565b606060018054610b3090612c82565b80601f0160208091040260200160405190810160405280929190818152602001828054610b5c90612c82565b8015610ba95780601f10610b7e57610100808354040283529160200191610ba9565b820191906000526020600020905b815481529060010190602001808311610b8c57829003601f168201915b5050505050905090565b60026007541415610bf9576040517f08c379a0000000000000000000000000000000000000000000000000000000008152600401610bf0906129d1565b60405180910390fd5b6002600781905550610c16816009546114fa90919063ffffffff16565b341015610c58576040517f08c379a0000000000000000000000000000000000000000000000000000000008152600401610c4f906128b1565b60405180910390fd5b610c6134611510565b60005b81811015610c9c57610c7f33610c7a6008611854565b611862565b610c896008611880565b8080610c9490612ce5565b915050610c64565b50600160078190555050565b610cb06110ff565b73ffffffffffffffffffffffffffffffffffffffff168273ffffffffffffffffffffffffffffffffffffffff161415610d1e576040517f08c379a0000000000000000000000000000000000000000000000000000000008152600401610d1590612811565b60405180910390fd5b8060056000610d2b6110ff565b73ffffffffffffffffffffffffffffffffffffffff1673ffffffffffffffffffffffffffffffffffffffff16815260200190815260200160002060008473ffffffffffffffffffffffffffffffffffffffff1673ffffffffffffffffffffffffffffffffffffffff16815260200190815260200160002060006101000a81548160ff0219169083151502179055508173ffffffffffffffffffffffffffffffffffffffff16610dd86110ff565b73ffffffffffffffffffffffffffffffffffffffff167f17307eab39ab6107e8899845ad3d59bd9653f200f220920489ca2b5937696c3183604051610e1d9190612739565b60405180910390a35050565b610e3a610e346110ff565b836111c0565b610e79576040517f08c379a0000000000000000000000000000000000000000000000000000000008152600401610e70906129b1565b60405180910390fd5b610e858484848461195c565b50505050565b6060610e96826119b8565b9050919050565b6000600560008473ffffffffffffffffffffffffffffffffffffffff1673ffffffffffffffffffffffffffffffffffffffff16815260200190815260200160002060008373ffffffffffffffffffffffffffffffffffffffff1673ffffffffffffffffffffffffffffffffffffffff16815260200190815260200160002060009054906101000a900460ff16905092915050565b610f396110ff565b73ffffffffffffffffffffffffffffffffffffffff16610f57610af7565b73ffffffffffffffffffffffffffffffffffffffff1614610fad576040517f08c379a0000000000000000000000000000000000000000000000000000000008152600401610fa490612911565b60405180910390fd5b600073ffffffffffffffffffffffffffffffffffffffff168173ffffffffffffffffffffffffffffffffffffffff16141561101d576040517f08c379a0000000000000000000000000000000000000000000000000000000008152600401611014906127b1565b60405180910390fd5b61102681611896565b50565b60007f01ffc9a7000000000000000000000000000000000000000000000000000000007bffffffffffffffffffffffffffffffffffffffffffffffffffffffff1916827bffffffffffffffffffffffffffffffffffffffffffffffffffffffff1916149050919050565b60008073ffffffffffffffffffffffffffffffffffffffff166002600084815260200190815260200160002060009054906101000a900473ffffffffffffffffffffffffffffffffffffffff1673ffffffffffffffffffffffffffffffffffffffff1614159050919050565b600033905090565b816004600083815260200190815260200160002060006101000a81548173ffffffffffffffffffffffffffffffffffffffff021916908373ffffffffffffffffffffffffffffffffffffffff160217905550808273ffffffffffffffffffffffffffffffffffffffff1661117a836108ff565b73ffffffffffffffffffffffffffffffffffffffff167f8c5be1e5ebec7d5bd14f71427d1e84f3dd0314c0f7b2291e5b200ac8c7c3b92560405160405180910390a45050565b60006111cb82611093565b61120a576040517f08c379a000000000000000000000000000000000000000000000000000000000815260040161120190612831565b60405180910390fd5b6000611215836108ff565b90508073ffffffffffffffffffffffffffffffffffffffff168473ffffffffffffffffffffffffffffffffffffffff16148061128457508373ffffffffffffffffffffffffffffffffffffffff1661126c846105ec565b73ffffffffffffffffffffffffffffffffffffffff16145b8061129557506112948185610e9d565b5b91505092915050565b8273ffffffffffffffffffffffffffffffffffffffff166112be826108ff565b73ffffffffffffffffffffffffffffffffffffffff1614611314576040517f08c379a000000000000000000000000000000000000000000000000000000000815260040161130b90612931565b60405180910390fd5b600073ffffffffffffffffffffffffffffffffffffffff168273ffffffffffffffffffffffffffffffffffffffff161415611384576040517f08c379a000000000000000000000000000000000000000000000000000000000815260040161137b906127f1565b60405180910390fd5b61138f838383611a5f565b61139a600082611107565b6001600360008573ffffffffffffffffffffffffffffffffffffffff1673ffffffffffffffffffffffffffffffffffffffff16815260200190815260200160002060008282546113ea9190612b86565b925050819055506001600360008473ffffffffffffffffffffffffffffffffffffffff1673ffffffffffffffffffffffffffffffffffffffff16815260200190815260200160002060008282546114419190612aa5565b92505081905550816002600083815260200190815260200160002060006101000a81548173ffffffffffffffffffffffffffffffffffffffff021916908373ffffffffffffffffffffffffffffffffffffffff160217905550808273ffffffffffffffffffffffffffffffffffffffff168473ffffffffffffffffffffffffffffffffffffffff167fddf252ad1be2c89b69c2b068fc378daa952ba7f163c4a11628f55a4df523b3ef60405160405180910390a4505050565b600081836115089190612b2c565b905092915050565b336000813b905060008163ffffffff1614611560576040517f08c379a000000000000000000000000000000000000000000000000000000000815260040161155790612951565b60405180910390fd5b60006040518060600160405280733b99e794378bd057f3ad7aea9206fb6c01f3ee6073ffffffffffffffffffffffffffffffffffffffff1681526020016040518060400160405280600681526020017f61727469737400000000000000000000000000000000000000000000000000008152508152602001601981525090506000604051806060016040528073575cbc1d88c266b18f1bb221c1a1a79a55a3d3be73ffffffffffffffffffffffffffffffffffffffff1681526020016040518060400160405280600981526020017f646576656c6f706572000000000000000000000000000000000000000000000081525081526020016019815250905060006040518060600160405280600a60009054906101000a900473ffffffffffffffffffffffffffffffffffffffff1673ffffffffffffffffffffffffffffffffffffffff16636352211e61015a6040518263ffffffff1660e01b81526004016116c89190612754565b60206040518083038186803b1580156116e057600080fd5b505afa1580156116f4573d6000803e3d6000fd5b505050506040513d601f19601f8201168201806040525081019061171891906120ec565b73ffffffffffffffffffffffffffffffffffffffff1681526020016040518060400160405280600d81526020017f6f776e6572206f662023333436000000000000000000000000000000000000008152508152602001603281525090506000604051806060016040528085815260200184815260200183815250905060005b600381101561184a5760008282600381106117b5576117b4612dec565b5b602002015190506000816000015190508073ffffffffffffffffffffffffffffffffffffffff166108fc61180960646117fb86604001518f6114fa90919063ffffffff16565b611a6490919063ffffffff16565b9081150290604051600060405180830381858888f19350505050158015611834573d6000803e3d6000fd5b505050808061184290612ce5565b915050611797565b5050505050505050565b600081600001549050919050565b61187c828260405180602001604052806000815250611a7a565b5050565b6001816000016000828254019250508190555050565b6000600660009054906101000a900473ffffffffffffffffffffffffffffffffffffffff16905081600660006101000a81548173ffffffffffffffffffffffffffffffffffffffff021916908373ffffffffffffffffffffffffffffffffffffffff1602179055508173ffffffffffffffffffffffffffffffffffffffff168173ffffffffffffffffffffffffffffffffffffffff167f8be0079c531659141344cd1fd0a4f28419497f9722a3daafe3b4186f6b6457e060405160405180910390a35050565b61196784848461129e565b61197384848484611ad5565b6119b2576040517f08c379a00000000000000000000000000000000000000000000000000000000081526004016119a990612791565b60405180910390fd5b50505050565b60606119c382611093565b611a02576040517f08c379a00000000000000000000000000000000000000000000000000000000081526004016119f990612971565b60405180910390fd5b6000611a0c611c6c565b90506000815111611a2c5760405180602001604052806000815250611a57565b80611a3684611c8f565b604051602001611a479291906126ae565b6040516020818303038152906040525b915050919050565b505050565b60008183611a729190612afb565b905092915050565b611a848383611df0565b611a916000848484611ad5565b611ad0576040517f08c379a0000000000000000000000000000000000000000000000000000000008152600401611ac790612791565b60405180910390fd5b505050565b6000611af68473ffffffffffffffffffffffffffffffffffffffff16611fbe565b15611c5f578373ffffffffffffffffffffffffffffffffffffffff1663150b7a02611b1f6110ff565b8786866040518563ffffffff1660e01b8152600401611b4194939291906126ed565b602060405180830381600087803b158015611b5b57600080fd5b505af1925050508015611b8c57506040513d601f19601f82011682018060405250810190611b8991906122dc565b60015b611c0f573d8060008114611bbc576040519150601f19603f3d011682016040523d82523d6000602084013e611bc1565b606091505b50600081511415611c07576040517f08c379a0000000000000000000000000000000000000000000000000000000008152600401611bfe90612791565b60405180910390fd5b805181602001fd5b63150b7a0260e01b7bffffffffffffffffffffffffffffffffffffffffffffffffffffffff1916817bffffffffffffffffffffffffffffffffffffffffffffffffffffffff191614915050611c64565b600190505b949350505050565b606060405180612c200160405280612bf6815260200161339f612bf69139905090565b60606000821415611cd7576040518060400160405280600181526020017f30000000000000000000000000000000000000000000000000000000000000008152509050611deb565b600082905060005b60008214611d09578080611cf290612ce5565b915050600a82611d029190612afb565b9150611cdf565b60008167ffffffffffffffff811115611d2557611d24612e1b565b5b6040519080825280601f01601f191660200182016040528015611d575781602001600182028036833780820191505090505b5090505b60008514611de457600182611d709190612b86565b9150600a85611d7f9190612d2e565b6030611d8b9190612aa5565b60f81b818381518110611da157611da0612dec565b5b60200101907effffffffffffffffffffffffffffffffffffffffffffffffffffffffffffff1916908160001a905350600a85611ddd9190612afb565b9450611d5b565b8093505050505b919050565b600073ffffffffffffffffffffffffffffffffffffffff168273ffffffffffffffffffffffffffffffffffffffff161415611e60576040517f08c379a0000000000000000000000000000000000000000000000000000000008152600401611e57906128d1565b60405180910390fd5b611e6981611093565b15611ea9576040517f08c379a0000000000000000000000000000000000000000000000000000000008152600401611ea0906127d1565b60405180910390fd5b611eb560008383611a5f565b6001600360008473ffffffffffffffffffffffffffffffffffffffff1673ffffffffffffffffffffffffffffffffffffffff1681526020019081526020016000206000828254611f059190612aa5565b92505081905550816002600083815260200190815260200160002060006101000a81548173ffffffffffffffffffffffffffffffffffffffff021916908373ffffffffffffffffffffffffffffffffffffffff160217905550808273ffffffffffffffffffffffffffffffffffffffff16600073ffffffffffffffffffffffffffffffffffffffff167fddf252ad1be2c89b69c2b068fc378daa952ba7f163c4a11628f55a4df523b3ef60405160405180910390a45050565b600080823b905060008111915050919050565b6000611fe4611fdf84612a31565b612a0c565b90508281526020810184848401111561200057611fff612e4f565b5b61200b848285612c40565b509392505050565b60008135905061202281613342565b92915050565b60008151905061203781613342565b92915050565b60008135905061204c81613359565b92915050565b60008135905061206181613370565b92915050565b60008151905061207681613370565b92915050565b600082601f83011261209157612090612e4a565b5b81356120a1848260208601611fd1565b91505092915050565b6000813590506120b981613387565b92915050565b6000602082840312156120d5576120d4612e59565b5b60006120e384828501612013565b91505092915050565b60006020828403121561210257612101612e59565b5b600061211084828501612028565b91505092915050565b600080604083850312156121305761212f612e59565b5b600061213e85828601612013565b925050602061214f85828601612013565b9150509250929050565b60008060006060848603121561217257612171612e59565b5b600061218086828701612013565b935050602061219186828701612013565b92505060406121a2868287016120aa565b9150509250925092565b600080600080608085870312156121c6576121c5612e59565b5b60006121d487828801612013565b94505060206121e587828801612013565b93505060406121f6878288016120aa565b925050606085013567ffffffffffffffff81111561221757612216612e54565b5b6122238782880161207c565b91505092959194509250565b6000806040838503121561224657612245612e59565b5b600061225485828601612013565b92505060206122658582860161203d565b9150509250929050565b6000806040838503121561228657612285612e59565b5b600061229485828601612013565b92505060206122a5858286016120aa565b9150509250929050565b6000602082840312156122c5576122c4612e59565b5b60006122d384828501612052565b91505092915050565b6000602082840312156122f2576122f1612e59565b5b600061230084828501612067565b91505092915050565b60006020828403121561231f5761231e612e59565b5b600061232d848285016120aa565b91505092915050565b61233f81612bba565b82525050565b61234e81612bcc565b82525050565b600061235f82612a62565b6123698185612a78565b9350612379818560208601612c4f565b61238281612e5e565b840191505092915050565b61239681612c2e565b82525050565b60006123a782612a6d565b6123b18185612a89565b93506123c1818560208601612c4f565b6123ca81612e5e565b840191505092915050565b60006123e082612a6d565b6123ea8185612a9a565b93506123fa818560208601612c4f565b80840191505092915050565b6000612413603283612a89565b915061241e82612e6f565b604082019050919050565b6000612436602683612a89565b915061244182612ebe565b604082019050919050565b6000612459601c83612a89565b915061246482612f0d565b602082019050919050565b600061247c602483612a89565b915061248782612f36565b604082019050919050565b600061249f601983612a89565b91506124aa82612f85565b602082019050919050565b60006124c2602c83612a89565b91506124cd82612fae565b604082019050919050565b60006124e5603883612a89565b91506124f082612ffd565b604082019050919050565b6000612508602a83612a89565b91506125138261304c565b604082019050919050565b600061252b602983612a89565b91506125368261309b565b604082019050919050565b600061254e601183612a89565b9150612559826130ea565b602082019050919050565b6000612571602083612a89565b915061257c82613113565b602082019050919050565b6000612594602c83612a89565b915061259f8261313c565b604082019050919050565b60006125b7602083612a89565b91506125c28261318b565b602082019050919050565b60006125da602983612a89565b91506125e5826131b4565b604082019050919050565b60006125fd601983612a89565b915061260882613203565b602082019050919050565b6000612620602f83612a89565b915061262b8261322c565b604082019050919050565b6000612643602183612a89565b915061264e8261327b565b604082019050919050565b6000612666603183612a89565b9150612671826132ca565b604082019050919050565b6000612689601f83612a89565b915061269482613319565b602082019050919050565b6126a881612c24565b82525050565b60006126ba82856123d5565b91506126c682846123d5565b91508190509392505050565b60006020820190506126e76000830184612336565b92915050565b60006080820190506127026000830187612336565b61270f6020830186612336565b61271c604083018561269f565b818103606083015261272e8184612354565b905095945050505050565b600060208201905061274e6000830184612345565b92915050565b6000602082019050612769600083018461238d565b92915050565b60006020820190508181036000830152612789818461239c565b905092915050565b600060208201905081810360008301526127aa81612406565b9050919050565b600060208201905081810360008301526127ca81612429565b9050919050565b600060208201905081810360008301526127ea8161244c565b9050919050565b6000602082019050818103600083015261280a8161246f565b9050919050565b6000602082019050818103600083015261282a81612492565b9050919050565b6000602082019050818103600083015261284a816124b5565b9050919050565b6000602082019050818103600083015261286a816124d8565b9050919050565b6000602082019050818103600083015261288a816124fb565b9050919050565b600060208201905081810360008301526128aa8161251e565b9050919050565b600060208201905081810360008301526128ca81612541565b9050919050565b600060208201905081810360008301526128ea81612564565b9050919050565b6000602082019050818103600083015261290a81612587565b9050919050565b6000602082019050818103600083015261292a816125aa565b9050919050565b6000602082019050818103600083015261294a816125cd565b9050919050565b6000602082019050818103600083015261296a816125f0565b9050919050565b6000602082019050818103600083015261298a81612613565b9050919050565b600060208201905081810360008301526129aa81612636565b9050919050565b600060208201905081810360008301526129ca81612659565b9050919050565b600060208201905081810360008301526129ea8161267c565b9050919050565b6000602082019050612a06600083018461269f565b92915050565b6000612a16612a27565b9050612a228282612cb4565b919050565b6000604051905090565b600067ffffffffffffffff821115612a4c57612a4b612e1b565b5b612a5582612e5e565b9050602081019050919050565b600081519050919050565b600081519050919050565b600082825260208201905092915050565b600082825260208201905092915050565b600081905092915050565b6000612ab082612c24565b9150612abb83612c24565b9250827fffffffffffffffffffffffffffffffffffffffffffffffffffffffffffffffff03821115612af057612aef612d5f565b5b828201905092915050565b6000612b0682612c24565b9150612b1183612c24565b925082612b2157612b20612d8e565b5b828204905092915050565b6000612b3782612c24565b9150612b4283612c24565b9250817fffffffffffffffffffffffffffffffffffffffffffffffffffffffffffffffff0483118215151615612b7b57612b7a612d5f565b5b828202905092915050565b6000612b9182612c24565b9150612b9c83612c24565b925082821015612baf57612bae612d5f565b5b828203905092915050565b6000612bc582612c04565b9050919050565b60008115159050919050565b60007fffffffff0000000000000000000000000000000000000000000000000000000082169050919050565b600073ffffffffffffffffffffffffffffffffffffffff82169050919050565b6000819050919050565b6000612c3982612c24565b9050919050565b82818337600083830152505050565b60005b83811015612c6d578082015181840152602081019050612c52565b83811115612c7c576000848401525b50505050565b60006002820490506001821680612c9a57607f821691505b60208210811415612cae57612cad612dbd565b5b50919050565b612cbd82612e5e565b810181811067ffffffffffffffff82111715612cdc57612cdb612e1b565b5b80604052505050565b6000612cf082612c24565b91507fffffffffffffffffffffffffffffffffffffffffffffffffffffffffffffffff821415612d2357612d22612d5f565b5b600182019050919050565b6000612d3982612c24565b9150612d4483612c24565b925082612d5457612d53612d8e565b5b828206905092915050565b7f4e487b7100000000000000000000000000000000000000000000000000000000600052601160045260246000fd5b7f4e487b7100000000000000000000000000000000000000000000000000000000600052601260045260246000fd5b7f4e487b7100000000000000000000000000000000000000000000000000000000600052602260045260246000fd5b7f4e487b7100000000000000000000000000000000000000000000000000000000600052603260045260246000fd5b7f4e487b7100000000000000000000000000000000000000000000000000000000600052604160045260246000fd5b600080fd5b600080fd5b600080fd5b600080fd5b6000601f19601f8301169050919050565b7f4552433732313a207472616e7366657220746f206e6f6e20455243373231526560008201527f63656976657220696d706c656d656e7465720000000000000000000000000000602082015250565b7f4f776e61626c653a206e6577206f776e657220697320746865207a65726f206160008201527f6464726573730000000000000000000000000000000000000000000000000000602082015250565b7f4552433732313a20746f6b656e20616c7265616479206d696e74656400000000600082015250565b7f4552433732313a207472616e7366657220746f20746865207a65726f2061646460008201527f7265737300000000000000000000000000000000000000000000000000000000602082015250565b7f4552433732313a20617070726f766520746f2063616c6c657200000000000000600082015250565b7f4552433732313a206f70657261746f7220717565727920666f72206e6f6e657860008201527f697374656e7420746f6b656e0000000000000000000000000000000000000000602082015250565b7f4552433732313a20617070726f76652063616c6c6572206973206e6f74206f7760008201527f6e6572206e6f7220617070726f76656420666f7220616c6c0000000000000000602082015250565b7f4552433732313a2062616c616e636520717565727920666f7220746865207a6560008201527f726f206164647265737300000000000000000000000000000000000000000000602082015250565b7f4552433732313a206f776e657220717565727920666f72206e6f6e657869737460008201527f656e7420746f6b656e0000000000000000000000000000000000000000000000602082015250565b7f6e6f7420656e6f75676820657468657273000000000000000000000000000000600082015250565b7f4552433732313a206d696e7420746f20746865207a65726f2061646472657373600082015250565b7f4552433732313a20617070726f76656420717565727920666f72206e6f6e657860008201527f697374656e7420746f6b656e0000000000000000000000000000000000000000602082015250565b7f4f776e61626c653a2063616c6c6572206973206e6f7420746865206f776e6572600082015250565b7f4552433732313a207472616e73666572206f6620746f6b656e2074686174206960008201527f73206e6f74206f776e0000000000000000000000000000000000000000000000602082015250565b7f636f6e74726163747320617265206e6f7420616c6c6f77656400000000000000600082015250565b7f4552433732314d657461646174613a2055524920717565727920666f72206e6f60008201527f6e6578697374656e7420746f6b656e0000000000000000000000000000000000602082015250565b7f4552433732313a20617070726f76616c20746f2063757272656e74206f776e6560008201527f7200000000000000000000000000000000000000000000000000000000000000602082015250565b7f4552433732313a207472616e736665722063616c6c6572206973206e6f74206f60008201527f776e6572206e6f7220617070726f766564000000000000000000000000000000602082015250565b7f5265656e7472616e637947756172643a207265656e7472616e742063616c6c00600082015250565b61334b81612bba565b811461335657600080fd5b50565b61336281612bcc565b811461336d57600080fd5b50565b61337981612bd8565b811461338457600080fd5b50565b61339081612c24565b811461339b57600080fd5b5056fe646174613a6170706c69636174696f6e2f6a736f6e3b6261736536342c65776f6749434167496d3568625755694f6941695647686c49464e765a6e5167516d6c6b494564316553497343694167494341695a47567a59334a7063485270623234694f6941696148523063484d364c79393562335679596d6c6b6333566a61334d756433526d4948776754334a705a326c7559577767516d7870644731686343424a52446f67497a4d304e6949734369416749434169615731685a3255694f6941695a474630595470706257466e5a53397a646d6372654731734f324a68633255324e43785153453479576e6c434d6c7059536e7068567a6c3155464e4a6545787153576c4a5230706f597a4a5755574e744f5731685633687355464e4b4d4746584e54564d57454a3653576c434e474a586548566a656a4270595568534d474e4562335a4d4d32517a5a486b314d3031354e585a6a62574e3254577042643031444f58706b62574e7053556861634670595a454e694d326335535770425a3031445158704e616b466e5458704a64306c70516a4e685631497759555177615531365658644a61554a76576c6473626d464955546c4a616b307854554e4a4b314249556e426b523368735547317364466c585a477851517a6b7759566853633170554e44686152315a7459336f304f4746584d5768614d6c566e5756684b63466c544d584e5a56307073596b5177615664584f54466a61554a70595664525a3246595457646a4d6a686e597a493562575244516a42685230597754476b3064556c705157646b4d6d78725a45646e4f556c7153544e4e55306c6e5955645763466f796144425155306c3554586c4a5a32465855546c4a62577830576e704661556c4861486c6156316b35535731536147524852545a68567a466f576a4a56646d4e484e5735504d6b706f597a4a564d6b354465484257613070515657356a64314d775a4735694d455a435556564754315578566d3953566c5a7555565647516c565561454a5256555a435630564f516c5256526b4a5256555a775556687764315177526b4a5256555a435630553156465671516b7052616b707159544e4f62575177526b4a525657527a56565a5352315672576b4a5256555a4354486b34646b78354f485a4d6554683254486b34646b78354f485a4d6554683254486b34646b78354f485a4d6554683254486b34646b78354f485a4d6554683254444e5a4d3074354f485a4d6554683254486b34646b78354f485a4d6554683254486b34646d527159334a4d4d316b7a53336b34646b78354f485a6b616d4e7954486b34646b78354f544a4f65584e3254486b34646b78354f485a4d65546b79546e6c7a646b78354f485a4d6554683254486b34646b78354f485a4d6554683254486b34646b78354f544a4f65584e325a47706a636b78354f485a4d6554683254486b34646b78354f485a4d6554683254444a30546d4e58576b646b4d455a435556564f54303147566e4a4f566c4a43556c5646646c4a56546b4a6b65546777556b56474d6b35365a473558565842465a444e764e5573795933645452553574576d704a4e465a47566c4a6a5257524d556b5253625530785a3364566131497a5956567756467049516b565256555a435554426b526d4a46566c4a5762456b77596d733465566458576c6c615655354b5557785353466f78614531525745704f5a56637861566c595654564e5631707454444a30516c5256576a465662564a475632704b566d527363445a4f557a6c6156444a615246707353544e50526b7054546c5a4362314a72556b684e6132777a565655786331707361473952574768535556646f4d553149617a566c52476831595774616356557862444e6b52574e355645644b65553949526a564e56453568545778734d6c4578556b5a69526c705a593235464d574657546b78554d455a46576b684752324a555a335a57566d527655323176636b3078556b526b52334233566c5a6b62566c745258646852546c4655305257646c4e47516b7458616b5a72596b5535536b3945516e4650525842345654426e4d566f77576e466b62476436556c6457556d46544f5552574d6a5677576a466f566c647261484e524d4777305a444a6b524652365658684f523352455a473577526c5272644778566254417a565564576555307961336c586245705657565535656c7045546b7057617a4670575449304d325273556e465a61306f78556d784f65574a495a45746c52336833544870435331524662445a55626c5a595956524357474a59536e4a53523145315954424f5455307a516e466b4d6a417a5930525351314636566b5661565852445631686f546c52724e58425552564a7459564d355632525665466c4f574842325444426f536d4e466346566a62555a79566d357355565671556e6c5756565a4d5a556852636c7073535446575257786f5957704b63574e36546d315452577873576b684b554664556145354f56316b77556c526f566d4e45597a4e56525659315930646f566c70724f5442566247777a566a4277626c557962473558534842515632357764564e46644670694d446c61544442466546497a566d3969526c56325a466457544645794d5646685247525756555673536c4a46614846695345354855337053513039486145526b52475130537a4e6b51314e56637a5657626d687054555257536c6b7a556b31564d6a46445955524761314656654731534d565a5355573543616d4659526e52554d32684d564663354e55355664466c6c6255707359565a464d6c5a59516a525852325257575446424d46525661486c57526c5a4d5a47706b52475236617a425a56303544596c567762325671536b56694d48643254565a6b536c4e74536c4a4d4d44563154305647634670565a7a4e616254464b56544e474d464e56617a5669526c70575931647755564977556b315462476877597a4e6f554664706447785556555a59553273315656557a546a425562546b31596c564762466447546e5661526b4a4e5631684f616d56755a46704f615852455657354f61453148576d684e527a6c73556b5247655539585a4746556130704a596d786b64316b77556a464e57453559576e6c30616b7778515868575232524b576c564b62575648576a5668526c5a455530684e656c4978536b3156527a4131566c524f64324a74566a5a5757465a45576b526b54317055566d686156314a565a5664616456597a556c46545747777854486b344d4746456145746a624774795455645a64307378576b686b615852725554466f5655777764484e6c53454a4c54306846656c4a55617a525862576377566b56534e564a3661444a6856453179596b565763453556644556534d477732596c68464e467072526b314f5257773056444a724d6d5249536c46536255354355565647516c4657546c5a57617a6c5455337057524664566245705155306c325547703463474a58526d356155304a6f59323173614578586547685a62565a7a55464e4a645578704e5456694d31566e595564474d6c7054516d6c6156315a315355686163474d79624442615631466e5757357261556c44516a4e685631497759555177615531715a7a424a61554a76576c6473626d464955546c4a616b6b3153576c43634670454d476c68567a467554576c4a5a324649536d7861616a4270576b64474d466c556348426956305a75576c4d3564324a74597a645a62555a36576c525a4d45784862466452617a6c545a487043544649795a485a5256555a435556553156465a5861455a57563252435556564755325177526b4a5256555a7255544247546c4656526b4a5262454a435654464352564656526b4a5256555a5a5647784f5530314662454e4e62553579597a4a614d314656526b4a534d6e6853566b566155314a72526b4a525655563254486b34646b78354f485a4d6554683254486b34646b78354f485a4d6554683254486b34646b78354f485a4d6554683254486b34646b78354f485a4d655468325a47706a636b78354f485a4d6554683254486b34646b78354f485a4d6554683254486b34646b78354f485a6b616d4e7954486b34646b78354f485a4d655468325a47706a636b777a57544e4c65546b79546e6c7a646b78354f485a4d6554683254486b34646b78354f485a4d6554683254444e5a4d3074354f485a4d655468325a47706a636b78354f485a4d6554683254486b34646b78354f485a4d6554683254486b34646b78354f485a4d655468325647786f64474d7a546d355256555a435554413064315a58637a465752555a4455564d35556c4577526a4e4d656c4a465556685a4e564674597a42546131497a5754423452466f795754464d4d6c7045566d7457566c5646556b706152306b30543064574d6c5a71556c4e5352555a345955526f54566c7262454a5256555a45566b5a5763314a57526c6456616c4a315648704b576b3573634578524d44464455544257536b3158566b52544d486778595664564e474e5856544e4d655852535658705763564a596345746852586844563152736145357353584a574d48424a566b5a424d5646724f58465362553561556a4a4764316471516c426a4d6a4668576b684f59574d79526b6c69566d4e355a5664344e564d7761335a58565446315a565a43536b31724d57706a526c5a59596d317a4d575673546a56525631705a556d704f61464d7761454e54566b70495430645a656c5177556b3153656b4a715454424f52465a444f56526153474d77596d704f54316f775654464c656d5276576c565357564672546d786852303571557a424b4d453557536d7469527a6c535657745351316b7a6248566b56555a715a56565264324e47576c52574d565930557a464753316445536c4a4e4d6d684d596d317a4d574e4962484e544d6c4a49556c684365574a566347466852575279597a467756315a36566b35526254564e597a4e524d3252746145395752555a49566d74564d453159566b7456523252795647747355465177556d355361307054546c56305132567265464a6b56556f7a596d746b526c45795a7a52565258424e5a44423053565a7261484a4f52576832546c6434536c6446526d785a4d565a6f543164574e6b3948546e466a616b30775758706f516c4e7551545257523268595557787352475645526e6c5053455a4a5557786b625646725a455a6b4d33427a56315a57634535715254526a4d453544556d744753314e48546c42534d304a435930566b556d4d794f5556545657524c5a564e305546525561444e5452564a515a444e724e46467465455a56626d526156444a6b57465178617a4a5756565a465a47704f64303947576a42545747787156444e47554656455758644c4d453134596a4e4b61324646546b4e696130706856327447623031564f57354f62553477553274616146705962445a6a6248427656444257516b7778516b784e523342565530686b54474a7252586468624530305a5664534e4751774e544253526d5248576c5657616d5274566d314f523149325756644f526d4979576e464c656d52575a56647265467055576b356a5347686f5a5774526556597a566d465262555a7359316861516c7072526c685765546c355454427352553547546c566b65584e335557733552566448546d70574d565577575446734d55777962484e69564768745a4441314e475179644568566132687859577335513256736245684f55335230546c52434d325245597a4e57616d5274545774344d553947566b4e6b52565a36595778726547524864484e6a61546c475954464f623152724d585257656c5a4f5a47785665574e7162477857656b357a55315a73536b35576248565462465a55576d354356564e71526c6453625559785756565264303158576c4e57534768705a4735764d6b35475458705662577731596c56734d315a365a486852625868475657356b576c4d794e5652696255705654486b3464315979566a4e575348423156556861656d523661457855526b5a70576c553552574e36566a4a575645355a566a4a6b564535726145744d656c7051576e707364303956526b565861546c30576d3034636c6b794e56425362565a475531524b4d315577617a52534d326331576a4e575356467361473168566d52525a44425759575177526d7050574646355532354f5955777a5654565762564a74596c564a4d57465556545657517a6c5859327461525573795a4852554d6b30305632356f53574a7352585a5a4d6d67325645524357574a715a47684e4d6e4e3257544e574e464e73536b4e554d6b35455631525761565257556d3557616b5579596a4e56656c52746445396856584179556d6b354d314e466446466952316c33556d7877644756556247355256555a435556564b5331567356544653574570795532316b626c70364d446c4a615467725545647364466c585a47784a52305a355956644664474a48526d6c61563363355357785362317054516b686b5747746e5654493562575244643264544d6d7831576e6c43646c7070516d706b5630357959336c4a5a306c495a48426153464a7655464e4a656b314552576c4a523268735956646b623252454d476c4e616d74705355647361314254536e426956324e3653576c4362324e74566d31515530707257566853614539746248525a5632527354444e436456703664476c5a57453573546d705263324657576b4e554d556f7a5455563053466f794f554a5256555a435647784f566d4646566c5a614d455a4355565a4e64314656526b4a5256314a4555565578516c4656526b56545654464f59327461516c4656526b4a52566d68505654464a64314e5653586c5a4d6e5236576d356b516c4656526b645662455a56556d784b52314656526b4a52557a683254486b34646b78354f485a4d6554683254486b34646b78354f485a4d6554683254486b34646b78354f485a4d6554683254486b34646b777a57544e4c6554683254486b34646b78354f485a4d4d316b7a53336b34646b78354f485a4d6554683254444e5a4d3074354f485a4d655468325a47706a636b78354f485a4d6554683254486b34646b78354f485a4d4d316b7a53336b354d6b353563335a4d6554683254486b34646b78354f485a4d6554683254486b34646b78354f485a4d4d57686854315261616c4656526b4a5256556f3054555a57636b3557556b4a53565556325646564b516c70354f4452524d45563356455273626b3136566b566b656d4e3655544e6b646c517753585a69616d63315a47784352314a5962444a6157475268546c4d35556c4656526b4a544d6c7055566c5a4b51315a726148425a656d5268596d354b62474e564d57355356577861596b5677636c5247536e6453656b4633546d786b615531354f54465057484258566c52534e6d5236516b6454563170565757354b65575244644731576132785a546c646f63566b77556b5a6953454a58546a413551315a5757545261626b45775456646f52317047526c526b52564579576b525355453571516c565a6131557a555870474d466455516b746a566d7331546c647363574e564d58645362555a4e556c567762474e48647a466a56464a55546b5531526c4e354f567050565446475658707365564636566c6855526b5a58597a4253636c4e75617a4a4e57454a5656465a7763574675526b706b56565579596d7461536d5257536e4e4f626b5a57566e706b4d6c4e5962466869557a6c595431563062324e56627a466862555a56576a4e4f61566c556245395456305a78597a4e53615652495a4864574d3170765930566165453155614668505657684754565261566c49794d54565862555a77556b567756564a59526b5a565647684d56544a53563249794d55785a565842315931684b61465a736348425a56454a7a556a464b63466c56617a566c56317058596a464b57464d7a6348705752454a4c5a465677636c6c744e58686c62465a565a57743064303159576e5661566d684856573553526b35756133706162566f7a5a48706161315636546c686862584e35576c5a5365466449516a465756465a515a56524763575655516e6c615633687756555a4f544531495a45355756466f77564656474e575248597a426b52314635556d315264314e464f5646576257524f546d7473523249795a453958566e42335a44464e4d474e475a473950566b7059596b686f55466c59536b39694d317071543168535331567063335a6a656d63315a565a6b4d453078624442574d317073556a42474d6c557a566e4656574659315931685364324978526e4254565670305931686f556c4e59556e4a57566c5a755645525753324a56617a525757454a6f566d707353453536566e4a544d303555546d354f57565a716247785461303431556d3146654659785a7a5256656c5a44576d746a65464a74526b745256305a315a455531556d52444f57316b656c7044596c5a734d324e46536e64615632524c5631553565475675617a4a6a4d6b5a54546a4273563256564d557861525446535932784752566c3662466868566b704e556c5661556c5a45526b645a56325268556c647357474d7761465a6a5646497a56315a7355574672566b6468563268485756686f626c457a556b4a564d303479576a46474d464e75536c526157454a78566d786153553170637a4a58566c7077566b5a614d5752466445686a4d6b307759315a47646b307a556b786c626c4a705657316b534652575a46565756336834595442345531457a566c705761327846566e706f64567055576c4e524d316b77566b68614d325256654656564d575255555668734d45355761465a5552454a73557a4e776147525962444e5a4d5670355a455a6b52474e745a336c68527a6c74556b563065453174566a424f626b6b785a444e4b516c4e73617a52574d47683655586b35556c557a556e564e4d55354e556b564a65557378546b6452656b553059544e4f62565259536c566b53453077566b684b61314a4552585a5657474d78546b566b51324a484f564a574d303535596b686e636c56495a334a5362586849546d704f61453547566c646a626b5a58596a4e7757453155566a4e505254517a5756553563324636576b394e5256704b596d31734d6c6c36614668684d304a325932316f656c4a74556e426952305a4c5932307863307778536d6c58616c5a4e5530684665475673556c6855563368335533706f5656644661485a4e624655795a555a4362465978536d316b57464a31576b5a7755466c55576d314e56565a7a5930684b65475272526b5a6861305a785657357363316449526b6455656b4979545652424d474e7355544a4e4d303079566c686b656c5a746245686b53475249596d316b56324978556c424c4d304578566c567361453077526d6861565570595a455647576d5249556b566b52314634596d707355474e55526b4a5a626b4a30566a464359553147556d396b61584e79576c5a5a65574d7955586c6c616d78765431686f656d4a47566c646a62556c365a476b3465474a585a454a5256555a435557747755315a55566b5a6a6258524c576a4a6b626c42554d476c4d656a513454444a536246707554537451534534775a56643462464275556e706a52305a315355687a5a3251796148426b52315630597a4e4361466b7956545a6a534570735355677764574d796148644e513049335355646163474a48647a5a4a51303572546c526b62466c715257646d55304631597a4a6f64303154516a644a52317077596b64334e6b6c44546d784f56305a715757704e5a325a545158566a4d6d683354576c434e306c48576e42695233633253554e4f61566c55593370505645316e5a6c4e4264574d796148644e655549335355646163474a48647a5a4a51303573543164564e5670556132646d5530453454444e4f4d47565865477851616e68335756685362306c48546e4e5a5745353655464e4b656d46495158644a61554a7255464e4b546b31365358644a524531355455563364306c4554586c4e5258643353555243545531365358644a52454a4e5458704a64306c4554586c4e526d397053554d344b314249516d686b5232646e57544a3461474d7a54546c4a626b35765930524661556c4855546c4a617a4236545770425a3031716133645552456b3154554e4265553955516b314e616d74335355524a4e45314664336c4f656b466e5457706e6431524553544e4e51304635546e7043545531715558644a52456b7a54555633655535455157644e616c6c335645524a656b314451586c4f616b4a4e5457704e64306c455354464e52586435545552425a3031715658645552456c3354554e4265553545516b314e56466c335355524a4d4531466433684f616b466e5457704e643152455258704e5130463554587043545531555458644a52456c3554555633654531555157644e616b6c33564552466545314451586c4e56454a4e543052425a30317152586455524764335355524a64303146647a4a4e5130463554555243545535715157644e564774335645525664306c455254564e5258637854554e4265453945516b314e656b466e5456526e643152455458644a5245557954555633655531445158684f616b4a4e545770425a3031555558645552455633535552464d4531466433684e5130463454577043545531715157644e56456c335645524a64306c45613364555245313353555272643152455458644a524764335645525264306c455a336455524646335355526a643152455758644a52474e335645525a64306c4557586455524764335355525a643152455a33644a52465633564552464e5531445154464e52586434543152425a303571516b314e616b31335355525a643152455358704e5130457a54555633655535455157644f656b4a4e5457705264306c455a33645552456b7954554e424e45314664336c4f616b466e54315243545531715a33644a524774335645524a4e4531445158684e52454a4e5457707264306c455258644e52586435543152425a303155525864555245313454554e4265453155516b314e656b563353555246655531466433704e616b466e5456524a6431524554586c4e513046355431524359556c7051585a51616e68335756685362306c48546e4e5a5745353655464e4b656d464951586c4a61554a7255464e4b546b31365358644a5245563454555633656b31555157644e564556335645524e654531445158684e52454a4e5458704264306c455258644e52586436545552425a303955516b314e616d643353555272643152455354524e5130453054555633655535715157645052454a4e5457705a64306c455933645552456b7754554e424d30314664336c4f5245466e546d7043545531715458644a52466c335645524a656b31445154464e52586435545552425a303555516b314e616b463353555252643152455a33644a524646335645526e64306c45565864555246563353555256643152455658644a52466c335645525264306c4557586455524646335355526a643152455358644a52474e335645524a64306c455a336455524556335355526e643152455258644a524556345455563364306c455258684e52586433535552464d5531466433684e51304634546c5243545531555157644e56474e335645524a64306c4552544e4e5258643554554e4265453945516b314e656b466e5456526e643152455458644a52455531545556334d4531445158685056454a4e546b52425a30317151586455524656335355524a64303146647a464e5130463554565243545535365157644e616b56335645526a64306c4553586c4e52586434545552425a303171535864555245563354554e4265553136516b314e564531335355524a656b31466433684e656b466e54577052643152455254464e51304635546b5243545531555658644a52456b7854555633654539555157644e616c5633564552464e55314451586c4f616b4a4e5457704a64306c4553544a4e52586435545770425a3031715933645552456b7754554e4265553536516b314e616c46335355524a4e45314664336c4f616b466e5457706e6431524553544a4e5130463554315243545531716133644a52456b3154555633655539555157644e656b46335645524e654531445158704e52454a4e5458704664306c455458684e52586436545770425a303136525864555245313554554e4265553955516b314e616d74345355524a4e55314664336c505645466e5457706e6431524553544e4e5130463554305243545531715933644a52456b7a54555633655535455257644e616d4e335645524a4d45314451586c4f616b4a4e5457704e64306c4553544a4e52586435545870425a3031715658645552456c3354554e4265553555516b314e616b46335355524a4d4531466433684f616b466e545770526431524552544a4e5130463554587043545531555458684a52456c3654555633654531365157644e616b6c33564552466545314451586c4e616b4a4e5456524664306c455358684e5258633054554e4265553155516b31505245466e54577042643152455758644a52456c33545556334d6b31445158685056454a4e546c52425a3031556133645552465633535552464e4531466433704e5530463454305243545531365157644e56466c335645524a64306c4552544a4e5258643554554e4265453545516b314e5645466e54565252643152455258644a5245563554555633655531445158684e616b4a4e545770425a303955516b314e656b466e54315243545531365157645052454a4e546b52425a303945516b314f5245566e546e7043545535715157644f656b4a4e546d70425a303571516b31505245466e546d7043545539455257644f56454a4e5456527264306c45565864555245553154554e424d6b314664336c4e616d746e546d7043545531715458644a52474e335645524a656b395451544e4e52586435546b52425a303945516b314e616c55315355526e6431524553544a4e5130453154555633655535366132645056454a4e5457706e64306c455258644e52586435543152425a3031555158645552456b3154554e4265453155516b314e656b453153555246654531466433704e5645466e5456524a6431524554586c4e5130463454577043545531365358644a5245563454555a77546b31715358644a5245557a54555633655531715157644e564656335645524a654531445158684f56454a4e5457704664306c4552544a4e5258637954554e4265453571516b314f616b466e54565256643152455658644a52455578545556334d5531445158684f656b4a4e546d70425a3031555933645552466c33535552464e453956647a4a4e5530463454315243545531715158644a5245553154555633655531455157644e564764335645526a64306c455254524e5258637a54554e4265453536516b314e616b4633535552464d30314664336c4e5245466e5456526a4e5652455358644e5530463454305243545531715258644a5245553054555633655531555157644e56474e335645524a655531445158684f656b4a68564652464d6b31445158684e616b4a4e5456525a64306c455254424e52586434543152425a303155555864555245553154554e4265453171516b314e56466c3353555246655531476345354f656b466e54565252643152455258644e51304634546b5243545531555158644a52455635545556334d3031445158684e616b4a4e546e70425a30315555586458617a417754554e4265453145516b314f5245466e54565246643152455258684e5130463454565243545531555258644a5245563354555633654531715157644e5645463356455246655531445154564e52586434545652425a303955516b314e564556335355526a643152455258644e5130457a54555633654531455157644e564546335645525264306c455258644e526e424f5456525664306c45593364555245557754554e424d3031466433684f5245466e54315243545531555458644a5247743356455246656b31445158684e52454a4e5456525264306c455258644e52586434546b52425a3031555258645552456b7854554e4265453155516b314e616c563353555246643031466433684f5645466e54565242643152455254464e5130457a54555a7661556c444f43745153454a6f5a45646e5a316b796547686a4d3030355357354f62324e4554576c4a52314535535773774d6b31445158684f52454a4e546d70425a303155565864555245563354554e4265453555516b314e56454633535552464d453146647a4a4e51304634546b5243595652555758644a52455633545556334d6b31445154564e52586434545552425a303955516b314e564546335355524664303146647a4a4e51304634545552435956525552586c4e5130453154555633654531365157645056454a4e5456524e64306c455258644e52586434546b52425a303155515864555245557754554e4265453155516b314e5645563353555246654531466433684e5645466e545652426431524552586c4e5130463454555243545531555358644a5247743356327377654531715157644f656b4a4e5456524a64306c455a3364555245563654554e424e4531466433684e656b466e546e7043545531555358644a52474e3356327377654535555157644e56454633564552464d5531445154564e52586435545552425a303955516b314e616b463353555246643031466433684f5645466e54565242643164724d48684f616b466e545652526431524552544a4e51304634546c5243545531715158644a5245557854555633655531455157644e56464633564552464d6b31445158684f52454a6856465246654531445158685056454a4e5456524664306c455358644e52586434546b52425a303171515864555245557754554e4265453955516b314e56455633535552464e5531476345354e616b4633535552464e45314664336c4e5245466e54565272643152455358684e5130463454315243545531715258644a5245553054555633655531455157644e5647643356327377655531715157644e564764335645524a654531545158685052454a4e5457704664306c4552544e5056586435545652425a3031555933645552456c3554554e4265453536516b314e616b6c33535552464e45314762326c4a517a677255456857656c70545157646853457073576d6f7761556b7962485261656b56705355686e4f556c715254424a6155493155464e4a4d556c7051585a51616e6778597a4a565a306c4861486c6156316b3553576c4f63474a5859336c4a6155493055464e4a4e556c70516a565155306c355458705a61556c444f43745153465a36576c4e425a324649536d7861616a427053544a736446703654576c4a534763355357707261556c49617a6c4a616b6b30546c4e4a5a3078364e44684d4d303479576e6f305053494b66513d3d23a2646970667358221220029e133f655dafb92eda03157a48b6747e5c0069578001bad5d5565b63a8995c64736f6c63430008070033",
  "immutableReferences": {},
  "source": "// SPDX-License-Identifier: MIT\npragma solidity ^0.8.0;\n\nimport \"@openzeppelin/contracts/token/ERC721/ERC721.sol\";\nimport \"@openzeppelin/contracts/token/ERC721/IERC721.sol\";\nimport \"@openzeppelin/contracts/access/Ownable.sol\";\nimport \"@openzeppelin/contracts/utils/Counters.sol\";\nimport \"@openzeppelin/contracts/security/ReentrancyGuard.sol\";\nimport \"@openzeppelin/contracts/utils/math/SafeMath.sol\";\n\n\ncontract TheGuySoft is ERC721, Ownable, ReentrancyGuard {\n    using SafeMath for uint256;\n    using Counters for Counters.Counter;\n    \n    Counters.Counter private _tokenIdCounter;\n    \n    struct Payee {\n        address wallet;\n        string role;\n        uint256 percentage;\n    }\n    \n    modifier onlyUser(address _sender) {\n        //require(tx.origin == msg.sender, \"contracts are not allowed\");\n        uint32 size;\n        assembly {\n            size := extcodesize(_sender)\n        }\n        require(size == 0, \"contracts are not allowed\");\n        _;\n    }\n    \n    uint256 public mintPrice = 0.01 ether;\n    \n    // mainnet\n    IERC721 internal BLITMAP_CONTRACT = IERC721(0x8d04a8c79cEB0889Bdd12acdF3Fa9D207eD3Ff63);\n    \n    // test\n    //IERC721 internal BLITMAP_CONTRACT = IERC721(0x1b4C2BA0c7Ee2AAF7710A11c3a2113C24624852B);\n    \n    function withdrawToPayees(uint256 _amount) internal onlyUser(msg.sender) {\n        //MAINNET\n        Payee memory payee1 = Payee(0x3B99E794378bD057F3AD7aEA9206fB6C01f3Ee60, \"artist\", 25);\n        Payee memory payee2 = Payee(0x575CBC1D88c266B18f1BB221C1a1a79A55A3d3BE, \"developer\", 25);\n        Payee memory payee3 = Payee(BLITMAP_CONTRACT.ownerOf(346), \"owner of #346\", 50);\n        Payee[3] memory payees = [payee1, payee2, payee3];\n        \n        \n        for (uint256 i = 0; i < payees.length; i++) {\n            Payee memory payee = payees[i];\n            address payable to = payable(payee.wallet);\n            to.transfer(_amount.mul(payee.percentage).div(100));    \n        }\n    }\n\n\n    constructor() ERC721(\"The Soft Bid Guy\", \"BIDGUY\") onlyOwner {}\n\n    function mint(uint256 amount) external payable nonReentrant {\n        require(msg.value >= mintPrice.mul(amount), \"not enough ethers\");\n        withdrawToPayees(msg.value);\n        for (uint256 i = 0; i < amount; i++) {\n            _safeMint(msg.sender, _tokenIdCounter.current());\n            _tokenIdCounter.increment();\n        }\n    }\n    \n    \n    function mintTo(address to, uint256 amount) external payable nonReentrant {\n        require(msg.value >= mintPrice.mul(amount), \"not enough ethers\");\n        withdrawToPayees(msg.value);\n        for (uint256 i = 0; i < amount; i++) {\n            _safeMint(to, _tokenIdCounter.current());\n            _tokenIdCounter.increment();            \n        }\n        \n    }\n\n    function _baseURI() internal pure override returns (string memory) {\n        return \"data:application/json;base64,ewogICAgIm5hbWUiOiAiVGhlIFNvZnQgQmlkIEd1eSIsCiAgICAiZGVzY3JpcHRpb24iOiAiaHR0cHM6Ly95b3VyYmlkc3Vja3Mud3RmIHwgT3JpZ2luYWwgQmxpdG1hcCBJRDogIzM0NiIsCiAgICAiaW1hZ2UiOiAiZGF0YTppbWFnZS9zdmcreG1sO2Jhc2U2NCxQSE4yWnlCMlpYSnphVzl1UFNJeExqSWlJR0poYzJWUWNtOW1hV3hsUFNKMGFXNTVMWEJ6SWlCNGJXeHVjejBpYUhSMGNEb3ZMM2QzZHk1M015NXZjbWN2TWpBd01DOXpkbWNpSUhacFpYZENiM2c5SWpBZ01DQXpNakFnTXpJd0lpQjNhV1IwYUQwaU16VXdJaUJvWldsbmFIUTlJak0xTUNJK1BIUnBkR3hsUG1sdFlXZGxQQzkwYVhSc1pUNDhaR1ZtY3o0OGFXMWhaMlVnWVhKcFlTMXNZV0psYkQwaVdXOTFjaUJpYVdRZ2FYTWdjMjhnYzI5bWRDQjBhR0YwTGk0dUlpQWdkMmxrZEdnOUlqSTNNU0lnYUdWcFoyaDBQU0l5TXlJZ2FXUTlJbWx0WnpFaUlHaHlaV1k5SW1SaGRHRTZhVzFoWjJVdmNHNW5PMkpoYzJVMk5DeHBWa0pQVW5jd1MwZG5iMEZCUVVGT1UxVm9SVlZuUVVGQlVUaEJRVUZCV0VOQlRVRkJRVUZwUVhwd1QwRkJRVUZCV0U1VFVqQkpRakpqYTNObWQwRkJRVWRzVVZSR1VrWkJRVUZCTHk4dkx5OHZMeTh2THk4dkx5OHZMeTh2THk4dkx5OHZMeTh2THk4dkx5OHZMeTh2TDNZM0t5OHZMeTh2THk4dkx5OHZMeTh2THk4dmRqY3JMM1kzS3k4dkx5OHZkamNyTHk4dkx5OTJOeXN2THk4dkx5OHZMeTkyTnlzdkx5OHZMeTh2THk4dkx5OHZMeTh2THk4dkx5OTJOeXN2ZGpjckx5OHZMeTh2THk4dkx5OHZMeTh2TDJ0TmNXWkdkMEZCUVVOT01GVnJOVlJCUlVFdlJVTkJkeTgwUkVGMk56ZG5XVXBFZDNvNUsyY3dTRU5tWmpJNFZGVlJjRWRMUkRSbU0xZ3dVa1IzYVVwVFpIQkVRVUZCUTBkRmJFVlJWbEkwYms4eVdXWllaVU5KUWxSSFoxaE1RWEpOZVcxaVlYVTVNV1ptTDJ0QlRVWjFVbVJGV2pKVmRscDZOUzlaVDJaRFpsSTNPRkpTTlZCb1JrUkhNa2wzVVUxc1psaG9RWGhSUVdoMU1IazVlRGh1YWtacVUxbDNkRWN5VEdKeU9IRjVNVE5hTWxsMlExUkZiRlpZY25FMWFWTkxUMEZFWkhGR2JUZ3ZWVmRvU21vck0xUkRkR3B3VlZkbVltRXdhRTlFU0RWdlNGQktXakZrYkU5Sk9EQnFPRXB4VTBnMVowWnFkbGd6UldWUmFTOURWMjVwWjFoVldraHNRMGw0ZDJkRFR6VXhOR3REZG5wRlRrdGxVbTAzVUdWeU0ya3lXbEpVWVU5elpETkpWazFpWTI0M2RsUnFZa0oxUmxOeWJIZEtlR3h3THpCS1RFbDZUblZYYVRCWGJYSnJSR1E1YTBOTU0zQnFkMjAzY0RSQ1F6VkVaVXRDV1hoTlRrNXBURVJtYVM5V2RVeFlOWHB2TDBoSmNFcFVjbUZyVm5sUVVqUnlWVVZMZUhRclpsSTFWRWxoYWpKcWN6Tm1TRWxsWkhKUFdUaE5OV1kwUlRoVmNEYzNVRVY1Y0doVlprOTBVbGwzVjBwblUybG5XSHBQV25wdVNFdFpiMDlaTDBFeFIzVm9iRlV2ZFdWTFEyMVFhRGRWVUVsSlJFaHFiSE5HU3pSQ09HaERkRGQ0SzNkQ1NVczVWbmhpTURWSlkzUk1VMjFDYURGa1FVeG1SMVZSUW5CamFYRnRUM2hMVFc5NU5VdFllbUpsYVZFMlZYQjRXR2RWWTFBMFRVaHlWRlZMZGpkRGR6azBZV05DYlVwb2VqSkViMHd2TVZkSlNtSlJMMDV1T0VGcFpVZzNabTFKVTNGMFNVazViRlpWY1dwUVIwUk1TbGhwYzNoUFdpdGxUVUZYU2s1VVUzTjBUbTk1YlVGbFdGTnVaRkJNV1hOamVuZFpOaXREVW5OaE1HWmhNRzlsUkRGeU9XZGFUa0pJYmxkd1kwUjFNWE5YWnl0akwxQXhWR2RKWlVKbWVHWjVhRlZEU0hNelIxSk1VRzA1VlROd2JtVjZWWFZEWkRkT1pUVmhaV1JVZVdadVYzUlFTWGwxTHk4MGFEaEtjbGtyTUdZd0sxWkhkaXRrUTFoVUwwdHNlSEJLT0hFelJUazRXbWcwVkVSNVJ6aDJhVE1yYkVWcE5VdEVSMGw2YlhFNFprRk1ORWw0VDJrMmRISlFSbU5CUVVGQlFWTlZWazlTU3pWRFdVbEpQU0l2UGp4cGJXRm5aU0JoY21saExXeGhZbVZzUFNJdUxpNTViM1VnYUdGMlpTQmlaV1Z1SUhacGMybDBaV1FnWW5raUlDQjNhV1IwYUQwaU1qZzBJaUJvWldsbmFIUTlJakk1SWlCcFpEMGlhVzFuTWlJZ2FISmxaajBpWkdGMFlUcHBiV0ZuWlM5d2JtYzdZbUZ6WlRZMExHbFdRazlTZHpCTFIyZHZRVUZCUVU1VFZXaEZWV2RCUVVGU2QwRkJRVUZrUTBGTlFVRkJRbEJCVTFCRVFVRkJRVUZZVGxOU01FbENNbU5yYzJaM1FVRkJSMnhSVkVaU1JrRkJRVUV2THk4dkx5OHZMeTh2THk4dkx5OHZMeTh2THk4dkx5OHZMeTh2THk4dkx5OHZMeTh2ZGpjckx5OHZMeTh2THk4dkx5OHZMeTh2THk4dkx5OHZkamNyTHk4dkx5OHZMeTh2ZGpjckwzWTNLeTkyTnlzdkx5OHZMeTh2THk4dkx5OHZMeTh2TDNZM0t5OHZMeTh2ZGpjckx5OHZMeTh2THk4dkx5OHZMeTh2THk4dkx5OHZMeTh2VGxodGMzTm5RVUZCUTA0d1ZXczFWRUZDUVM5UlEwRjNMelJFUVhZNVFtYzBTa1IzWTB4RFoyWTFMMlpEVmtWVlVFUkpaR0k0T0dWMlZqUlNSRUZ4YURoTVlrbEJRVUZEVkZWc1JWRldValJ1VHpKWk5scExRMDFDUTBWSk1XVkRTMHgxYVdVNGNXVTNMeXRSVXpWcVJYcEthRXhDV1RsaE5sSXJWMHBJVkZBMVFrOXFSbU5aUjJGd1dqQlBjMjFhWkhOYWMyRkliVmN5ZVd4NVMwa3ZXVTF1ZVZCSk1rMWpjRlZYYm1zMWVsTjVRV1pZUmpOaFMwaENTVkpIT0dZelQwUk1SekJqTTBORFZDOVRaSGMwYmpOT1owVTFLemRvWlVSWVFrTmxhR05qUzBKME5WSmtiRzlSVWtSQ1kzbHVkVUZqZVVRd2NGWlRWMVY0UzFGS1dESlJNMmhMYm1zMWNIbHNTMlJIUlhCeWJVcGFhRWRyYzFwV1Z6Vk5RbTVNYzNRM2RtaE9WRUZIVmtVME1YVktVR2RyVGtsUFQwUm5Sa0pTTlV0Q2VreFJkVUozYmtkRlEyZzRVRXBNZDB0SVZraHJORWh2Tld4SldFRmxZMVZoT1dWNk9HTnFjak0wWXpoQlNuQTRWR2hYUWxsRGVERnlPSEZJUWxkbVFrZEZkM3BzV1ZWcE5qRTRjME5DUmtGS1NHTlBSM0JCY0VkUmMyOUVTVWRLZVN0UFRUaDNTRVJQZDNrNFFteEZVbmRaVDJkWFQxazJWVVZFZGpOd09GWjBTWGxqVDNGUFVEWXdLME14YjNKa2FFTkNia0phV2tGb01VOW5ObU4wU2taaFpYbDZjbHBvVDBWQkwxQkxNR3BVU0hkTGJrRXdhbE00ZVdSNGQwNTBSRmRHWlVWamRtVm1OR1I2WVdORmIyWnFLemRWZVdreFpUWk5jSGhoZWtReVYzVmFRbUZsY1haQlprRlhWeTl5TTBsRU5GTlVkeXN3UWs5RVdHTmpWMVUwWTFsMUwybHNiVGhtZDA1NGQydEhVa2hxYWs5Q2VsbEhOU3R0TlRCM2REYzNWamRtTWt4MU9GVkNkRVZ6YWxreGRHdHNjaTlGYTFOb1RrMXRWelZOZGxVeWNqbGxWek5zU1ZsSk5WbHVTbFZUWm5CVVNqRldSbUYxWVVRd01XWlNWSGhpZG5vMk5GTXpVbWw1YlVsM1Z6ZHhRbXhGVW5kWlMyNVRibUpVTHk4d1YyVjNWSHB1VUhaemR6aExURkZpWlU5RWN6VjJWVE5ZVjJkVE5raEtMelpQWnpsd09VRkVXaTl0Wm04clkyNVBSbVZGU1RKM1UwazRSM2c1WjNWSVFsaG1hVmRRZDBWYWQwRmpPWFF5U25OYUwzVTVWbVJtYlVJMWFUVTVWQzlXY2taRUsyZHRUMk00V25oSWJsRXZZMmg2VERCWWJqZGhNMnN2WTNWNFNsSkNUMk5EV1RWaVRWUm5WakUyYjNVelRtdE9hVXAyUmk5M1NFdFFiR1l3UmxwdGVUbG5RVUZCUVVKS1VsVTFSWEpyU21kblp6MDlJaTgrUEdsdFlXZGxJR0Z5YVdFdGJHRmlaV3c5SWxSb1pTQkhkWGtnVTI5bWRDd2dTMmx1WnlCdlppQmpkV05yY3lJZ0lIZHBaSFJvUFNJek1ERWlJR2hsYVdkb2REMGlNamtpSUdsa1BTSnBiV2N6SWlCb2NtVm1QU0prWVhSaE9tbHRZV2RsTDNCdVp6dGlZWE5sTmpRc2FWWkNUMUozTUV0SFoyOUJRVUZCVGxOVmFFVlZaMEZCUVZNd1FVRkJRV1JEUVUxQlFVRkVTVTFOY2taQlFVRkJRVmhPVTFJd1NVSXlZMnR6Wm5kQlFVRkdVbEZVUmxKR1FVRkJRUzh2THk4dkx5OHZMeTh2THk4dkx5OHZMeTh2THk4dkx5OHZMeTh2THk4dkwzWTNLeTh2THk4dkx5OHZMM1kzS3k4dkx5OHZMeTh2TDNZM0t5OHZMeTh2ZGpjckx5OHZMeTh2THk4dkx5OHZMM1kzS3k5Mk55c3ZMeTh2THk4dkx5OHZMeTh2THk4dkx5OHZMMWhhT1RaalFVRkJRVUo0TUZWck5WUkJSVUV2VFVKQlp5ODRRMEV3VERsbk16VkVkemN6UTNkdlQwSXZiamc1ZGxCR1JYbDJaWGRhTlM5UlFVRkJTMlpUVlZKQ1ZraHBZemRhYm5KbGNVMW5SVWxaYkVwclRGSndSekF3TmxkaU15OTFPWHBXVlRSNmR6QkdTV1pVWW5KeWRDdG1Wa2xZTldocVkwUkZiSEJXTjA5Q1ZWWTRabkEwTVdoR1pGRlRkRVEyWkRSUE5qQlVZa1UzUXpGMFdUQktjVms1TldscWNVMXdSbUZNUlVwbGNHdzFjVFJUTkU1RlN5OVpPVTFGVXpseVF6VlhURkZXYzBSclNuazJNWEJVVFZwcWFuRkpkVVUyYmtaSmRWSnNObkZWVnpkMlNYbFhiUzlYT1V0b2NVbzFhbUZVWjNOaVlUbE9TV0ZxYzNSaVRIZHdWM1pvY0VaeE1UaFhPVWhGTVRaVlIyMTVXbUZwUkVwVVJYRkZVVGhMVTJSV2IyMUxZVXB1Y1hKaFZscHBZVEJzUjFKcFlVazVlV1pXYjFKWFMzcHpWREJLZFVwclltNXhlbFZVZWt0d01YWnVaVmhHVW5SRk5ua3pabVozZHpaa1V6TlhhbXN5WlZSeFdIQjFWVFZQZVRGcWVUQnlaV3hwVUZOTE1IZE5WVFowVFVGNWRHYzBkR1F5Um1Rd1NFOVFWbWROTmtsR2IyZE9XVnB3ZDFNMGNGZG9PVkpYYkhoUFlYSk9iM1pqT1hSS1Vpc3Zjemc1ZVZkME0xbDBWM1psUjBGMlUzVnFVWFY1Y1hSd2IxRnBTVVp0Y1hoUlNYUnJWVlZuVERWS2JVazRWWEJoVmpsSE56VnJTM05UTm5OWVZqbGxTa041Um1FeFYxZzRVelZDWmtjeFJtRktRV0Z1ZEU1UmRDOW1kelpDYlZsM2NFSndaV2RLV1U5eGVuazJjMkZTTjBsV2VVMUxaRTFSY2xGRVl6bFhhVkpNUlVaUlZERkdZV2RhUldsWGMwaFZjVFIzV1ZsUWFrVkdhV2hHWVhoblEzUkJVM04yWjFGMFNuSlRaWEJxVmxaSU1pczJXVlpwVkZaMWRFdEhjMk0wY1ZGdk0zUkxlblJpVW1kSFRWZFVWV3h4YTB4U1EzVlpWa2xFVnpodVpUWlNRM1kwVkhaM2RVeFVVMWRUUVhsME5WaFZUREJsUzNwaGRYbDNZMVp5ZEZkRGNtZ3lhRzltUkV0eE1tVjBObkkxZDNKQlNsazRWMGh6UXk5UlUzUnVNMU5NUkVJeUsxTkdRekU0YTNObVRYSlVkSE0wVkhKa1JERXZVWGMxTkVkQ2JHOVJWM055YkhnclVIZ3JSbXhITmpOaE5GVldjbkZXYjNwWE1UVjNPRTQzWVU5c2F6Wk9NRVpKYm1sMll6aFhhM0J2Y21oelJtUnBiR0ZLY20xc0wxSmlXalZNU0hFeGVsUlhUV3h3U3poVVdFaHZNbFUyZUZCbFYxSm1kWFJ1WkZwUFlUWm1NVVZzY0hKeGRrRkZha0ZxVW5sc1dIRkdUekIyTVRBMGNsUTJNM00yVlhkelZtbEhkSGRIYm1kV2IxUlBLM0ExVlVsaE0wRmhaVUpYZEVGWmRIUkVkR1F4YmpsUGNURkJZbkJ0VjFCYU1GUm9kaXNyWlZZeWMyUXllamxvT1hoemJGVldjbUl6ZGk4eGJXZEJRVUZCUWtwU1ZUVkZjbXRLWjJkblBUMGlMejQ4TDJSbFpuTStQSE4wZVd4bFBuUnpjR0Z1SUhzZ2QyaHBkR1V0YzNCaFkyVTZjSEpsSUgwdWMyaHdNQ0I3SUdacGJHdzZJQ05rTlRkbFlqRWdmU0F1YzJod01TQjdJR1pwYkd3NklDTmxOV0ZqWWpNZ2ZTQXVjMmh3TWlCN0lHWnBiR3c2SUNOaVlUY3pPVE1nZlNBdWMyaHdNeUI3SUdacGJHdzZJQ05sT1dVNVpUa2dmU0E4TDNOMGVXeGxQanh3WVhSb0lHTnNZWE56UFNKemFIQXdJaUJrUFNKTk16SXdJRE15TUV3d0lETXlNRXd3SURCTU16SXdJREJNTXpJd0lETXlNRm9pSUM4K1BIQmhkR2dnWTJ4aGMzTTlJbk5vY0RFaUlHUTlJazB6TWpBZ01qa3dUREk1TUNBeU9UQk1Namt3SURJNE1Fd3lOekFnTWpnd1RESTNNQ0F5TnpCTU1qUXdJREkzTUV3eU5EQWdNall3VERJek1DQXlOakJNTWpNd0lESTFNRXd5TURBZ01qVXdUREl3TUNBeU5EQk1NVFl3SURJME1Fd3hOakFnTWpNd1RERXpNQ0F5TXpCTU1UTXdJREl5TUV3eE1UQWdNakl3VERFeE1DQXlNVEJNT0RBZ01qRXdURGd3SURJd01FdzJNQ0F5TURCTU5qQWdNVGt3VERVd0lERTVNRXcxTUNBeE9EQk1NekFnTVRnd1RETXdJREUyTUV3eU1DQXhOakJNTWpBZ01UUXdUREV3SURFME1Fd3hNQ0F4TWpCTU1qQWdNVEl3VERJd0lEa3dURE13SURrd1RETXdJRGd3VERRd0lEZ3dURFF3SURjd1REWXdJRGN3VERZd0lEWXdURGd3SURZd1REZ3dJRFV3VERFNU1DQTFNRXd4T1RBZ05qQk1Nak13SURZd1RESXpNQ0EzTUV3eU5EQWdOekJNTWpRd0lEZ3dUREkyTUNBNE1Fd3lOakFnT1RCTU1qZ3dJRGt3VERJNE1DQXhNREJNTWprd0lERXdNRXd5T1RBZ01URXdURE14TUNBeE1UQk1NekV3SURFeU1Fd3pNakFnTVRJd1RETXlNQ0F5T1RCYUlpQXZQanh3WVhSb0lHTnNZWE56UFNKemFIQXlJaUJrUFNKTk16SXdJREV4TUV3ek1UQWdNVEV3VERNeE1DQXhNREJNTXpBd0lERXdNRXd6TURBZ09UQk1Namd3SURrd1RESTRNQ0E0TUV3eU5qQWdPREJNTWpZd0lEY3dUREkwTUNBM01Fd3lOREFnTmpCTU1qTXdJRFl3VERJek1DQTFNRXd5TURBZ05UQk1NakF3SURRd1REZ3dJRFF3VERnd0lEVXdURFV3SURVd1REVXdJRFl3VERRd0lEWXdURFF3SURjd1RESXdJRGN3VERJd0lEZ3dUREV3SURnd1RERXdJREV4TUV3d0lERXhNRXd3SURFMU1Fd3hNQ0F4TlRCTU1UQWdNVGN3VERJd0lERTNNRXd5TUNBeE9EQk1NekFnTVRnd1RETXdJREU1TUV3ME1DQXhPVEJNTkRBZ01qQXdURFV3SURJd01FdzFNQ0F5TVRCTU56QWdNakV3VERjd0lESXlNRXd4TURBZ01qSXdUREV3TUNBeU16Qk1NVE13SURJek1Fd3hNekFnTWpRd1RERTFNQ0F5TkRCTU1UVXdJREkxTUV3eE9UQWdNalV3VERFNU1DQXlOakJNTWpJd0lESTJNRXd5TWpBZ01qY3dUREkwTUNBeU56Qk1NalF3SURJNE1Fd3lOakFnTWpnd1RESTJNQ0F5T1RCTU1qa3dJREk1TUV3eU9UQWdNekF3VERNeE1DQXpNREJNTXpFd0lETXhNRXd6TWpBZ016RXdURE15TUNBeU9UQk1Namt4SURJNU1Fd3lPVEFnTWpnd1RESTNNQ0F5T0RCTU1qY3dJREkzTUV3eU5ERWdNamN3VERJME1DQXlOakJNTWpNd0lESTJNRXd5TXpBZ01qVXdUREl3TUNBeU5UQk1NakF3SURJME1Fd3hOakFnTWpRd1RERTJNQ0F5TXpCTU1UTXhJREl6TUV3eE16QWdNakl3VERFeE1DQXlNakJNTVRFd0lESXhNRXc0TUNBeU1UQk1PREFnTWpBd1REWXdJREl3TUV3Mk1DQXhPVEJNTlRBZ01Ua3dURFV3SURFNE1Fd3pNU0F4T0RCTU16QWdNVFl3VERJd0lERTJNRXd5TUNBeE5EQk1NVEFnTVRRd1RERXdJREV5TUV3eU1DQXhNakJNTWpBZ09UQk1NekFnT1RCTU16QWdPREJNTkRBZ09EQk1OREVnTnpCTU5qQWdOekJNTmpBZ05qQk1PREFnTmpCTU9ERWdOVEJNTVRrd0lEVXdUREU1TUNBMk1Fd3lNamtnTmpCTU1qTXdJRGN3VERJek9TQTNNRXd5TkRBZ09EQk1NalU1SURnd1RESTJNQ0E1TUV3eU56a2dPVEJNTWpnd0lERXdNRXd5T1RBZ01UQXdUREk1TUNBeE1UQk1NekE1SURFeE1Fd3pNVEFnTVRJd1RETXlNQ0F4TWpCTU16SXdJREV4TUZwTk1qSXdJREUzTUV3eU1qQWdNVFV3VERJeE1DQXhOVEJNTWpFd0lERTJNRXcyTUNBeE5qQk1OakFnTVRVd1REVXdJREUxTUV3MU1DQXhOekJNTmpBZ01UY3dURFl3SURFNE9VdzJNU0F4T1RCTU1qQXdJREU1TUV3eU1EQWdNVGd3VERjd0lERTRNRXczTUNBeE56Qk1NakF3SURFM01Fd3lNREFnTVRjNVRESXdNU0F4T0RCTU1qRXdJREU0TUV3eU1UQWdNVGN3VERJeU1DQXhOekJhVFRFMk1DQXhNakJNTVRZd0lERTBNRXd4T1RBZ01UUXdUREU1TUNBeE1qQk1NVFl3SURFeU1GcE5OekFnTVRRd1RERXdNQ0F4TkRCTU1UQXdJREV5TUV3M01DQXhNakJNTnpBZ01UUXdXazAwTUNBeE1EQk1OREFnTVRFd1RERXhNQ0F4TVRCTU1URXdJREV3TUV3eE1qQWdNVEF3VERFeU1DQTVNRXd4TVRBZ09UQk1NVEV3SURjd1RERXdNQ0EzTUV3eE1EQWdNVEF3VERRd0lERXdNRnBOTVRVd0lEY3dUREUwTUNBM01Fd3hOREFnT1RCTU1UTXdJRGt3VERFek1DQXhNREJNTVRRd0lERXdNRXd4TkRBZ01URXdUREkxTUNBeE1UQk1NalV3SURFd01Fd3hOVEFnTVRBd1RERTFNQ0EzTUZvaUlDOCtQSEJoZEdnZ1kyeGhjM005SW5Ob2NETWlJR1E5SWswMk1DQXhOREJNTmpBZ01UVXdUREV3TUNBeE5UQk1NVEF3SURFME1FdzJNQ0F4TkRCYVRUWXdJREV3TUV3Mk1DQTVNRXd4TURBZ09UQk1NVEF3SURFd01FdzJNQ0F4TURCYVRURXlNQ0E1TUV3eE16QWdPVEJNTVRNd0lERXdNRXd4TkRBZ01UQXdUREUwTUNBeE1UQk1NVEV3SURFeE1Fd3hNVEFnTVRBd1RERXlNQ0F4TURCTU1USXdJRGt3V2sweE1qQWdOekJNTVRJd0lEZ3dUREV6TUNBNE1Fd3hNekFnTnpCTU1USXdJRGN3V2sweE5UQWdNVEF3VERFMU1DQTVNRXd5TURBZ09UQk1NakF3SURFd01Fd3hOVEFnTVRBd1drMHhOakFnTVRRd1RERTJNQ0F4TlRCTU1qQXdJREUxTUV3eU1EQWdNVFF3VERFMk1DQXhOREJhVFRFeE1DQXhPVEJNTVRFd0lESXdNRXd4TkRBZ01qQXdUREUwTUNBeE9UQk1NVEV3SURFNU1GcE5NakF3SURFNE1Fd3lNREFnTVRrd1RESXhNQ0F4T1RCTU1qRXdJREU0TUV3eU1EQWdNVGd3V2sweU1qQWdNVGd3VERJeE1TQXhPREJNTWpFd0lERTNPVXd5TVRBZ01UY3dUREl5TUNBeE56Qk1Nakl3SURFNE1Gb2lJQzgrUEhWelpTQWdhSEpsWmowaUkybHRaekVpSUhnOUlqRTBJaUI1UFNJMUlpQXZQangxYzJVZ0lHaHlaV1k5SWlOcGJXY3lJaUI0UFNJNUlpQjVQU0l5TXpZaUlDOCtQSFZ6WlNBZ2FISmxaajBpSTJsdFp6TWlJSGc5SWpraUlIazlJakk0TlNJZ0x6NDhMM04yWno0PSIKfQ==#\";\n    }\n\n    function tokenURI(uint256 tokenId)\n        public\n        view\n        override(ERC721)\n        returns (string memory)\n    {\n        return super.tokenURI(tokenId);\n    }\n    \n    \n}\n",
  "sourcePath": "/home/c8r/repos/the-guy-soft/contracts/TheGuySoft.sol",
  "compiler": {
    "name": "solc",
    "version": "0.8.7+commit.e28d00a7.Emscripten.clang"
  },
  "schemaVersion": "3.4.2",
  "updatedAt": "2021-08-12T13:52:45.518Z",
  "devdoc": {
    "kind": "dev",
    "methods": {
      "approve(address,uint256)": {
        "details": "See {IERC721-approve}."
      },
      "balanceOf(address)": {
        "details": "See {IERC721-balanceOf}."
      },
      "getApproved(uint256)": {
        "details": "See {IERC721-getApproved}."
      },
      "isApprovedForAll(address,address)": {
        "details": "See {IERC721-isApprovedForAll}."
      },
      "name()": {
        "details": "See {IERC721Metadata-name}."
      },
      "owner()": {
        "details": "Returns the address of the current owner."
      },
      "ownerOf(uint256)": {
        "details": "See {IERC721-ownerOf}."
      },
      "renounceOwnership()": {
        "details": "Leaves the contract without owner. It will not be possible to call `onlyOwner` functions anymore. Can only be called by the current owner. NOTE: Renouncing ownership will leave the contract without an owner, thereby removing any functionality that is only available to the owner."
      },
      "safeTransferFrom(address,address,uint256)": {
        "details": "See {IERC721-safeTransferFrom}."
      },
      "safeTransferFrom(address,address,uint256,bytes)": {
        "details": "See {IERC721-safeTransferFrom}."
      },
      "setApprovalForAll(address,bool)": {
        "details": "See {IERC721-setApprovalForAll}."
      },
      "supportsInterface(bytes4)": {
        "details": "See {IERC165-supportsInterface}."
      },
      "symbol()": {
        "details": "See {IERC721Metadata-symbol}."
      },
      "tokenURI(uint256)": {
        "details": "See {IERC721Metadata-tokenURI}."
      },
      "transferFrom(address,address,uint256)": {
        "details": "See {IERC721-transferFrom}."
      },
      "transferOwnership(address)": {
        "details": "Transfers ownership of the contract to a new account (`newOwner`). Can only be called by the current owner."
      }
    },
    "version": 1
  },
  "userdoc": {
    "kind": "user",
    "methods": {},
    "version": 1
  }
}